:020000040800F2
:10100000A80D0020AD110008691600083916000867
:1010100065160008611500087D1900080000000031
:10102000000000000000000000000000E1160008C1
:1010300035160008000000006D160008E5160008CF
:10104000C7110008C7110008C7110008C711000820
:10105000C7110008C7110008C7110008C711000810
:10106000000000006515000891150008CD15000866
:10107000F5130008C7110008C711000800000000A0
:10108000C9180008C7110008000000008D180008EA
:10109000A1180008B9180008C7110008C7110008F6
:1010A000C7110008C7110008C71100087919000806
:1010B000C711000800000000000000000000000050
:1010C000C711000800000000C711000800F002F876
:1010D00000F05CF80AA090E8000C82448344AAF176
:1010E0000107DA4501D100F051F8AFF2090EBAE874
:1010F0000F0013F0010F18BFFB1A43F0010318474C
:1011000064640000846400000A444FF0000C10F88E
:10111000013B13F0070408BF10F8014B1D1108BF75
:1011200010F8015B641E05D010F8016B641E01F815
:10113000016BF9D113F0080F1EBF10F8014BAD1C65
:101140000C1B09D16D1E58BF01F801CBFAD505E083
:1011500014F8016B01F8016B6D1EF9D59142D6D3DD
:10116000704700000023002400250026103A28BF05
:1011700078C1FBD8520728BF30C148BF0B60704709
:101180001FB505F0FFFF1FBD10B510BD00F060F8E2
:101190001146FFF7F5FF02F039FF00F097F803B4AE
:1011A000FFF7F2FF03BC00F0FDF80000094880479C
:1011B00009480047FEE7FEE7FEE7FEE7FEE7FEE739
:1011C000FEE7FEE7FEE7FEE704480549054A064B51
:1011D00070470000E9160008CD100008A80700209D
:1011E000A80D0020A8090020A80900204FF0000247
:1011F00000B5134694469646203922BFA0E80C500D
:10120000A0E80C50B1F12001BFF4F7AF090728BFE7
:10121000A0E80C5048BF0CC05DF804EB890028BF63
:1012200040F8042B08BF704748BF20F8022B11F08C
:10123000804F18BF00F8012B704770477047704708
:1012400000487047C403002000487047C0030020D6
:101250007546FFF7F9FFAE4605006946534620F094
:101260000700854618B020B5FFF7AEFFBDE8204067
:101270004FF000064FF000074FF000084FF0000B52
:10128000AC46ACE8C009ACE8C009ACE8C009ACE8C1
:10129000C00921F007018D46704700001FB584B0DA
:1012A00000200A9C06AB04AA02A90094AFF30080B8
:1012B00018B1DDE9020108B010BD0348204000F07C
:1012C0000EF800200146F6E70000207C10B5044629
:1012D000AFF300802046BDE81040FFF760BF10B5B7
:1012E00000F00AF8BDE81040AFF30080002801D0FC
:1012F00000F058B87047000010B5022803D0410133
:1013000003D50DA112E0002010BD010101D50FA1F0
:101310000CE0C10001D511A108E0810001D512A1A6
:1013200004E0400001D513A100E0002115A000F069
:101330003FF8012010BD0000496E76616C696420A1
:101340004F7065726174696F6E0000004469766960
:101350006465204279205A65726F00004F7665728D
:10136000666C6F7700000000556E646572666C6F86
:1013700077000000496E657861637420526573756B
:101380006C7400005349474650453A2041726974D5
:10139000686D6574696320657863657074696F6EE4
:1013A0003A20000001491820ABBEFEE726000200EB
:1013B00070B505460C460A2000E06D1C00F011F8DF
:1013C00035B128780028F8D102E0641C00F009F853
:1013D00014B120780028F8D1BDE870400A20AFF39E
:1013E000008008B569468DF800000320ABBE08BD3B
:1013F0007047000040F21440C4F201000168890205
:1014000058BF70474FF40011016002F0BBBB0000F1
:1014100040F26450C2F20000818840F2F042C2F211
:1014200000021180018840F2F442C2F200021180F1
:10143000408840F2DC41C2F20001088070470000A1
:10144000F0B587B042F200444FF0904003210022F3
:101450004023C4F20104002702F08AFA4FF4A010DE
:10146000012101F041FD09200221002203F06AFE62
:101470000825C4F20205284602F016F802AE3046EE
:1014800001F0BCFF0320C0F20010CDF8120040F2C2
:101490006450C2F20000039004F14C00029040F24C
:1014A0000110C0F20120CDF8160028463146ADF8F3
:1014B000107001F0B3FF28460221012201F0ECFF79
:1014C0002846012101F094FF0920C0F218000121F3
:1014D00001F00AFD022001F0E1FB01AD284600F019
:1014E00087FA40F20110C0F20030019020462946F0
:1014F00000F05CFA204603210122032300F0A0FA49
:10150000204606210222032300F09AFA20461021E9
:101510000322032300F094FA012000F0C9FB2046C7
:101520000721012200F0A4FB2046012100F078FAF7
:101530002046012100F07EFA204600F05DFA00BF4F
:10154000204600F05FFA0028FAD1204600F05EFA4B
:10155000204600F061FA0028FAD107B0F0BD000083
:10156000FEE70000B0B5022001F050FF012818BFCF
:10157000B0BD0424C4F2020401252560FFF748FF32
:10158000082001F043FF012808BF2560B0BD00001E
:1015900010B51C242020C4F2020401F037FF0128FA
:1015A00006D1102044F8180C206820F001002060BB
:1015B000802001F02BFF012818BF10BD102044F837
:1015C000180C206820F00100206010BD10B5042424
:1015D0004FF48040C4F2020401F018FF012810D13A
:1015E00040F2B840C2F20000007850B140F2204012
:1015F000C4F20000016841F0020101604FF4804034
:1016000020604FF4005001F001FF012808D14FF491
:1016100080502060206C20F00100206404F0E0FF86
:101620004FF4004001F0F2FE012804BF4FF4805057
:10163000206010BD70470000FEE7000043F200008C
:10164000C4F2000045F2555101604CF6CC410160F6
:10165000032141604FF47A6181604AF6AA2101605A
:1016600070470000FEE70000704700007047000070
:10167000B0B544F20C40C4F20100016840F200042D
:1016800021F001010160C2F2000440F29845B4F873
:101690004E00C2F20005B5F8461000EB40000844C9
:1016A0008008A4F84E0000F071FEB4F84E00A17955
:1016B000C2085143AA7DC1EB5000002AE986A5F873
:1016C000400008BF01F012FF40F21450C2F20000C7
:1016D000016842F20F7291429CBF01310160B0BDBE
:1016E000704700007047000041F20000C4F20200A1
:1016F000016841F001010160016889075FBF01686D
:101700005FEA817101685FEA817102D4016889072B
:10171000F2D5416821F00301416000BF416811F03A
:101720000C0F0BD0416811F00C0F07D0416811F07D
:101730000C0F03D0416811F00C0FEFD101684FF688
:10174000FF72CFF6F262114001600021416041F664
:101750001071C1624FF4801101634FF41F01816069
:101760004EF6085041F20001CEF20000C0F6000132
:101770000160704710B50B20C0F21800012101F084
:10178000B3FB42F60044C4F2010440F6B830E06214
:101790000020A06246F66800A0616820E061204653
:1017A0000021012204F090FE20460221012204F0D3
:1017B0008BFE20460421012204F086FE20460121F2
:1017C00004F0A6FE606C3C2161F307006064112404
:1017D000C0F214042046012101F086FB601C0121A7
:1017E00001F082FB40F20044C4F6000420460221CE
:1017F0000022022302F0BCF820460221002201232D
:1018000002F0B6F84FF0904002210022802302F04F
:10181000AFF820460121022202F0D0F82046002134
:10182000022202F0CBF84FF090400721022202F092
:10183000C5F84FF09040022100224FF4806302F07F
:1018400097F84FF09040022100224FF4007302F00D
:101850008FF84FF09040022100224FF4807302F085
:1018600087F84FF090400A21022202F0A7F84FF0CB
:1018700090400921022202F0A1F84FF09040082187
:101880000222BDE8104002F099B8000042F21000B8
:10189000C4F200004FF6FE71016004F0DBB90000F5
:1018A00044F21000C4F201004FF6FE7101604FF6E1
:1018B000FD7101607047000044F21040C4F2010065
:1018C00000210160FFF7D4BE40F21040C4F20000D6
:1018D0000168890744BF4FF6FD7101600168C907BF
:1018E0001CBF4FF6FE71016070470000B0B51220BA
:1018F000C0F21400012101F0F7FA0120C0F21C002F
:10190000012101F0F1FA40F20044C4F6000420463F
:10191000022100221023102502F02AF8204604217B
:10192000012202F04BF84FF4A010012101F0DCFA83
:101930004420C4F2020040F68A1101604EF20B40CE
:10194000CEF2000005704EF20010CEF200004FF40F
:101950000061016040F20040C4F200004FF6FF71E8
:10196000C1628562016841F080010160016841F057
:1019700001010160B0BD000070470000FEE70000FB
:101980004EF60C50BFF34F8FCEF2000001680422D8
:1019900001F4E061C0F2FA5211430160BFF34F8FCE
:1019A00000BF00BF00BF00BFFAE700000A7843682D
:1019B00002F0010223F4807343EA022242604A7873
:1019C000836862F3410383608A78836802F00102CE
:1019D00023F4006343EAC2228260C978C26A0139F3
:1019E00001F00F0122F4700242EA0151C162704716
:1019F0004FF0807101607047816841F0080181609B
:101A0000704700008068C0F3C0007047816841F0F3
:101A100004018160704700008068C0F38000704757
:101A2000826801F0010122F4807242EA01218160A2
:101A300070470000826861F3000282607047000016
:101A4000B0B5112900F29780DFE801F00A0E181CEA
:101A50002024282C303A444C56606A747E8800BF9B
:101A600084465CF8104F38E084465CF8105F3824F8
:101A700004EAC30E25F0380379E000BF84465CF821
:101A8000104F3CE084465CF8104F42E084465CF81E
:101A9000104F48E084465CF8104F4EE084465CF8F6
:101AA000104F54E084465CF8104F5AE084465CF8CE
:101AB000104F03F007034FEA036E24F0E06356E093
:101AC00084465CF8104F03F007034FEAC36E24F01E
:101AD00060534CE084465CF80C4F03F0070E24F092
:101AE000070344E084465CF80C4F382505EAC30E32
:101AF00024F038033BE000BF84465CF80C4F03F051
:101B000007034FEA831E24F4E07330E084465CF858
:101B10000C4F03F007034FEA432E24F4606326E0E2
:101B200084465CF80C4F03F007034FEA033E24F4AD
:101B3000E0431CE084465CF80C4F03F007034FEAD7
:101B4000C33E24F4603312E084465CF80C4F03F08B
:101B500007034FEA834E24F4E01308E084465CF860
:101B60000C4F03F007034FEA435E24F4600343EA9B
:101B70000E03CCF80030013A0F2A88BFB0BDDFE871
:101B800002F0090D1115191D2125292D313D49534B
:101B90005F6B00BF50F8342F3EE000BF50F8342F89
:101BA00044E000BF50F8342F4CE000BF50F8342F11
:101BB00054E000BF50F8342F16E000BF50F8342F27
:101BC0001EE000BF50F8302F26E000BF50F8302F45
:101BD0002CE000BF50F8302F34E000BF50F8302F19
:101BE0003CE000BF50F8302F4FF0F87303EA01518A
:101BF00022F0F87211430160B0BD00BF50F8302FE1
:101C00004FF0785303EA416122F0785211430160AA
:101C1000B0BD00BF50F82C2F01F01F0122F01F02B1
:101C200011430160B0BD00BF50F82C2F4FF4787302
:101C300003EA411122F4787211430160B0BD00BF84
:101C400050F82C2F4FF4F84303EA812122F4F84294
:101C500011430160B0BD00BF50F82C2F4FF4782322
:101C600003EAC13122F4782211430160B0BD0000C3
:101C70008368072923F0007388BF03F10073836032
:101C8000836802F0010261F353438360816821F4A9
:101C9000801141EA0251816070470000826801F0C2
:101CA000010122F4800242EA815181607047000004
:101CB00042F20841C4F201010A6800F0010022F476
:101CC000000242EAC0500860704700002DE9F04170
:101CD00040F2000CC2F2000C40F2984E9CF8192021
:101CE000C2F2000EBEF84E00D2B1431E18B2002858
:101CF00048BF40F26713BEF85000AEF84E30421EA7
:101D000010B2002848BF40F26712BEF85200AEF889
:101D10005020013801B2002948BF40F2671019E095
:101D2000431C18B2B0F5B47FA8BF0023BEF8500022
:101D3000AEF84E30421C10B2B0F5B47FA8BF0022FE
:101D4000BEF85200AEF85020013001B2B1F5B47FB8
:101D5000A8BF0020AEF8520040F2E60E19B2C2F25F
:101D6000000E3EF91140BCF84C30BCF83E101C444B
:101D700044F6D3584C43C1F2620854FB08F4E61110
:101D80009CF8085006EBD47646F267646E43C6F2C0
:101D9000666456FB04F6B71007EBD67742F6344676
:101DA000C4F20106376012B23EF9122000B21A44A2
:101DB0004A4352FB08F2D71107EBD2726A4352FB37
:101DC00004F2971007EBD27272603EF910001844CB
:101DD000484350FB08F0C11101EBD070684350FB41
:101DE00004F0811001EBD070B060BDE8F08100001C
:101DF000F0B581B02825C4F6000505F576742046B7
:101E00000121002202230126022701F0B1FD4FF03B
:101E10009040012100224FF48063C5F800744FF414
:101E2000806701F0A5FD20460121002201232F60DB
:101E300001F09EFD4FF09040012100224FF400730D
:101E4000C5F800644FF4007401F092FD4FF090402B
:101E50000121002280232C60802401F089FD4FF0B5
:101E60009040012100224FF480732C604FF4807465
:101E700001F07EFD2C6001B0F0BD000070B540F2B5
:101E80000105C2F20005287840F20044C4F60004BF
:101E90000028204606D002210022022301F068FD1E
:101EA00007E000BF012100220223022601F060FDAD
:101EB000A6624FF09040022100224FF4806301F0AF
:101EC00057FD287830B1204602210022012301F07D
:101ED0004FFD07E02046012100220123012601F0E9
:101EE00047FDA6624FF09040022100224FF400739C
:101EF00001F03EFD287838B14FF0904002210022D9
:101F0000802301F035FD0CE04FF0904001210022CC
:101F10008023802501F02CFD4FF62840CFF6FF707E
:101F200025504FF09040022100224FF48073BDE80D
:101F3000704001F01DBD000040F21D03C2F200031D
:101F40001A781C20C121C4F20100042AC4F2000145
:101F500001D0012A03D101F1100202601A78052A8A
:101F600001D0022A03D101F1200202601A78062A68
:101F700004D0032A08BF016001E000BF016040F205
:101F80001801C2F200010A78D0F8EC1352B121F422
:101F90000011C0F8EC13D0F8F01341F40011C0F8B0
:101FA000F013704741F40011C0F8EC13D0F8F013AF
:101FB00021F40011C0F8F01370470000002818BF8A
:101FC00070471C20C4F20100026861F30002026045
:101FD00070470000F0B581B00138052800F2D481C7
:101FE000DFE800F004185694BEE800BF40F201009C
:101FF000C2F2000000782824C4F60004002804F58A
:10200000767000F0EB8002210022022301F0B0FC88
:10201000ECE000BF2825C4F6000505F576742046DF
:102020000121002202230126022701F0A1FC4FF02A
:102030009040012100224FF48063C5F800744FF4F2
:10204000806701F095FC20460121002201232F60CA
:1020500001F08EFC4FF09040012100224FF40073FC
:10206000C5F8F0634FF4007401F082FC40F2010007
:102070002C60C2F200000078002800F0EB804FF0E6
:10208000904002210022802301F072FCF5E000BFA5
:102090002825C4F6000505F57674204601210022A6
:1020A00002230126022701F063FC4FF0904001213A
:1020B00000224FF48063C5F8F0734FF4806701F09D
:1020C00057FC20460121002201232F6001F050FC23
:1020D0004FF09040012100224FF40073C5F80064D6
:1020E0004FF4007401F044FC40F201002C60C2F295
:1020F00000000078002800F0B7804FF090400221E7
:102100000022802301F034FCB7E000BF2825C4F68C
:10211000000505F5767420460121002202230126E0
:10212000022701F025FC4FF09040012100224FF4DE
:102130008063C5F8F0734FF4806701F019FC40F23A
:1021400001002F60C2F200000078002800F0A0809B
:10215000204602210022012301F00AFCA0E000BF7A
:102160002825C4F6000505F57674204601210022D5
:1021700002230126022701F0FBFB4FF090400121D2
:1021800000224FF48063C5F800744FF4806701F0BB
:10219000EFFB40F201002F60C2F20000007800283F
:1021A00000F09080204602210022012301F0E0FB94
:1021B00090E000BF40F20100C2F200000078282445
:1021C000C4F60004002804F5767000F0A380022114
:1021D0000022022301F0CCFBA4E000BF0121002279
:1021E0000223022501F0C4FBC4F800544FF09040D4
:1021F000022100224FF4806301F0BAFB04F57670EF
:10220000012100220123012501F0B2FB4FF0904093
:10221000012100224FF40073C4F8F0534FF400750D
:1022200001F0A6FB4FF090400121002280232560A1
:10223000802501F09DFB4FF09040012100224FF4DA
:10224000807325604FF4807501F092FB256001B02A
:10225000F0BD00BF4FF09040012100228023802478
:1022600001F086FB2C6008E04FF090400121002235
:102270008023802401F07CFB2C604FF090400221F1
:1022800000224FF4807301B0BDE8F04001F070BB54
:10229000204601210022012301F06AFBC5F80064F9
:1022A0004FF09040022100224FF4007301F060FBD8
:1022B0004FF09040012100228023802401F058FB40
:1022C0002C6019E0204601210022012301F050FB7F
:1022D000C5F800644FF09040022100224FF40073D3
:1022E00001F046FB4FF09040012100228023802422
:1022F00001F03EFB45F8104C4FF0904001210022C8
:102300004FF480734FF4807401F032FB2C6001B005
:10231000F0BD00BF012100220223022501F028FBAD
:10232000C4F800544FF09040022100224FF4806323
:1023300001F01EFB04F57670012100220123012526
:1023400001F016FB4FF09040012100224FF4007382
:10235000C4F800544FF4007501F00AFB4FF09040B0
:102360000121002280232560802501F001FB4FF030
:102370009040012100224FF4807344F8105C4FF428
:10238000807501F0F5FA256001B0F0BD2DE9F04748
:1023900040F2000C40F2984AC2F2000C40F214598C
:1023A000C2F2000A9CF81D10C2F20009BAF84620D9
:1023B00009F1080707EB410727F8022CB9F80820B4
:1023C000B9F80A70B9F80C40B9F80E603A44B9F897
:1023D00010002244B9F81250324410449CF81930CD
:1023E000284404304010012BCAF878000ED1013186
:1023F000C8B207288CF81D1022BF01218CF81D10CF
:102400008AF8121001F001020EE000BF013908063F
:102410008CF81D1005D1062101208CF81D108AF8BA
:102420001200012020EA010244F62404C4F201044F
:1024300000208CF8182020609AF8150010B9C8B256
:10244000FFF7C8FD2068AAF82600FFF775FDDAF847
:102450007000B0F5FA6F08D99AF804009AF80910DC
:1024600008431CBF01208AF816009AF80B000021CF
:102470000028AAF8211008BFBDE8F0879AF81900D3
:10248000002855D0DAF87800BAF8281040F264072E
:10249000C2F20007411A3A69D7E90130DAF8604020
:1024A00000FB01203A6A3960FE689042C8BF1046BE
:1024B00052429042B8BF1046BA6938618A1A02FB8C
:1024C000060002FB06F503FB01007A6A7D61B96133
:1024D0009042C8BF104651428842B8BF0846F861D2
:1024E00004F08CFC44F20001C4F21C6104F056FBC1
:1024F0000146204604F07CFA0021C4F2FA41044669
:1025000004F024FB00281CBF0024C4F2FA44204637
:1025100000214FF0000804F02EFB002818BF002413
:10252000D9F80000CAF86040632898BFC7F8108047
:10253000BDE8F0872DE9F04F93B040F2785AC2F22F
:10254000000ADAF80030DAF87C0040F22046C21ABD
:1025500091B24F09C2F2000607EB11216FF4967792
:10256000728117FA82F2C62A318100F23F81DAE9DC
:102570000176DAE90342FB1A06938B424FF000031F
:102580000F90DAE9050EDAE9078588BF01230E937B
:10259000A31B0AF124071293A0EB020B8DCF0AF1C3
:1025A000340CA8EB0E099CE84011441BDAF84000FB
:1025B000A3EB020EDAF84420F51BDAE91273161ABF
:1025C000DAE91420ACEB0808A3EB070C129B801A85
:1025D00000228B4288BF01220B920022CDF81CB052
:1025E0008B4588BF01220C9289454FF00002CDF83F
:1025F000209088BF012202948C424FF000040D927B
:1026000088BF01248E454FF00002CDF80CE088BF52
:1026100001228D424FF000074FF00003049588BF60
:102620000127CDF81480884588BF01230A938E4284
:102630004FF00003109688BF01238C454FF0000E29
:10264000CDF844C088BF4FF0010E8842DAE91695F4
:10265000DAE91806A5EB0905A6EB000B4FF0000C14
:102660004FF0000088BF4FF0010C01958D4288BFEC
:102670000120DAE91A968B45A6EB09054FF000090F
:10268000099588BF4FF001098D424FF0000540F2D7
:10269000204B88BF0125DAE91C86C2F2000BCBF87B
:1026A000505040F22045A6EB08080026C2F2000573
:1026B000DAF878A0884588BF01266E650F9D0E9ECA
:1026C000A5EB0A058D4240F22045C2F20005EE61FD
:1026D00040F22045C2F20005EC6240F2204584EA57
:1026E0000604C2F200054FF00006EB6388BF012626
:1026F000634040F220440B9DC2F20004256240F288
:102700002044C2F20004226340F2204482EA05021F
:10271000C2F20004C4F840E082EA0E0218BF0823A7
:1027200062F3820340F220420C9DC2F20002556225
:1027300040F22042C2F20002576387EA050282EAB1
:102740000C0262F3410340F220420D9FC2F20002EC
:10275000976240F220420A9DC2F20002956385EA28
:10276000070240F22047C2F20007B864504043EA33
:10277000000A099840F22044884240F22040C2F208
:102780000000C0F84C904FEAC90040F2B54288BF43
:102790000430C2F20004C2F200028845A66588BF78
:1027A000023092F8008040F27862C2F2000217789C
:1027B00000EB060957EA0800E646C4F844C0A44600
:1027C0001AD140F21040C4F600000068C00613D5CC
:1027D0009CF804000130C6B2652E8CF804000BD3BF
:1027E0000120107089F00F090AE000BFF089013064
:1027F000F08113B0BDE8F08F002F18BF89F00F09EA
:1028000006AF85CF129E88424FF00000DDE9043B01
:10281000DDE9024588BF012080028C4288BF40303C
:10282000109C8C4288BF04308E4288BF00F5007037
:102830008D4288BF40F02000119C8C4288BF40F040
:1028400002008A4288BF40F480708B4288BF40F00B
:10285000100040EA0E028F4288BF42F080028B4592
:1028600088BF42F00802D1454FF0000728D140F25E
:10287000DA40BCF80C60019BC2F200000780701CBB
:102880008B42ACF80C0005D940F2AC40C2F200001B
:1028900001210170302A1BDB9CF80100C0B140F21D
:1028A000D440C2F20000028040F27960C2F200001F
:1028B000002101708CF8021013B0BDE8F08F00BF4A
:1028C000BCF80E000130ACF80E0013B0BDE8F08F7C
:1028D000501E2E2812D840F2D440C2F2000000212F
:1028E000018040F27960C2F20000D1B20270B8F10A
:1028F000000F18BF00293FF47CAF0CE0002A3FD046
:1029000040F27960C2F200000178B8F1000F18BF00
:1029100000293FF46EAF40F2B140C2F200000078EF
:1029200000287FF466AF9CF8030081421EBF8CF83C
:10293000031000208CF80200052908D39CF802003F
:102940000130C2B2062A8CF80200FFF452AF0139FE
:10295000002514298CF8025000F2A880DFE801F06D
:102960000C282CA6A6A630425668A67A7E8CA6A66F
:10297000A6A6A6949C0000BF02F06EFD96E000BFE4
:102980009CF800000021012804BF00208CF8010001
:1029900040F2D440C2F20000018040F27960C2F2FD
:1029A000000001708CF8021013B0BDE8F08F00BF7A
:1029B00002F090FD7AE000BF02F0FCFB76E000BF81
:1029C00040F29940C2F200000021017040F219006B
:1029D000C2F200000121017040F2A940C2F20000E1
:1029E000017063E040F29940C2F2000001210170E1
:1029F00040F21900C2F200000021017040F2A9402B
:102A0000C2F200000221017050E000BF40F29A4083
:102A1000C2F200000021017040F2B540C2F2000095
:102A2000017040F2D040C2F2000001803EE000BFE1
:102A300040F29A40C2F200000121017040F2D04001
:102A4000C2F200000021018040F2B540C2F2000055
:102A500001702BE002F076FE28E000BF9CF8000039
:102A600001214FF460628CF805100128ACF80620B3
:102A700008BF8CF8011019E000208CF8050040F622
:102A8000FF60ACF8060011E040F29940C2F200008D
:102A90000078C0F1010004E040F29940C2F2000069
:102AA000007840F21901C2F20001087040F279602A
:102AB000C2F20000017840F2A472C2F2000211706A
:102AC000057013B0BDE8F08F70B582B040F2785554
:102AD000C2F20005D5E9000140F27652081AA0F2D0
:102AE000213140F27C449142C2F2000436D8617830
:102AF000D1B3E178002951D0217940F2E1429042EE
:102B00000BD840F22602C2F2000213880131C3EB57
:102B1000C3031844C00821711080C8B24C286BD37D
:102B200040F22600C2F20000018800251931018020
:102B30004FF61250CFF6FF7010FA81F000EBD07014
:102B400040F27A614008C2F2000181F8200065700D
:102B500002F0F8FD257102F017FC4DE040F2D04084
:102B6000C2F200004CE000BF40F29A41C2F2000104
:102B7000097839B340F22A01C2F200010A88904272
:102B80002ED940F22801C2F200010B88511C4FF4EB
:102B9000FA661A4640F2E9332AE000BFA17840F213
:102BA000280600290CBFE080E0880131C2F200064F
:102BB000A170318880B200F095FE33283EDB002002
:102BC00060705CE040F2260140F22802C2F200018F
:102BD000C2F20002098812884FF4FA6607E000BFCB
:102BE00040F22601C2F2000109884FF47A760023F0
:102BF000009602F087FAE06040F2DA40C2F200008C
:102C000040F2D441C2F2000140F2E006E2680B88D3
:102C1000C2F200063668D51AB5424FF000050580AD
:102C200004DD9A190A8002B070BD00BF981AB04244
:102C3000C8BF9A1B0A8002B070BD00BF3088D5E9BA
:102C40000012C0EBC000511A0844A178C008332913
:102C5000308014D34FF62A111938CFF6FF71308027
:102C600011FA80F000EBD07040F27A614008C2F2B5
:102C7000000181F821000120E07002F0B9FBE0784A
:102C800031880028E180B7D0D5E90001081A217900
:102C900040F2E14290427FF634AF3EE741F2040158
:102CA000C4F202010A6860F38F320A600A68C0F356
:102CB000830060F31C720A607047000041F2040157
:102CC000C4F202010A6800F00F0022F0F00242EAAA
:102CD000001008607047000041F20401C4F20201D4
:102CE0000A6800F0070022F4E06242EA002008606F
:102CF0007047000041F20401C4F202010A6800F0CA
:102D0000070022F4605242EAC020086070470000C9
:102D100041F25401C4F202010A68012822F0300293
:102D200008BF30320A607047042888BF7047DFE868
:102D300000F0030D1B29330041F20000C4F2020031
:102D4000026861F300020260704700BF41F20000B8
:102D5000C4F20200026801F0010122F4803242EA6A
:102D600001410160704700BF41F20000C4F202005F
:102D7000026801F0010122F0807242EA0161016003
:102D8000704700BF41F20000C4F20200026A61F322
:102D900000020262704700BF41F20000C4F202006C
:102DA000426A61F3000242627047000070B541F26E
:102DB0000401C4F202010A68C2F3810341F2002255
:102DC000022BC0F27A020DD0002B4BD10B6D9B056C
:102DD00048D5CB6A9B0144BF46F60042C0F2DC22D4
:102DE00040E000BF0B688C6AC3F30046002C17D488
:102DF0000C680B68C4F38344C3F341731D010135B0
:102E0000002B2B4608BF02230F2C08BF2B46234460
:102E100006BB40F60012C0F23D025A4322E000BF5A
:102E20008B6A8C6AC3F3031E8B6A40F6001CC0F2E7
:102E30003D0CC4F3082403F007031EB10D68AD0375
:102E400058BF94460CFB04F20EFA03F3B2FBF3F204
:102E500008E000BF0E68B60344BF40F60012C0F29F
:102E60003D025A4302600B6812A6C3F30313F35CDE
:102E700047F24A56DA4042600B68C0F60006C3F3D8
:102E80000223F35C22FA03F3C3600B68C3F3C2238B
:102E9000F35C0426DA4082600B68096806EA9363F3
:102EA000C1F38131194407A3595CB2FBF1F101610F
:102EB00070BD00BF0000000000000000010203041C
:102EC0000607080902040608020C081041F2000275
:102ED000010CC4F20202895800F01F0021FA00F030
:102EE00000F001007047000041F2000200F01F03F3
:102EF0004FF0010CC4F2020201290CFA03F14FEA6F
:102F00001040835814BF23EA0101194381507047D0
:102F100041F2000200F01F034FF0010CC4F2020264
:102F200001290CFA03F14FEA1040835814BF23EA39
:102F3000010119438150704741F20402C4F20202B8
:102F4000136868B143F4803313601368012807BF26
:102F500023F400334FF0007043F40033002002E00C
:102F600023F4803300201360136861F395431360EA
:102F70001368C1F3021161F35E731360916A21F06B
:102F8000E06108439062704741F20000C4F2020021
:102F9000016841F001010160016889075FBF0168B4
:102FA0005FEA817101685FEA817102D40168890773
:102FB000F2D5416821F00301416000BF416811F082
:102FC0000C0F0BD0416811F00C0F07D0416811F0C5
:102FD0000C0F03D0416811F00C0FEFD101684FF6D0
:102FE000FF72CFF6F262114001600021416041F6AC
:102FF0001071C1624FF4801101634FF41F018160B1
:103000007047000041F20401C4F202010A6860F353
:1030100001020A607047000041F20400C4F202009D
:103020000068C0F38100704744F62401C4F2010136
:1030300000220A6007E000BF0A68824228BF70478A
:103040000A68824205D20A68824202D20A68824233
:10305000F2D3704744F62401C4F2010100220A6051
:1030600042F6E0624A6051F8102C00EB800042F01A
:10307000010241F8102C0A68B2EB400F1AD243F259
:10308000000C4000C4F2000C4AF6AA23CCF8003031
:103090000A6882420ED2CCF800300A68824209D215
:1030A000CCF800300A68824204D2CCF800300A68BA
:1030B0008242EBD37820486051F8100C40F00100B8
:1030C00041F8100C704700002DE9F04340F2785CA5
:1030D000C2F2000C40F28C4EDCF80040C2F2000E4E
:1030E00044F6206200230021CEF8042003E000BF54
:1030F0002833782B5CD00CEB030045682C1B05D0E3
:10310000214494423CBFCEF8044022468468651BAB
:1031100005D0294495423CBFCEF804502A46C568E4
:103120002C1B05D0214494423CBFCEF804402246DB
:103130000469651B05D0294495423CBFCEF8045074
:103140002A4645692C1B05D0214494423CBFCEF849
:10315000044022468469651B05D0294495423CBF42
:10316000CEF804502A46C5692C1B05D02144944250
:103170003CBFCEF804402246046A651B05D02944B2
:1031800095423CBFCEF804502A46456A2C1B05D018
:10319000214494423CBFCEF804402246846A601B1E
:1031A000A6D0014490423CBFCEF8040002469FE7FF
:1031B00040F2B74CC2F2000C9CF800304809012BD9
:1031C000CEF8080064D15F2998BF012A04D97F296D
:1031D00022F0010016D927E040F25800C2F20000A8
:1031E00042F60144048000248EF8014001248CF84A
:1031F00000404FF6E8542025C0E901547F2922F011
:10320000010011D802280FD140F25800C2F200008C
:103210000324047000248EF8014001248CF800403F
:103220002024446034E000BFFF2917D8042815D1BA
:1032300040F25800C2F200001225072485702025B4
:103240000470456040F2B6400124C2F200008EF8DE
:1032500001408CF8004004701AE000BFCC09042C37
:1032600016D8082814D140F25804C2F200040F25E1
:10327000257003258EF801500925A570202565606D
:1032800040F2B6440120C2F200048CF80000207025
:1032900040F2B848C2F2000898F80050A2F22D1986
:1032A000012D19D144F6F246B14515D840F2580720
:1032B000C2F200077720387040F2DC00C2F2000052
:1032C000232404800220786040F2B6400126C2F236
:1032D000000088F80060067055EA030002D0BDE8DF
:1032E000F08300BF5F2998BF012A05D97F2922F00A
:1032F000010217D928E000BF40F25800C2F20000D6
:1033000042F60143038000238EF8013001238CF83C
:1033100000304FF6E8532024C0E901437F2922F012
:10332000010211D8022A0FD140F25800C2F2000067
:103330000321017000218EF8011001218CF800108A
:1033400020214160BDE8F083FF2917D8042A15D158
:1033500040F25800C2F2000012220721827020229F
:103360000170426040F2B6400121C2F200008EF8C6
:1033700001108CF800100170BDE8F083C809042822
:1033800018D8082A16D140F25801C2F200010F22C3
:103390000A7003228EF8012009228A7020224A60D6
:1033A00040F2B6410120C2F200018CF80000087022
:1033B000BDE8F08344F6F240814588BFBDE8F08364
:1033C00040F25801C2F2000177220A7040F2DC029A
:1033D000C2F200022323138002224A6040F2B64167
:1033E0000120C2F2000188F800000870BDE8F083F7
:1033F000026861F300020260704700000021018250
:10340000C0E90011C0E90211704700000021C4F2B8
:1034100002010968084018BF0120704702684BF696
:10342000EF731A4002600A8903681A4302604A7CFB
:10343000036802F0030223F4405343EA02320260BD
:10344000CA7B036802F0030223F4406343EA82224A
:1034500002608A7B036802F0030223F4407343EAAC
:10346000022202604A7B036802F0010223F080031B
:1034700043EAC21202600A7B036862F386130360A8
:103480000A7C036862F3451303604A8942600A6854
:1034900082604968C1607047002A02680CBF22EA56
:1034A000010111430160704701686FF007024CF69B
:1034B000CD4352FA80F2CCF6CC43A2FB032321F099
:1034C0000101016000210422016041608160C1604E
:1034D0006FF00300C4F2020200EA93000F211368A8
:1034E00001FA00F0184310607047000040F20040FD
:1034F000C4F20100016841F400110160704700004E
:1035000042F20C01C4F202010860704742F210005E
:10351000C4F20200016841F08001016070470000C0
:1035200042F20C01C4F202014A6842F002024A600F
:103530008860486840F0400048600868C0070DD1C6
:103540000868400746D40868C0064FF0020058BF1C
:1035500003204A6822F002024A6070474FF080421E
:103560000868C00700F08B800868C00738D008687A
:10357000C0073BD00868C0073ED00868C00741D0EC
:103580000868C00744D00868C00747D00868C0076B
:103590004AD00868C0074DD00868C00750D00868F6
:1035A000C00753D00868C00756D00868C00759D074
:1035B0000868C0075CD00868C0075FD00868C0070B
:1035C00068D0103ACCD104204A6822F002024A6046
:1035D000704700BF01204A6822F002024A6070472B
:1035E000013A086840074DD558E000BF023A086824
:1035F000400747D552E000BF033A0868400741D56D
:103600004CE000BF043A086840073BD546E000BFE5
:10361000053A0868400735D540E000BF063A08681B
:1036200040072FD53AE000BF073A0868400729D580
:1036300034E000BF083A0868400723D52EE000BFF9
:10364000093A086840071DD528E000BF0A3A086813
:10365000400717D522E000BF0B3A0868400711D594
:103660001CE000BF0C3A086840070BD516E000BF0D
:103670000D3A0868400705D510E000BF0E3A08680B
:1036800040070BD40868C0064FF0020058BF032063
:1036900005E000BF0F3A08684007F3D50120012A72
:1036A00008BF04204A6822F002024A607047000006
:1036B00042F2040040F22311C4F20200C4F2675146
:1036C000016048F6AB11CCF6EF5101607047000085
:1036D00042F20C02C4F20202536843F00103536049
:1036E00001601068C0070DD11068400746D410680B
:1036F000C0064FF0020058BF0320516821F00101BD
:10370000516070474FF480111068C00700F08B8043
:103710001068C00738D01068C0073BD01068C007D9
:103720003ED01068C00741D01068C00744D0106870
:10373000C00747D01068C0074AD01068C0074DD0F6
:103740001068C00750D01068C00753D01068C00779
:1037500056D01068C00759D01068C0075CD01068F8
:10376000C0075FD01068C00768D01039CCD10420E2
:10377000516821F001015160704700BF012051687C
:1037800021F00101516070470139106840074DD5A3
:1037900058E000BF02391068400747D552E000BF2B
:1037A00003391068400741D54CE000BF0439106868
:1037B00040073BD546E000BF05391068400735D5C6
:1037C00040E000BF0639106840072FD53AE000BF3F
:1037D00007391068400729D534E000BF0839106860
:1037E000400723D52EE000BF0939106840071DD5DA
:1037F00028E000BF0A391068400717D522E000BF53
:103800000B391068400711D51CE000BF0C39106857
:1038100040070BD516E000BF0D391068400705D5ED
:1038200010E000BF0E39106840070BD41068C006C6
:103830004FF0020058BF032005E000BF0F391068A9
:103840004007F3D50120012908BF0420516821F069
:103850000101516070470000F0B581B02825C4F621
:10386000000505F576742046012100220223012679
:10387000022700F07DF84FF09040012100224FF424
:103880008063C5F8F0734FF4806700F071F820464C
:103890000121002201232F6000F06AF84FF09040D0
:1038A000012100224FF40073C5F8F0634FF4007457
:1038B00000F05EF84FF090400121002280232C6040
:1038C000802400F055F84FF09040012100224FF481
:1038D000807345F8104C4FF4807400F049F82C6068
:1038E00001B0F0BD401A48BF404270472DE9F04199
:1038F0000A88002A08BFBDE8F0814FF000084FF0A9
:10390000030C4FF0010E0024002508E0B8EB520F25
:103910004FEA520205F1010504F1020426D0D60750
:10392000F4D006680CFA04F7BE4306608E7903688B
:10393000A6403343036043680EFA05F6B343436081
:103940000B794668AB40334343608368BB43836075
:10395000CB798668A34033438360C368BB43C360AD
:103960004B79C668A3403343C360CFE7BDE8F0811D
:10397000D0F800C05B4303EB43022CEA0202594338
:10398000114301607047000080B540F2004CC4F65E
:10399000000CDCF800E0524302EB42032EEA030E77
:1039A000504340EA0E00CCF80000DCF80C00514314
:1039B00098430843CCF80C0080BD000010B51C23D0
:1039C00003EA810E24234FF00F0C11F0F80F08BF0B
:1039D0002023C4580CFA0EF124EA0101C150C15849
:1039E00002FA0EF21143C15010BD00002DE9F04F54
:1039F00081B002F00FF84FF4A0100121FFF774FA24
:103A00004EF20B47CEF2000710204EF2001638702F
:103A1000CEF200064FF400603060FDF7ABFE40F2DE
:103A2000010BC0F21C0B0BF103000121FFF75CFA44
:103A300041F22800C4F200004FF6FF7A3B24C0F8A0
:103A400004A004600BF107000121FFF74DFA42F2D8
:103A50002800C4F20000322141607721016020205B
:103A600038724FF4002011253060C0F2140528464A
:103A70000121FFF739FA4FF4C0100121FFF734FAA2
:103A80004FF090400321002202234FF00009FFF77E
:103A90006FFF4FF09040032100222023FFF768FFC3
:103AA00087F801904FF48050306000200121FEF72C
:103AB00085FA1220C0F218000121FFF715FA44F62A
:103AC0002C0044F20048C4F20100C4F20108C0F81E
:103AD00000A0C8F82844D8F80004012140F0800074
:103AE000C8F8000405F58020FFF7FEF94FF4FA70DE
:103AF000C8F82C00C8F82840D8F80000012140F090
:103B00008000C8F8000087F80A904FF40010306079
:103B1000681CFFF7E9F958460121FFF7E5F940F283
:103B20000044C4F600042046022100221023FFF7BF
:103B30001FFF204604210122FFF740FF4FF4A01091
:103B40000121FFF7D1F94420C4F2020040F68A11A6
:103B50000160102139704FF40060306040F2004085
:103B6000C4F20000C0F82CA08162016841F080011D
:103B70000160016841F00101016001B0BDE8F04F52
:103B800001F0FABF70B540F29844C2F20004206F11
:103B900041F224057E28C4F2000529D328687C2838
:103BA0000CD8E08FC0084A2808D840F21450C2F25E
:103BB00000000068B0F5FA7F00D270BD40F200014D
:103BC000C2F200012868B1F84E10B0EB510FF4D3E7
:103BD000E07E0130C1B26529E07609D301F0A6FA92
:103BE00040F21450C2F200000021016070BD00BF1D
:103BF00040F20006C2F200062868327EB17DA4F8C9
:103C00004600EAB1D9B31C20012998BF0121C4F2B2
:103C10000100013902685200CFD481B3026852001A
:103C2000CBD401292BD002685200C6D4022926D059
:103C300002685200C1D404394A1CEBD11FE000BF16
:103C4000E9B11C20012998BF0121C4F2010001390A
:103C500007E000BF0268520058BF70BD04394A1C1B
:103C60000DD002685200A8D549B102685200A4D50F
:103C7000012904D0026852009FD50229EAD101F03F
:103C800055FA00202860B4F84010327DD14044F24B
:103C90000C42C4F20102A4F840109061116250601D
:103CA000106840F00100106070BD00002DE9F04187
:103CB00082B040F27A64C2F2000447F60041C0F6D6
:103CC00000012046B02201F0CFFC607CA17C0138CD
:103CD000B0FA80F040F298454009C2F200056870E1
:103CE000481EE27CB0FA80F04009012AA87004BFA7
:103CF00001206871207D617D0138B0FA80F040F2CA
:103D000000064009C2F200067070481EA27DB0FA9B
:103D100080F04009B070501EB0FA80F04009E37D99
:103D2000F070207E42F62C48042BA0F10801C4F26A
:103D3000010828BF02232829B37115D8182823D2D7
:103D4000A0F10C010B292FD900F0FC0108293BD16F
:103D500041F64C570721102243F69823009701F0B3
:103D6000D1F9F08731E000BF41F28830B087C8F860
:103D70000000607EA0F13201642932D9962070865D
:103D80005520308746E000BF40F24137182190228D
:103D900041F28833009701F0B5F90146207EF187A2
:103DA000A0F10C010B29CFD841F288370C21182241
:103DB00042F21073009701F0A5F90146207EF187C9
:103DC00000F0FC010829C3D0F08F81B2C8F80010C0
:103DD000A6F84800A6F84000607EA0F132016429F0
:103DE000CCD83C21F28F01EB500144F6D353514320
:103DF000C1F26203A1FB03170F2101EB90005043B6
:103E0000A0FB0301F8097086C80930870A2000EB7F
:103E1000D1107087A07E227F00EB8000142707EB73
:103E2000C000F083501E637FB0FA80F04009E87054
:103E3000581EB0FA80F0E17E400928710520F1712A
:103E400001F0DEFD6078002800F0C180A07F0B2823
:103E500088BF052001F0D4FDE07F94F820100138E0
:103E6000B0FA80F04009A87140F2EE2094F82120C9
:103E700000EB410094F82230F08440F2D66000EB71
:103E80004200308503F25E50708594F8230094F868
:103E900024107073481EB0FA80F094F82510400981
:103EA000287201F1FA0094F82610B085481EB0FA85
:103EB00080F04009687294F828000021421F142AFB
:103EC000E97198BF307394F82900411E092998BF01
:103ED000707294F82A00411EC9B208291FD8B07226
:103EE00000EB80006FF02D01A1EB4000617EF072CD
:103EF00051FA80F272864908B6F8462051FA80F1EC
:103F0000318752FA80F1F28EA6F8461052FA80F10B
:103F1000F186D8F81810C0B20843C8F8180094F811
:103F20002B00A0F14601462998BF707194F82C002F
:103F3000411E622903D8400030840120287394F880
:103F40002D00411E092998BF307294F82E100929BE
:103F500008D804290FD805F12000DFE801F0034359
:103F60000A0C47000020A5F81F0040F22140C2F2D1
:103F7000000001210170F08B81084A2906D8002138
:103F8000F17341F21001A6F81B1006E040F2DC517B
:103F90008842F6D329790029F3D148F21F51C5F29E
:103FA000EB11A0FB01124FF2F101CFF2F001A0FBE7
:103FB0000101F0792023B3FBF0F052090909B2FBAB
:103FC000F0F2B1FBF0F0A6F84220A6F844007078B9
:103FD00064210028318604BF0020A87002B0BDE82B
:103FE000F08100BF0120E877BFE700BF40F220402A
:103FF000C2F200000121017040F22140C2F2000033
:104000000021017005F11F00B3E7000082B040F20B
:10401000984B42F6144642F6004441F2240540F221
:10402000004AC2F2000B4FF00209C4F20106C4F2CA
:104030000104C4F20005C4F2000A62B68BF81390C2
:10404000FFF7D4FC20460021012202F0EDF92046C2
:104050000221012202F0E8F920460421012202F0A7
:10406000E3F920460121012202F0DEF92046032176
:10407000012202F0D9F9204605210122052702F08C
:10408000D3F9206840F001002060306B40F400401C
:104090003063306840F00100306044F20040C4F208
:1040A0000100016841F001010160416941F0010135
:1040B0004161C16821F00101C160D0F8001441F0F4
:1040C0000101C0F80014DAF8000C40F00100CAF851
:1040D000000C55F8100C40F0010045F8100C42F2AD
:1040E00000008BF81370C4F20000016841F0010178
:1040F0000160416941F001014161C16841F0010184
:10410000C160FDF79DF906208BF81300FFF7CEFD87
:1041100040F27A60C2F20000C17840F20008022941
:10412000C2F2000802D10179002949D045F241418B
:10413000C3F23321C0F8051044F25021C2F2340119
:10414000C0F809104FF02031C0F80D1098F8001099
:104150009BF8024041709BF801109BF805700139F3
:10416000B1FA81F149094174611EB1FA81F149093D
:104170008174791E98F80120B1FA81F14909C1745E
:10418000511E98F80230B1FA81F149090175591EA2
:1041900098F803C0B1FA81F149094175ACF1010108
:1041A00098F80620B1FA81F14909C27547F6004234
:1041B0008175C0F60002B021A0F8039001F004FB65
:1041C0009BF8050044F6D35200281CBFB8F8340011
:1041D000A8F83200B8F83E00B8F83610C1F2620212
:1041E0004143A1FB0213B8F846109BF8017041430C
:1041F000A1FB0212791E18BF012188F8191098F846
:104200000B1098F8017001EBD311A8F83610D10902
:10421000A8F83C00A8F84610002FA8F8480004BFF2
:1042200000208BF805009BF8090007218BF813107C
:1042300000B34FF47A70A8F8460001208BF8020012
:10424000002188F80F00B8F838008BF80510A8F89E
:10425000011088F80310B8F83A103230A8F8380086
:1042600001F13200B8F83210A8F83A0001F132003A
:10427000A8F8320043F200090026C4F20009ABF8A6
:104280003860FDF7DBF94AF6AA20C9F800000820DB
:104290008BF81300FDF72AFB50460021012202F0A3
:1042A000C3F8DAF80000012140F00100CAF800006C
:1042B000022010224FF0010AFFF766FB01F006FA18
:1042C0009BF8000042F60041C4F2010100284FF0C3
:1042D0000900A1F5006118BF8BF80BA001910CE05B
:1042E00042F61440C4F20100C0E908668662FDF798
:1042F0007FFD8BF819609BF813004AF6AA21013064
:10430000C9F80010C1B215298BF81300C0F0B380B2
:10431000BBF85C0040F6E44640F201117043C0F285
:104320001001A0FB0112801A02EB500098F8101047
:10433000C00A484348F21F51C5F2EB11A0FB010C23
:104340009BF817E040F21450C2F2000000EB4E035D
:10435000DBF874209F8ABBF84440D21B48F68900E2
:104360002244C8F6880050FB0227AA463D1105EBFF
:10437000D777BDB240F2FF406E43C4F6EC70A6FBA7
:104380000061BBF858609BF824009C82301AABF89F
:10439000580080B248F2E803584343F23813A3EBC5
:1043A00010304FF2CF33CCF63C7350FB03F0C31008
:1043B00003EBD0709BF823301930C3EBC303ABF889
:1043C0005A001844BBF84830C0088BF82300C3EBF0
:1043D000C30000EB5C10C008ABF848000EF1010010
:1043E000CBF87420C2B21D2A88BF00208BF81700BA
:1043F000080A00044FF00000ABF83470CBF86C50A2
:1044000058BF080AABF82E00019801210026FDF7DD
:1044100045FC9BF8080048B39BF80F00B8F82C1037
:10442000BBF84820484390421ED9BBF82A009BF8AD
:104430001A104FF67C47013044F62063CFF6FF7721
:1044400082B211FB07319142ABF82A000EDAABF8C9
:104450003A60FDF7CDFC00F069FE8BF81960ABF80F
:1044600038608BF81D6001E0ABF82A6055464FF0CC
:10447000010A8BF813609BF802209BF81F10012A99
:104480008BF81B6008BF002908D0BBF83C00002A4D
:1044900018BF00292AD1ABF8320093E19BF809102C
:1044A00098F80D30BBF83C0000294FF47A7101EB0D
:1044B000430131D0814280F0AE8098F819209BF8FA
:1044C0000170BA4240F0A4809BF81970ABF83260DA
:1044D000002F00F099808BF815A04FF47A71A1EBB2
:1044E0004302824200F39D80D8E000BFB0F5836FA5
:1044F00055D398F819109BF80120914247D1B8F88C
:104500004E00B8F83020904230D89BF81A0068BBB3
:104510000020ABF83C003AE081420FD34FF47A71AF
:10452000A1EB4302824200F3F8804FF47A71A1EBD1
:104530004301814240F2318142E100BF98F81920E5
:104540009BF801309A4240F0D280B8F84E00B8F89B
:104550003030984200F2B4809BF81A00002840F0F6
:10456000AF804FF47A70ABF83C00C0E0C1F10100BD
:1045700088F8190040F21450C2F2000006608BF86F
:1045800016A000F0D3FDBBF83C008BF8106098F843
:104590001210C1EB4001A1F60101ABF83210A0F1FD
:1045A000300189B2C9087C292AD89BF8011098F8F3
:1045B0001920C1F1010393421BD1B8F84E00B8F89D
:1045C0003020904206D89BF81A0018B90020ABF8AA
:1045D0003C000EE040F21450C2F2000006608BF87E
:1045E00016A088F8191000F0A1FDBBF83C008BF86C
:1045F000106098F81210C1EB40013139ABF832105D
:104600003028C0F0D080DBE0C2F1010288F8192028
:104610009BF8152062B34FF47A71A1EB43028242FA
:104620003CDD9BF8011098F81970C1F10106BE42FB
:104630004FF0000609D19BF81970002F0CBF88F8C5
:1046400019108BF815A0ABF832609BF8151029BB38
:10465000002140F2FF732F27009700F053FD014621
:10466000BBF83C0098F80D30ABF8321016E000BFF4
:104670004FF4FA622F2340F2FF77009700F042FDDB
:104680000146BBF83C0098F80D30ABF832104FF4FF
:104690007A71A1EB43028242C3DC00BF4FF47A710E
:1046A000A1EB4301814200F28B804FF47A7101EB60
:1046B00043018142C0F084800BF1150275E000BF18
:1046C000C2F1010088F8190040F21450C2F2000053
:1046D00006608BF816A000F029FD98F80D10BBF8C5
:1046E0003C004FF47A728BF8106002EB41014FF4FA
:1046F000FA622F2340F2FF77009700F003FD014696
:10470000BBF83C0098F80D30ABF832104FF47A71DA
:10471000A1EB430282427FF708AF9BF8011098F8A3
:104720001930C1F101074FF47A749F4221D1B8F8D2
:104730004E00B8F83030984208D89BF81A0028B9D3
:104740004FF47A70ABF83C0013E000BF40F2145015
:10475000C2F2000006608BF816A088F8191000F06D
:10476000E5FC98F80D10BBF83C008BF81060A4EB4A
:104770004102002140F2FF732F27009700F0C2FC96
:104780000146BBF83C0098F80D30ABF832104FF4FE
:104790007A71A1EB4301814212D84FF47A7101EB97
:1047A000430181420CD30BF1100240F21451C2F2CA
:1047B000000109680020ABF83200107028E000BF4B
:1047C000BBF8320040F21451C2F200010968F8B19E
:1047D000B1F57A7F88BF8BF81860652903D3C728A5
:1047E00098BF8BF818609BF805109F2803D8002904
:1047F00018BF8BF818609BF80E207AB10309182BAC
:1048000098BF8BF8186098F8033083B924E000BF94
:104810008BF818606529E2D2E5E700BF95288CBFC8
:104820000A23642388F8113098F80330A3B1642474
:1048300098F8117062439BF8183001327A439A421B
:104840000AD2FDF7D5FA00F071FC6620ABF83A60A9
:104850008BF818007CE000BF21B11D282ED8ABF8E2
:104860003A6041E09BF80B1000296FD09BF80010D4
:10487000002949D0D8E914732F2140F2FF72009724
:1048800000F040FC48F2007298F80710C0F2933232
:1048900092FBF0F04908BBF8322090FBF1F02E2A91
:1048A000ABF8280038D840F26400C2F20000ABF840
:1048B0003A600660CBF860604AE000BF1E2801D174
:1048C0001E2011E098F80C1001EB81018A00824251
:1048D0000AD91E212F23A027009700F013FC0146C0
:1048E000BBF83200ABF83A1098F80C1001EB8101DC
:1048F000890081422CD84FF4FA62A0234FF4FA6762
:10490000009700F0FFFB21E0DBF860704EF200043E
:104910003846C4F2F94406E0DBF860704EF2000459
:104920003846C4F2FF44214602F025F9002818BF9A
:104930003C46204602F040FA0021ABF83A003846E7
:10494000C4F2402102F009F910B93020ABF83A0066
:104950009BF81A0000283FD0BBF83A003128C0F07D
:10496000C1809BF81D10002900F0BC80882800F24F
:10497000DF808BF819A000F0D9FBFDF77FFAFDF777
:10498000A5F998F8071041F65832B2FBF1F34FF44D
:104990007A72BBF83A00B2FBF1F730217822009727
:1049A00000F0B0FBA8F84A0080B2FEF73DFBB8F873
:1049B0004A004FF41671B1FBF0F1B428ABF8561071
:1049C0008EBF4FF6FF704FF4B4714843CBF87800B8
:1049D0009BF8130091E400BFDBF8780042F2C0724C
:1049E000C0F209029BF8191092FBF0F04CF6CD4290
:1049F000484381B2CCF6CC42A1FB021298F80F10CA
:104A0000ABF85600D008ABF85E0069B1B8F84210B8
:104A1000B8F84420B8F84630B8F8487080B200972B
:104A200000F070FBA8F840009BF8230098F80510F0
:104A300088420AD9B8F8483001F114025B08CDF871
:104A400000A000F05FFBA8F8400040F21450C2F252
:104A500000000068B8F84E1064284FF00C000ED328
:104A6000B1F5FA7F0BD8DBF8700064214FF4FA72CD
:104A700004230C27009700F045FBB8F84E1064297A
:104A800038BF0220B8F81E1088F816008908E029FF
:104A90009CBF400088F816009BF81600002800F024
:104AA00021819BF81900002800F01C8100F03EFBDA
:104AB0001C20C4F20100016898F8180001F0804140
:104AC000002800F08180002940F081809BF82210AE
:104AD00001318BF822109BF82110002940F002814F
:104AE00085E000BF9BF8030000283FF4F9ABB8F85D
:104AF0003E0098F80910B8F83C2000EB410113394A
:104B00008BB25A43B2FBF0F2ABF83E10801A013080
:104B100042F61441ABF8540080B2C4F20101C1E97D
:104B20000800886200F064FD8BF815A0FFF7E1BB78
:104B3000FDF7CCF8BBF83A00C8280DD95020ABF8E7
:104B40004E60A8F84A00FEF76FFABBF84E00002846
:104B50007FF4D1AB09E000BFB8F84A00FEF764FA71
:104B6000BBF84E0000287FF4C6AB40F2145142F26D
:104B70002832C2F20001ABF819A08BF816A0A8F8F1
:104B80004E20CBF870204A602A609BF804000A226D
:104B9000002898F815000A608BF8156088F81D0049
:104BA0001CBFB8F83A00A8F83800FDF7EFFB42F652
:104BB0001441C4F20101086840F0010008609BF84C
:104BC0001300FFF79ABB00BF00297FF47FAF9BF86B
:104BD0001C1098F81A200131CBB293428BF81C10AC
:104BE00088BF8BF822609BF8211000297AD19BF8AE
:104BF000221068B398F81B00814273D98BF821A06A
:104C00002868ABF846002E60B8F84E1001EB410161
:104C100011FA80F098F81710C0F38F02B2FBF1F18F
:104C20008208C1EBD000ABF8400080B2A8F84E205B
:104C3000ABF836102968814236D22968814233D2D6
:104C40002968814230D229688142F3D32CE000BF29
:104C500098F81C00814245D98BF821A02868ABF850
:104C600046002E60B8F84E1001EB410111FA80F0B9
:104C700098F81710C0F38F02B2FBF1F18208C1EB74
:104C8000D000ABF8400080B2A8F84E20ABF8361048
:104C90002968814208D22968814205D22968814267
:104CA00002D229688142F3D3FDF770FB40F214531E
:104CB000C2F2000318689BF804109BF80920013029
:104CC00011438BF822608BF81C6018607AD014288E
:104CD00008D3B8F84E00B0F5FA6F03D88BF8166019
:104CE000FEF704FC28684CF251318842FFF403AB14
:104CF0009BF8190001287FF4FEAA9BF818000130E8
:104D00008BF8180000F012FABBF83A008BF816A0E6
:104D10002F2840F21450C2F2000098BF8BF819609F
:104D200006602868ABF846002E60B8F84E1001EB1C
:104D3000410111FA80F098F81710C0F38F02B2FB0E
:104D4000F1F18208C1EBD000ABF8400080B2A8F8C6
:104D50004E20ABF8361000BF2968814208D229687E
:104D6000814205D22968814202D229688142F3D367
:104D7000FDF70CFB40F21453C2F2000318689BF8D5
:104D800004109BF80920013011438BF822608BF846
:104D90001C6018600AD01428FFF4ADAAB8F84E00C1
:104DA000B0F5FA6F05D9FFF7A6BA00BF1F28FFF4C8
:104DB000A2AA8BF81660FEF799FB9BF81300FFF789
:104DC0009CBA00BF1F2889D28CE7000010B540F2C2
:104DD0006A5CC2F2000CDDF808E00C0A8CF80210E4
:104DE000110A8CF80310190A8CF804208CF80510AD
:104DF0008CF806304FEA1E218CF808E04FF0000EC8
:104E0000072200238CF800008CF801408CF8071072
:104E10005840C3B282EA4304000658BF5C0082EAED
:104E20004400230658BF600082EA4003040658BFCE
:104E3000430082EA43001C0658BF580082EA400340
:104E4000040658BF430082EA43001C0658BF5800BE
:104E500082EA4003040658BF430082EA43001C066E
:104E600058BF5800BEF1080F30D0C3B20CEB0E0093
:104E700044788078634082EA4304190658BF5C0096
:104E800082EA4401230658BF610082EA41030C060E
:104E900058BF4B0082EA43011C0658BF590082EA02
:104EA00041030C0658BF4B0082EA43011C0658BF61
:104EB000590082EA41040B0658BF4C0082EA4403C1
:104EC0000EF1020E210658BF6300A1E78CF809001D
:104ED00010BD00002DE9F04340F22042C2F2000272
:104EE000D08818B10021D1805DE000BF40F2B14010
:104EF000C2F20000007868B140F21050C2F2000027
:104F0000016847F6FF7021EA0000B0F5004F0BD1B1
:104F1000072044E040F21050C2F200004FF6FF714B
:104F2000016007203BE000BF43F6FF7021EA00006C
:104F3000B0F5804F02D1062031E000BF41F6FF708E
:104F400021EA0000B0F5005F02D1052027E000BF94
:104F500040F6FF7021EA0000B0F5805F02D1042026
:104F60001DE000BF40F2FF7021EA0000B0F5006FC5
:104F700002D1032013E000BF40F2FF3021EA00001D
:104F8000B0F5806F02D1022009E000BF40F2FF10AF
:104F900021EA0000A0F50070B0FA80F0400901415C
:104FA000106141EA402080EA101181EA102147F2A5
:104FB000525501F00F01C0F60005C0F3031741EA96
:104FC000001140F31323EE5D81F00F01EC5C00F063
:104FD0000F00B30215F8008001F00F00516143EAA1
:104FE000C437295C47EA481545EA0109C2F8189018
:104FF00040F25A02C2F2000292F800E040F22C7C29
:105000000120C2F2000C4E2220EA14100CEB8E0399
:105010005043C4F3C004986084EA90105043C7F32F
:105020004044D86084EA90105043C7F300441861AC
:1050300084EA90105043C7F3C034586184EA90105A
:105040005043C6F30014986184EA90105043C6F3AD
:10505000C004D86184EA90105043C5F3003418624C
:1050600084EA90105043C5F3C024586284EA90103B
:105070005043C5F38024986284EA90105043C8F3EB
:105080000014D86284EA90105043C8F3C004186337
:1050900084EA90105043C9F3C014586384EA901016
:1050A0005043C9F38014986384EA90105043C9F3C5
:1050B0004014D86384EA90105043C1F3001418647C
:1050C00084EA90105043C1F3C004586484EA9010FD
:1050D0005043C1F38004986484EA90105043C1F3B4
:1050E0004004D86484EA9010504301F0010118652F
:1050F00081EA90105043586500205A604CF82E0009
:10510000BDE8F08380B5DDF808C08842B8BF084626
:105110009042C8BF1046A0EB010EACEB03000EFBA3
:1051200000F0511A90FBF1F0184480BD40F20040AD
:10513000C4F20100016821F4001101604FF4001174
:105140004161704710B54EF60C5CCEF2000CDCF8F5
:105150000030C3F3022E8EF00704042C28BF042471
:10516000BEF103034FF0FF3E0EFA04F438BF0023F4
:10517000A14399400EFA03F39A431143B0F1FF3F64
:105180004FEA011110DD4EF20012CEF20002831838
:1051900083F8001300F01F01012303FA01F1400915
:1051A00042F8201010BD00BF00F00F0060440172F3
:1051B00010BD00002DE9F04381B042F62848C4F24A
:1051C000010841F28830C8F80400EFF3108072B68D
:1051D00040F27450C2F20000007843F200094CF62D
:1051E000CD447925C4F200094AF6AA27CCF6CC446E
:1051F0000A26C8E90300C8F8140000BF023DA5FB59
:1052000004010809C9F80070FCF7E4FE06EB55003C
:10521000C8F800000A20FDF71DFF022DEED8FCF7AC
:10522000E7FD002040F23E02C8F80000C2F2000292
:1052300040F2DA411288C2F200010880C8F8042066
:1052400062B601B0BDE8F0832DE9F04F81B043F2C2
:1052500000050320C4F20005FCF7BCFE40F2DA476B
:1052600040F27A644AF6AA28C2F20007C2F20004A9
:105270004FF00009002606E0013609F1340009F17B
:105280000209AE286AD2C5F8008004EB090090F844
:1052900034B00021BBF1FF0F3980EDD090F835001C
:1052A00000284BD04FF47A61F72210FB021049F22C
:1052B0008061C0F29801B1FBF0FA1FFA8AF001F0A8
:1052C000B5FDB8462F460546F0B2C0EBC0100BEB5B
:1052D000400001F093FD06460020C4F27A402946C2
:1052E0003D4647464AF6AA2801F058FC314601F0EF
:1052F00015FE01F061FD41F60031C0F2B701B1FBCE
:10530000FAF142F62843C4F201030A221A6089B274
:1053100040F274525960C2F200021278514341F2D5
:105320005972CDF2B712A1FB0212110BC3E903119E
:105330005961FDF78FFE00269FE700BFF0B2C0EB7A
:10534000C01042F628410BEB40000026C4F20101D8
:10535000C1E903664E61FDF77DFE8EE7FCF748FD6F
:1053600042F628420020C4F2010240F23E011060E1
:10537000C2F200010988516038804AF6AA202860EC
:1053800001B0BDE8F08F000010B542F62844C4F229
:10539000010441F2883060602820206040F274509F
:1053A000C2F200000078C4E9030060610220FCF74B
:1053B00011FE9620FDF74EFE43F20000C4F20000FD
:1053C0004AF6AA210160502020609620FDF742FE97
:1053D000FCF70EFD002040F23E022060C2F2000207
:1053E00040F2DA411288C2F200010880626010BD0A
:1053F00010B542F62844C4F2010441F288306060DE
:105400003220206040F27450C2F200000078C4E9FB
:10541000030060610220FCF7DDFD9620FDF71AFE17
:1054200043F20000C4F200004AF6AA2101601E20E7
:1054300020609620FDF70EFEFCF7DAFC002040F21B
:105440003E022060C2F2000240F2DA411288C2F24B
:1054500000010880626010BD10B5EFF3108072B6D5
:1054600042F62844C4F2010441F28830606043F2FD
:105470000000C4F200004AF6AA210160502020601A
:1054800040F27450C2F200000078C4E90300606189
:105490000320FCF79FFD6420FDF7DCFD4620206023
:1054A0006420FDF7D7FD282020606420FDF7D2FDA1
:1054B000FCF79EFC002040F23E022060C2F2000297
:1054C00040F2DA411288C2F200010880626062B6DE
:1054D00010BD000070B542F62844C4F2010441F248
:1054E00088306060EFF3108072B643F20005C4F2BA
:1054F00000054AF6AA263C202E60206040F2745037
:10550000C2F200000078C4E9030060610120FCF7EA
:1055100061FD4B20FDF79EFD502020604B20FDF7E4
:1055200099FD5A2020604B202E60FDF793FDFCF77B
:105530005FFC002040F23E022060C2F2000240F216
:10554000DA411288C2F200010880626062B670BD62
:10555000B0B5EFF3108072B647F63040C0F60000E9
:10556000007842F6284543F20004C4F20105FF2802
:10557000C4F2000402D0FFF767FE2EE041F288304B
:10558000686040F27450C2F200000078C5E9030080
:1055900068610320FCF71EFD37202860C820FDF756
:1055A00059FD0520FCF716FD4AF6AA2020602820A8
:1055B0002860C820FDF74EFD0620FCF70BFD1920E2
:1055C0002860C820FDF746FDFCF712FC40F2DA41E6
:1055D0000020C2F200012860088040F23E00C2F2C2
:1055E0000000008868604AF6AA20206062B6B0BD5C
:1055F000B0B54FF09040012100224FF480634FF48A
:105600008064FEF7B5F92825C4F600054FF09040F8
:10561000012100224FF400732C604FF40074FEF758
:10562000A7F94FF09040012100224FF480732C60C5
:105630004FF48074FEF79CF92C6005F576742046D3
:10564000022100220223FEF793F9204602210022C4
:105650000123FEF78DF94FF09040022100228023B4
:10566000BDE8B040FEF784B970B5012A20DB531EB7
:10567000032B02F0030C01D2002211E022F0030EF2
:10568000431C00228D5C9E188C1806F8015C65781E
:105690009D54A57804327570E4789645B470F1D1C4
:1056A000BCF1000F04D0535CBCF1010F835401D155
:1056B00070BD00BF531C5E5CBCF1020FC65408BF36
:1056C00070BD0232515C815470BD0000B0B54425FC
:1056D000C4F20205286840F20044C4F200042860C5
:1056E000204600F01FFF46F20100A0610B2020625F
:1056F00040F25800C2F2000001780022A1624FF689
:10570000FF71E162616941F00101616140F28C4128
:10571000C2F200010A7004F134016262A96040F231
:105720007851C2F20001E96040686860E06840F4C6
:105730000070E060206840F00100206040F68B10AF
:105740002860B0BDB0B540F20001C2F2000140F2E5
:105750007A600A78C2F20000427040F29842C2F2C7
:1057600000025478957852794B78013AB2FA82F275
:105770005209C2745A1E91F802C0B2FA82F252095A
:105780000275ACF1010291F803E0013CB2FA82F239
:10579000B4FA84F4520964094275AEF1010244740A
:1057A0006C1EB2FA82F2B4FA84F452098B7964095D
:1057B000827547F600428474C0F60002B021C375BA
:1057C000BDE8B040AFF300802DE9F04F03AF85B0E6
:1057D0008346C81701EB9070841020F00300073057
:1057E00020F007009246ADEB00088946C5464046CA
:1057F0002146FBF7FBFCB9F1040F6FDB601E0328A9
:1058000004F0030C47F8204C02D200211DE000BF39
:1058100024F0030E08F10809002000210BEB00041E
:105820005BF80060A3686568E468043108EB000277
:1058300048F8006009EB000649F800308E4500F199
:10584000100046F8045CD460E8D157F8204CBCF155
:10585000000F43D08800831CC21C1BF803301BF8C8
:10586000022001301B041BF8000043EA02621BF80F
:10587000213042EA00201844BCF1010F48F8210011
:105880002CD0481C8200961CD31C1BF806601BF809
:105890000330013236041BF8022046EA03631BF88A
:1058A000206043EA02223244BCF1020F48F8202073
:1058B00014D0881C81008B1CCA1C1BF803301BF8F9
:1058C000022001311B041BF8011043EA02621BF89D
:1058D000203042EA0121194448F8201047F8144CBE
:1058E000FDF7E6FE5FEA8A5002D15046FDF718FE4A
:1058F000002047F8180C47F81C0C57F81C0C57F8F8
:10590000141C884218D200BF57F81C0C57F81C1CF6
:105910000AEB800058F82110FDF7DAFE0320FDF7AE
:10592000EFFD57F81C0C013047F81C0C57F81C0C05
:1059300057F8141C8842E7D3A7F10C04A546BDE82C
:10594000F04FFDF7E3BD0000B0B54425C4F20205F9
:10595000286840F2004440F01000C4F200042860BF
:10596000204600F0DFFD6020A0610320206240F2AD
:105970008C40C2F200004178A1624C21E162012119
:105980000170606940F00100606104F13400A860BA
:1059900040F22C70C2F20000E86040F25800C2F2FF
:1059A0000000807817306860286840F002002860A6
:1059B000286840F008002860286840F0010028604E
:1059C000E06840F40070E060606C40F400406064A7
:1059D000206840F001002060B0BD00001C20C4F22F
:1059E0000200016821F00101016040F2E401C2F20D
:1059F000000109784160016841F0010101607047D0
:105A00000B2828BF0B2040F274514000C2F2000165
:105A10000870704780B542F20000C4F2020040F204
:105A200053110160FDF7B0FA00200121FDF77CF968
:105A30000120FDF74BFA0128FAD100201D21FDF7C6
:105A40007BFA02200121FDF76FF900BF1920FDF755
:105A50003DFA0128FAD10020FDF730F90020FDF7CA
:105A600049F90020FDF738F90120FDF751F902202E
:105A7000FDF7C8FAFDF7D0FA0228FBD10020FDF7A8
:105A800047F9BDE8804000F001B80000B0B541F230
:105A9000040441F20025C4F20204C0F27A05FDF7C5
:105AA000BBFA02280CD0002850D1206D80054DD5BE
:105AB000E06A800144BF46F60045C0F2DC2545E0BF
:105AC0002068A16AC0F30040002919D42168226827
:105AD000C1F38341C2F3417213010133002A1A4614
:105AE00008BF02220F2908BF1A46002802EB010056
:105AF00020D140F60011C0F23D0100FB01F525E088
:105B0000A26AA36AC2F3031CA26A40F60011C0F2A3
:105B10003D01C3F30823002802F0070003D02268E8
:105B2000920358BF294659430CFA00F0B1FBF0F537
:105B30000CE000BF2168890302D4454306E000BFA2
:105B400040F60011C0F23D0100FB01F540F2B83013
:105B5000C2F200000560216803A2C1F30311515C89
:105B600025FA01F10160B0BD000000000000000056
:105B70000102030406070809F0B587B00E20C0F241
:105B800018000121FDF7B0F91220C0F21400012124
:105B9000FDF7AAF94FF4A0100121FDF7A5F940F295
:105BA0000010C0F2021040F2004406904020C4F6FB
:105BB0000004059005A92046FDF798FE2046062121
:105BC00000220027FDF7FAFE1C25C4F20205284634
:105BD000FDF76AFC6E463046FDF710FC40F2E4002B
:105BE000C2F20000007843F60004ADF80A0010206D
:105BF000ADF8080040F26A50C2F20000C4F201049D
:105C00000190201D00904FF480700390284631468B
:105C1000ADF81070FDF702FC20464FF4E131002290
:105C2000002300F0A7FD2046012100F0FBFD2046E7
:105C3000012100F0E3FD2046012100F0E9FD2046AE
:105C4000012100F083FD2046012100F089FD07B00D
:105C5000F0BD00002DE9F04F81B040F2984BC2F248
:105C6000000BBBF82C00013081B2B1F5FA6FABF834
:105C70002C0009D99BF80A1031B9FFF769FCBBF871
:105C80002C0001218BF80A1080B244F62161884271
:105C900048D3BBF92E40204601F0B0F80021C4F2F1
:105CA000B43100F07BFFDBF868100246084611466D
:105CB00000F09EFE40F22541C2F200010A78CBF8C6
:105CC0006800032A0AD0022A16D0012A27D19BF89D
:105CD0002300022200F500701BE000BFBBF8480063
:105CE00048F21F52C5F2EB12A0FB0202D0080422B8
:105CF00062F31F2001220CE0A0B248F21F52C0B292
:105D0000C5F2EB12A0FB02024FF4C06040EA121091
:105D1000032240F22643C2F2000318800A700020DA
:105D2000ABF82C009BF81D0000284BD19BF81E00FF
:105D3000002847D0BBF8320020B10020ABF84A0061
:105D400040E000BFBBF84A0044F62162013081B256
:105D50009142ABF84A0035D3BBF838001F2825D351
:105D60009BF80F0001218BF81D1018BB9BF8080051
:105D700000B3BBF848004DF2B9324108CBF21F1214
:105D8000A1FB0212D109B0F5B97F8BF80F1013D324
:105D9000002400BFFFF760FB6420FDF75BF99BF870
:105DA0000F0001348442F5D306E000BF00208BF8D9
:105DB0001E00C3E7FFF750FB9BF8200010B900203E
:105DC0008BF809009BF80600A8B140F20001BBF86F
:105DD0004C00C2F200010979013082B201EB81016D
:105DE000B2EB410FABF84C0005D901208BF8140041
:105DF0000020ABF84C009BF81A0040F21459002820
:105E0000C2F2000940F060829BF81D004FF02F089D
:105E1000002800F00A819BF80520BBF83A0002EB4D
:105E2000820108EB0111814200F2FF809BF819000A
:105E300050BBFBF7DDFF9BF81600C8B99BF81900B3
:105E4000A0B9FCF7A3FA40F20000C2F2000042F24F
:105E50001071A0F84E1040F22440C4F2000041F24C
:105E60008831C0F8001C01208BF81900FDF73EFBBB
:105E700001208BF8190040F20000C2F20000408EB1
:105E80009BF80520ABF8300040F20006C2F2000695
:105E9000BBF83A00338FF58F8921002A40F2FF7258
:105EA00008BF2F210095FFF72DF90446BBF82C0001
:105EB0004CF6CD41CCF6CC4148434CF6CC414FEAB0
:105EC000B000C0F6CC418842ABF83E4000F2A6805C
:105ED0009BF80C009BF819A0002818BFBAF1000F1E
:105EE00045D0BBF92E00318C6FF0630201FB02023A
:105EF00040F26401C2F200018B6BD1E90BC08A62EF
:105F000000FB02308B6C4D6B9842C8BF18465B4259
:105F10009842B8BF18460B6C8863D31A03FB050080
:105F200003FB05FE0CFB0200CB6CC1F83CE00A64ED
:105F30009842C8BF18465A429042B8BF10464864BB
:105F400000F05CFF44F20001C4F21C6100F026FE88
:105F500000F032FFF18D081A318F02B28A42B8BFC9
:105F6000084601B2A2B28A42B8BF2046F085BAF113
:105F7000000F53D09BF8040000284FD0B6F84E0015
:105F8000718C421A40F26401C2F200010B6ED1E939
:105F900015600A6500FB02300B6FCD6D9842C8BFDB
:105FA00018465B429842B8BF18468B6E0866D31AF3
:105FB00003FB050003FB05F406FB02004B6F4C6678
:105FC0008A669842C8BF18465A429042B8BF1046E7
:105FD000C86600F013FF44F20001C4F21C6100F037
:105FE000DDFDDBF8641002460846114600F000FDB6
:105FF0000021C4F21631044600F0A8FD00281CBFA1
:106000000024C4F2163420460021CBF8644000245A
:1060100000F09CFD002808BFCBF864409BF8090005
:10602000002804BF00208BF815009BF80500BBF882
:106030003A1000EB800008EB0010884247D99BF82B
:10604000110060B1012803D1FFF7D2F99BF81100CC
:10605000022808BFFFF798F900208BF8110040F2E2
:106060000004C2F200046078002800F09B809BF8D6
:106070001900002800F0AC80607FA18CC0EB0010FC
:1060800001EB8000A0F13C010AB2B2F5B47FA8BFD9
:10609000A0F5D27101F1770002B2ABF84E10B2F563
:1060A000B47FA8BFA1F1F100ABF8500001F1EF00FF
:1060B00002B2B2F5B47F9BF80520A8BFA1F1790028
:1060C000012AABF8520004BF01208BF81A009BF89C
:1060D0001560002E40F0A7809BF80410D9F800004E
:1060E000142222FA01F1BBF83E5088420FD240F24E
:1060F0000000C2F20000418E8D423CBFABF83E1062
:106100000D46C08E854284BFABF83E00054640F286
:106110000008C2F20008B8F84000854284BFABF81E
:106120003E0005469BF80C0030B1B8F92E008542C0
:10613000C4BF85B2ABF83E50DBF864400021204676
:1061400000F012FD28B9204600F036FE0544ABF8F9
:106150003E5098F80E00002865D0A8B2DBF87030E9
:106160000021C8284FF0000238BF0122B3F5FA7FA2
:1061700088BF01211143BBF830204FF05001A0EB44
:10618000020318BF28218B4288F8131042DDB8F8AB
:106190004E001144B0F5FA7FABF83E1040D9012013
:1061A0003FE000BF9BF8191000200029ABF83E002B
:1061B00040F0FE809BF803200121002A8BF8161086
:1061C000C9F8000000F0EE80FDF746FBF0E000BFEC
:1061D00001208BF816009BF8030000250028ABF87F
:1061E0003E50C9F800508BF81C5000F0D5809BF849
:1061F000050000287FF440AFE08F617A00EB41009A
:106200001338ABF83E00FFF7F3F901208BF81500C7
:1062100032E700BF101A8842C4BF501AABF83E00E4
:10622000002088F814009BF81D109BF81900002925
:1062300018BF00280ED11EB340F20002C2F20002C5
:10624000BBF83E10908FD28F00FB01F3B3FBF2F34B
:10625000D21A2AE0BBF83A103029ECD340F20004FD
:10626000C2F20004A078B8B1E68FB4F84E0073080B
:106270006021C8220096FEF745FFA0870DE000BF11
:10628000C0EB0010820040F20000C2F20000BBF838
:106290003E10808F0AE000BFA08FBBF83E1080B296
:1062A000E28F00FB01F3B3FBF2F20132ABF83010E6
:1062B00042F63441C4F20101ABF8542041F8080C15
:1062C00090B2C1E900008860DBF8780045F25651D1
:1062D000C5F255519BF8122050FB01F000EBD07134
:1062E000CBF870104AB3D9F800000B2825D3D9F8A1
:1062F0000400FDF7F7FADBF870100A097C2A17D8BA
:106300004A08904214D99BF80D20002001328BF8E6
:106310000D2040F20002C2F20002528EC9F80000C5
:106320008BF8190001208BF816005008ABF83000EC
:1063300000208BF81200C9F804109BF81400B8B1C3
:10634000DBF868009BF82340BBF84850BBF82E6090
:1063500000F032FDBBF8567003462046294632460F
:106360000097FEF733FDFFF739FB00208BF8140090
:10637000BBF8420042F21172411C88B29042ABF865
:10638000421006D39BF81D1081BB4CF2513188425C
:106390002CD201B0BDE8F08FFBF72AFDABF83E50E0
:1063A0006AE600BF9BF81500002808BFFBF720FD38
:1063B0009BF809009BF81560002818BF002E3FF4D9
:1063C00088AEBBF83C104FF47A70FDF78BFA00F5FD
:1063D0007A7081B2B1F5FA6FABF83E0002D1FDF7E9
:1063E0003BFA74E6FFF704F971E600BFFBF700FD26
:1063F00042F634410020C4F20101ABF81D00CBF895
:10640000380008604860886040F22441C4F200010E
:106410004860086040F27850C2F200004FF480718A
:10642000FAF7E4FEFBF7ACFA062988BF7047DFE80D
:1064300001F0050F19232D37410000BF50F8203F10
:1064400002F0010123F0010211430160704700BF17
:1064500050F8203F042101EA820123F00402114395
:106460000160704750F8203F102101EA021123F02B
:10647000100211430160704750F8203F402101EAAB
:10648000821123F0400211430160704750F8203F11
:1064900002F00101090223F4807211430160704788
:1064A00050F8203F02F00101890223F48062114379
:1064B0000160704750F8203F02F00101090323F406
:1064C0008052114301607047062988BF7047DFE89A
:1064D00001F0051E091E0D1E150000BF50F8183FE3
:1064E00006E000BF50F8183F0AE000BF50F81C3F1C
:1064F000082101EAC20123F0080206E050F81C3F1F
:1065000002F00101C90223F40062114301607047E7
:10651000026801F0010122F0800242EAC11101602B
:106520007047000010B542F6FF31C4F20101884205
:1065300016DD44F2FF31C4F201010B248842C0F29F
:106540000C0425DC42F60041C4F2010188423AD035
:1065500044F20001C4F2010188423FD1053432E027
:1065600040F20041C4F20001884221D041F2000112
:10657000C4F2000188421FD042F20001C4F20001BF
:1065800088422BD10120C0F21000C41D1BE000BFC7
:1065900044F20041C4F20101884213D044F60001E4
:1065A000C4F20101884218BF10BD07340BE000BFE0
:1065B0000124C0F2100406E00120C0F21000C41C47
:1065C00001E000BF063420460121FCF7A1FC204673
:1065D0000021BDE81040FCF79BBC00BF10BD0000CF
:1065E000B0B540F2B544C2F2000440F278602178C0
:1065F000C2F200000078002918BF00280ED140F236
:10660000B641C2F200010978012913D0002962D1F4
:10661000FCF75AFDBDE8B040FFF758B840F28C4097
:10662000C2F200000078A8B1FFF750F8BDE8B04012
:10663000FEF750BCA0B140F28C40C2F200000078DE
:10664000002849D0FEF746FCFBF774FFBDE8B040D8
:10665000FFF73CB8FFF778F9BDE8B040FBF76ABF39
:1066600040F2B740C2F200000078012803D1FBF7E6
:1066700061FFFFF72BF840F2B840C2F2000000784B
:10668000012826D140F21040C4F600000168C90676
:1066900041BF01685FEAC16101685FEAC16102D57B
:1066A0000168C906F2D40068C00658BFFCF70CFAAE
:1066B00040F22040C4F20000016821F002010160B4
:1066C000FFF704F84420C4F20200016841F004011D
:1066D0000160207820B1B0BDBDE8B040FFF734B90B
:1066E00040F2CA44C2F20004208840F27C45C2F263
:1066F000000548B9697839B940F2D040C2F20000CB
:10670000018801310180B0BD40F2D04140F2DD533B
:10671000C2F20001002298420A8038BFB0BD298928
:10672000FDF7E0F82A78E97801323228C8BF002264
:10673000D0B233282A7005D321B9FEF73BFD4FF4C0
:106740008070288020882881B0BD0000426901F057
:10675000010122F0800242EAC1114161704700004C
:10676000C26801F0010122F4005242EA4131C160E5
:10677000704700002DE9F04186B001AD044628467F
:10678000984616460F46FCF711FB43F6000105F14B
:106790000C00C4F201018C4208BF05F1080000683A
:1067A0004CF6CD4100EB80004000B0FBF7F0CCF69A
:1067B000CC41A0FB0112D10801EB8103A0EB430007
:1067C0000428A0684FF0010388BF03EBD201C1EA9F
:1067D0000000A060E06806F0010120F4805040EA6B
:1067E0000130E060206908F0030120F4405040EAE5
:1067F0000130206106B0BDE8F0810000C26801F000
:10680000010122F0040242EA8101C16070470000E8
:10681000426901F0010122F0080242EAC10141612E
:1068200070470000C26801F0010122F0080242EA4C
:10683000C101C160704700001CF0700F08BF0A461C
:106840000FB403B42DE90C50FAF7FAFCBDE80C5074
:10685000024603BC11680CF0405030EA814318BF77
:106860004CF0804C4FEA4C034FEAD36323EA1123E8
:1068700010EA814F18BF23F0100341EA030101F031
:10688000E0734CEA030C11600CF00F030A2B1DBFE0
:10689000082B0CF070034CEAC30C4FF4003304BF18
:1068A00033EA0C034CF4400C1CF0005F14D11CF0D4
:1068B000805F0BD11CF0804F31D11CF0006F12D1E2
:1068C00011F4807F0FBC47D000F0F7BD11F4806F4A
:1068D0000FBC2BD000F0F1BD11F4006F0FBC08BF4E
:1068E000704700F0EABD11F4007F0FBC40F0E58571
:1068F0001CF0400F1EBF4FF0004040F001007047F9
:106900001CF0100F14BF81EA030242400CF00F008C
:106910000A2808BF4FF0FF324FF000030FE011F4D8
:10692000805F0FBC08BF704700F0C7BD2CF0805CD3
:106930001CF0800F14BF01F0004200F0004202F092
:1069400000421CF0100F1DBF0FF28C0003C8114352
:10695000234808BF104370471CF0400F40F02880C8
:106960001CF4404F1BD01CF4004F1CBF19461046AE
:106970000CF4807218BF8CEA520C1CF0800F0CBF14
:1069800040F4800041F400218CEADC0313F0100F86
:106990001CBF2CF00F0C4CF0080C00F035BD1CF0A7
:1069A000100F1ABF0FA393E80300104800F02CBD8E
:1069B0001CF0800F14BF01F0004200F000421CF0F8
:1069C000100F1BBF07A393E803000848114308BF3B
:1069D000104300F019BD00BF000000000000F07F70
:1069E0000000807F000000000000F87F0000C07FF2
:1069F00080EA400281EA410312F0FE4F18BF13F013
:106A0000FE4F00F04E8090EA010F48BF81F0004138
:106A100000F1D683421A3CBF801A89184FEAD0523F
:106A2000A2EBD1534FF0004C4CEA00204CEA01217C
:106A300021FA03FC10EB0C0C22D202F1FF325FEAC8
:106A40001C2040EBC25038BF70471CF07F0F4FEA4C
:106A5000400C18BFBCF17F4F38BF7047C3F1200313
:106A6000994008BF20F00100BCF17F4F38BF70474C
:106A7000A0F1C0404FF0010C4CF0805CFFF7DCBE91
:106A80004FEA3C00000A40EBC25028BF1CF0FF0F49
:106A90004FEA400CE2D018BFBCF17F4F38BF7047BF
:106AA000E6E74FF07F4C3CEA400218BF3CEA410267
:106AB00036D090EA010F48BF81F0004100F1EC832D
:106AC000421A3CBF801A89184FEAD052A2EBD15328
:106AD000090219D04FEA002012F0FF0F1CBF40F04E
