:020000040800F2
:10000000F0FF0220753F0608E53F06081553020879
:10001000E53F0608E53F0608E53F0608000000004A
:10002000000000000000000000000000E53F06089E
:10003000E53F060800000000E53F06087D140208C1
:10004000E53F0608E53F0608E53F0608E53F0608E8
:10005000E53F0608E53F060895070208B9070208CC
:10006000F5070208310802086D080208E53F060896
:10007000E53F0608E53F0608E53F0608E53F0608B8
:10008000E53F0608E53F0608E9F10008E53F0608F8
:10009000E53F0608E53F0608E53F0608A90802080F
:1000A000E53F0608E53F0608E53F06089DB2000863
:1000B000ADB20008BDB20008CDB20008E53F0608A9
:1000C000E53F060841BE000899BD0008E53F060867
:1000D000E53F060821110208B91102085112020871
:1000E000E5080208E53F0608E53F0608E53F060883
:1000F000E53F0608E53F0608E53F0608E53F060838
:10010000E53F0608E53F0608DDB20008E53F0608C2
:10011000E53F0608E912020841EF00087DEF0008FC
:1001200029B400083DB4000851B4000865B40008C3
:1001300079B40008E53F0608E53F0608E53F0608F4
:10014000E53F0608E53F0608E53F060889B60508CD
:100150008DB40008A1B4000800000000E53F0608C7
:10016000E53F0608E53F060800000000000000002B
:10017000E53F0608E53F0608E53F060800000000E9
:1001800000000000E53F060881130208E53F06086D
:10019000E53F06080000000000000000000000002D
:1001A000000000000000000000000000E53F06081D
:1001B000E53F060800000000E53F060800000000DB
:1001C000000000000000000000000000000000002F
:1001D0000000000000000000E53F0608E53F0608BB
:1001E000E53F0608E53F0608E53F0608E53F060847
:1001F000B5B40008C9B40008DDB40008F1B40008C3
:0C02000005B5000819B500082DB5000870
:0828000000C00F0800001008E1
:1080000010B5054C237833B9044B13B10448AFF3D2
:1080100000800123237010BDB01601200000000075
:1080200060A5070808B5034B1BB103490348AFF32C
:10803000008008BD00000000B416012060A50708FC
:1080400010B50268047C11680223A340194208D0CD
:10805000044900240C704168086864F3000008605B
:10806000536010BDCC160120026890F810C0136850
:10807000022101FA0CF10B42F0B408D11168082377
:1080800003FA0CF31942F0BC18BF53607047042385
:1080900003FA0CF3446951605360EFF311835022EB
:1080A00082F31288226C1168C90706D5DBB283F30C
:1080B0001188026890F810C0E0E7516889B279B978
:1080C000D4E90975AF421BD0A6692E44D66012D8F8
:1080D0002669751BADB25560A162002184F86C1051
:1080E000116841F00101DBB2116083F3118802686D
:1080F00090F810C0C2E77D1BADB25560A762ECE7F7
:10810000012284F86C20D1E730B5EAB18E464FEAFF
:10811000014C034600F1C005002419689A6841EA41
:108120000C0142EA0E029A60C3E900140C33AB4220
:10813000F3D1D0F8C030C0F8C44043EA0E03C0F811
:10814000C030C0F8C84030BD4FEA014E8C46E0E771
:10815000704700BF704700BF024B03EB4010407FE9
:10816000704700BFB03F001070B5104ED6F8003118
:10817000002B18DD3446002505E0D6F80031AB426F
:1081800004F120040FDD237F0135002BF5D0E068DA
:108190000028F2D0217D18F02FFCD6F80031AB4238
:1081A00004F12004EFDC012070BD00BFB03F0010DF
:1081B0002DE9F0414668836938490324720004FAC6
:1081C00002F5DC6B91F804712C43DC6301215C6CDB
:1081D00001FA02F222435A649A6C4FB1C568B14069
:1081E00011439964002D57D02B68AA889A610AE040
:1081F0001036C568B14011439964002D4CD0AA884F
:108200002B6812049A6103F13F4303F57E039B0A36
:108210002349244A4E78D05C57F072FBAC882B6817
:108220007601C6F34116002C36D04FF0000C032720
:1082300001251FFA8CF0420014F0010F07FA02FE2C
:1082400005FA02F105FA00F00CF1010C22D0D3F886
:10825000008028EA0E08C3F80080D3F8008048EABE
:108260000108C3F80080D3F8048028EA00005860B1
:1082700058685860986820EA0E0098609868014332
:108280009960D96821EA0E01D960D96806FA02F22C
:108290000A43DA606408CCD1BDE8F081B03F001039
:1082A000CC160120A46606084368826C10B49A615B
:1082B000EFF31182502383F312884168C46B0B687B
:1082C00023EA0403446C2343D2B20B6082F3118887
:1082D000D0E907418268036912681C605960D0E9DF
:1082E00009419C60D960B0F85C10D16200235DF850
:1082F000044B0376704700BF10B4EFF31182502394
:1083000083F312884168C46B0B6823EA0403046C8E
:108310002343D2B20B6082F31188D0E90B4182680B
:10832000036912681C605960D0E90D419C60D960F6
:108330000024B0F87C105462D1621A6801210A430B
:108340001A605DF8044B0176704700BF83681B68B4
:108350000022D9629A62596941F001015961196894
:1083600062F309211960196862F3061119601A682D
:1083700042F080021A607047074BD0F894105B6897
:10838000D0F8A0205B1A9A42B8BFC0F8A0300123F1
:1083900080F8CC3000207047001000E0B4224FF489
:1083A000EB7100234FF4A57C8280C180124A0370D8
:1083B000A0F802C0102103E001331C2B0AD09179F0
:1083C00011F0800F02F12002F6D00C4A02EB4313A9
:1083D000197B00E000214FF4E17200234FF4877C09
:1083E00001724281962144224372A0F80CC0C181DF
:1083F00002824382704700BFAC660608A466060886
:108400004FF400638381704770470120704701205B
:1084100070472DE9F047DFF88081D8F80450B8F8AC
:108420000820B8F80E90C2EB25135200C2EBE5020B
:10843000B8F90A506A4303FB03F5B8F90C302D1361
:108440005D43AD1305EBE225B8F91230C8F82050B2
:108450000E46A5F5FA31074681FB010C4FEAE37E93
:1084600003FB0CF200FB0E22A3FB003E9644B8F97E
:10847000102082FB01421B0A120343EA0E6342EA08
:10848000145224031B1942EB2E2202F50042A3FBD7
:10849000093E09FB02EE4FEAEE734FEA6E0253EA21
:1084A0006E0E4FF000046BD0B8F918904FEAE97ED9
:1084B00009FB0CFC00FB0ECCA9FB00908444B8F92E
:1084C000160080FB01E148044FEA4E4111EB090917
:1084D000D8F8241040EADE304CEB0000C1F5801CD7
:1084E0000CF0004AB8F9141014EB09044AEA5C0ACB
:1084F0004FEACC7C00EBC10140F63549BCEB0400EF
:108500006AEB010AA0FB090109FB0A115BF0EEFA14
:10851000B8F91E404FEA613E430B43EAC14304FBF6
:108520000EF24FEAE47C03FB0C2CA4FB03426244F2
:1085300004FB0EFE03FB02EEA4FB0343B8F91C2070
:108540009E44640E44EACE1414EB000C02FB01F3CB
:108550004FEAE274814641EB6E6EA2FB092904FBEF
:1085600000314944D40C44EA41341CEB0404B8F90A
:108570001A304EEBE141240A44EA016404EB03148F
:108580000FB1240A3C6026B105EB850580352D121C
:108590003560BDE8F08700BFCC16012008B5006843
:1085A00058F042FED8B90F4A0F4992F8093192F8B3
:1085B00008011B0143EA003392F80A0143EA101351
:1085C0004B6292F80C3192F80B0192F80D211B01CD
:1085D00043EA003343EA12134B60012008BD002038
:1085E000FCE700BFB03F0010CC1601203B4B9FEDD5
:1085F0003C4A93F8291093F8280093F82A2093F81E
:108600002BC093ED0E7A090201EB00410A440902E6
:1086100048BF02F17F4207EE902AB3F9442093F855
:108620002C0093F82D1006EE102AB3F94020F8EE36
:10863000E77A06EE902A67EE847AB3F94220B8EE24
:10864000C66AF8EEE66A0002E7EE866A00EB0C40C6
:10865000014406EE102AB3F93E20000205EE102A6E
:1086600048BF01F17F41B3F93C20F8EEC75A07EE4D
:10867000101AB8EEC66AB8EEC55AE6EEA75A01203F
:10868000D3ED0D6A04EE902AB8EEC77AA7EE865AAB
:10869000B3F9322027EE047AF8EEE44AB8EEE66A3F
:1086A00006EE902AB3F93020A7EE246AE5EE075AC9
:1086B000F8EEE66A05EE102A26EE877AB8EEC55A7D
:1086C000F6EE004AF0EE466AE7EEA56AA5EE247AD9
:1086D000C3ED126A83ED137A704700BFCC160120F8
:1086E0000821843630B10A4BD3ED127AFDEEE77AD9
:1086F000C0ED007A51B1064B9FED067AD3ED137AA7
:1087000067EE877AFDEEE77AC1ED007A704700BF29
:10871000CC1601200000C842704700BF01207047FE
:1087200001207047704708B5006858F07DFD70B9AA
:10873000084A92F8113192F8101192F812211B0296
:1087400043EA01431343044A0120136508BD002096
:10875000FCE700BFB03F0010CC16012008B5006850
:1087600058F062FD70B9084A92F8113192F8101170
:1087700092F812211B0243EA01431343034A0120EA
:10878000536508BD0020FCE7B03F0010CC16012067
:108790002DE9F74F554AB2F86230B2F85E60B2F890
:1087A0006470CDE90001116D1B02C91AB2F8603086
:1087B0006EEB0E0EA3FB010403FB0E44B2F85C301B
:1087C000C00940EA44601B04C018A6FB013506FB43
:1087D0000E55B2F85A604FEA132343EA05634FEA95
:1087E000C6364FEAE41444F100049B19A7FB0126A6
:1087F00007FB0E664FEAD25242EA46224FEA25258F
:1088000045F10005F61512F5FA6C46F1000BBCF5C2
:10881000FA6F7BF100074CDAA2FB02784FF0050AF1
:1088200002FB06F908EB4909A7FB0A780AFB09884D
:108830004FEA570949EAC879BF08B0EB090047EA8F
:10884000887764EB6804DB1B294F65EBA805BC4502
:108850004FF0FF377BEB070720DA40F6AC57D21911
:1088600046F100065643A2FB027202EB46064FEAAF
:10887000C608FA00BA1A48EA577866EB08081018D2
:1088800044EB08044FF00B08A7FB087208FB062610
:108890007F0847EAC677DB1B65EB660501FB0EFE2A
:1088A000A1FB011202EB4E0EC90F41EA4E01BCEBD7
:1088B000010C009A92B10D4A516DA1FB032301FBFB
:1088C0000535520D42EAC522121A4FEA6555009B42
:1088D00065EB0404D20B42EA44421A60019B0BB1DF
:1088E000C3F800C003B0BDE8F08F00BFCC16012074
:1088F00024FAFFFF4FF4006383817047074BD0F8E1
:1089000094105B68D0F8A0205B1A9342C8BFC0F8EF
:10891000A030012380F8CC3000207047001000E028
:108920004FF4006383817047074BD0F894105B6865
:10893000D0F8A0205B1A9342C8BFC0F8A030012332
:1089400080F8CC3000207047001000E04FF4006346
:1089500083817047074BD0F894105B68D0F8A02053
:108960005B1A9342C8BFC0F8A030012380F8CC3016
:1089700000207047001000E038B50446006A036824
:108980001A7B82B9637E0BB9012038BD084D0223E2
:108990002A46291D16F042FB687800F00100607637
:1089A00080F0010038BD1B6A002BEBD0002038BDE1
:1089B000703D0010F8B50446006A0D4E0568637EF0
:1089C0002A7B371D7AB983B10223094A394616F04A
:1089D00025FB737803F00103637633B1206A0568E1
:1089E0002A7B002AEFD02A6AECE70120F8BD00BFFD
:1089F000703D00100123437600207047D0E90A2122
:108A000008B543690B4443610AB10846904700200A
:108A100008BD00BF036A1B681B6A5B685B7802467F
:108A200013F0010008BF5076704700BF70B5234CAB
:108A3000234A94B00546049204F108020592214AA3
:108A40000992A4F108020A922A7E009400239A4215
:108A5000CDE90E3314BF05220422201D0C922A6A90
:108A600006930B93109313930190119301231068B5
:108A70008DF80C3007938DF820308DF834308DF858
:108A80004830022302930E4659F04EFF2B7E93B1DD
:108A9000330E04F8073C063C320C330A2270637034
:108AA000A670286A694617F07DFA2B6A186859F093
:108AB0003BFF14B070BD073CEEE700BF803D0010E7
:108AC000158A0008F589000810B5044694B05022B4
:108AD000064968465DF030FD206A694617F062FA83
:108AE000236A186859F020FF14B010BD2C6A0608DC
:108AF00082624161704700BF2DE9F8430446006A75
:108B000000681F468846914659F00EFF237E002BD1
:108B100038D065692648274E052303632B0E7377EB
:108B20001E36B5702B0C2D0A33707570D8F80030D6
:108B3000C363012FD9F800304364E3622BD0022FC6
:108B400026D10021D9F80420C16480F84810D8F853
:108B5000041001651344184982650125E36280F819
:108B60005C500166124B617E206A03F114020029F9
:108B700014BF1946114617F015FAA36A9BB1E06AB3
:108B8000BDE8F8830A4865690C4E04230363C8E70F
:108B90000020BDE8F883084A80F848700023C0E947
:108BA00013238365DEE7236A186859F0BDFEE6E704
:108BB00000000120703D0010FD8900088D3D00106F
:108BC000704700BF00B583B041610192049A0093E1
:108BD000826201236A4601A9FFF78EFF03B05DF8A8
:108BE00004FB00BF043070470430704710B4084CD9
:108BF000A06E00EB400004EB001C6C3404EB001092
:108C0000DCF86C406469A4465DF8044B604700BF23
:108C1000CC160120064B9A6E02EB420203F16C0067
:108C200003EB021300EB0210DB6E9B69184700BFD9
:108C3000CC1601200430704710B543691A691168D9
:108C40006FF3000111609A68B3F80CC011680468F2
:108C5000CA6822EA0C02CA60017C206808228A40A5
:108C6000024210D11048022290F8040102FA01F1E8
:108C7000616038B11A7E012A06D1D3F8A4200132EE
:108C8000C3F8A42010BDFEE7D3F8A0201846013297
:108C9000C3F8A020FFF730FB826883891268D1688F
:108CA0000B43D36010BD00BFB03F00100269C36822
:108CB0002DE9F04712EA03092AD005460E464FF087
:108CC00000474FF00008B9FA89F327FA03F2D243BC
:108CD0001B3B2A6109EA0209042B16D8DFE803F0DE
:108CE000332A221A0300B36A002B35D003F1FF3A6E
:108CF0001FFA8AFAC6F82880746A34B123682046BD
:108D0000514698476468002CF8D1B9F1000FDAD1C8
:108D1000BDE8F0877068A98E03689847B9F1000F25
:108D2000D1D1F5E7B068298F03689847B9F1000FF2
:108D3000C9D1EDE7F068E96B036889B29847B9F1EA
:108D4000000FC0D1E4E73069296C036889B2984705
:108D5000B9F1000FB7D1DBE7E96A1FFA81FACBE777
:108D60002DE9F0412C4F07EB401898F81C300BB957
:108D7000BDE8F0814C2303FB00730D4693F81621E8
:108D800088F80220002183F816110446460171F08C
:108D900017FC88BB07EB4410BD5371F009FC3E443F
:108DA00097F80431B26993B17168536F01248C4014
:108DB00003F1C001420010F4004F90B202D15A6892
:108DC00022435A600C339942F4D1BDE8F0817468B3
:108DD000536F04F110020124944003F1C0014200DA
:108DE00010F4004F90B202D15A6822435A600C33FB
:108DF0009942F4D1BDE8F081084B93F82C2102EBA5
:108E0000420203EBC203234493F8D950002DC1D092
:108E1000012388F80230BDE7B03F0010CC160120D6
:108E20002DE9F04FDFF820B39BF8044187B024B957
:108E30000124204607B0BDE8F08FBD4BD3F8305178
:108E400018F068FB9BF8B033002B00F08781B94A1B
:108E5000A2FB0532B84B5209A3FB0213DB0803EB5C
:108E60008303A2EB4303DAB20392DBF880230BF512
:108E70006E77821A0BF58A7507EB830A0BF5D363BD
:108E8000029205950026994610E0284671F0BCFB39
:108E90009BF8B0330136B34207F15C070AF15C0A74
:108EA00009F1040905F14C0540F3DB80029A002A20
:108EB00003DB2B6B934200F349814C2303FB06B386
:108EC00093F8403103F0FF020192002BDDD0AB6834
:108ED000A9891A682B6C5B681FFA83FED368CEF1F0
:108EE000160E23EA0103BEF1070FD360CDD9DBF8DC
:108EF000A0360133CBF8A036AB6C04939C4600221D
:108F00005CF8044B012190461BE0DCF80000B8F14E
:108F1000140FA0EB04031DDC13F1080448BF03F198
:108F20001704231108EB24180446581E013102FAD5
:108F300003F3012282408E4542EA03020CF1040C45
:108F400008D38E45E1D8C8F11503DCF800404FF096
:108F50001508EAE7B8F1150F79D17848C2F38423F0
:108F6000C2F3441100EB830300EB8101D3F8D83343
:108F7000D1F8D8131B0243EA011302F01F0100EBE2
:108F80008101C2F3C43200EB8202D1F8D813D2F8C7
:108F9000D8230B4343EA023383EA132282EA1212F4
:108FA00002F00F020F2A52D140F6FF71B1EB131FEE
:108FB0004FEA131200F0CF80C2F308025B0B12FAE3
:108FC00003F344D05A0802F5122202F5F8624FF674
:108FD000FF71B2FBF3F293B28B4238D0A9F80C3098
:108FE000032E4FF0010389F80E3005DC504B93F847
:108FF00034312D2B00F0978097F8583003998B422D
:1090000010D0DAF808203B689B1A3B60DAF8302071
:109010007B689B1A7B600023CAF80830CAF830309E
:1090200087F858103B6801333B60DAF808300133A9
:10903000CAF80830019B002B7FF427AF7B6801330F
:109040007B60DAF830300133CAF830301DE7DBF8E6
:109050009C360133CBF89C36002E5DD00023019363
:10906000CAE70022CBF88023002B3FF4E1AE03EBEC
:10907000C30203EB4203059A02EB8303117C906861
:1090800011F0020F4179006830D049000139C9B2AE
:10909000062909D8DFE801F01B162520110C040071
:1090A000016A41F4805101624C329342E6D1BFE63D
:1090B000016A41F480610162F6E7016A41F480715E
:1090C0000162F1E7016A41F004010162ECE7016A23
:1090D00041F001010162E7E7016A41F040010162EC
:1090E000E2E7016A41F010010162DDE70139490060
:1090F000C9B20629D8D801A454F821F0CF900008AD
:10910000C5900008E3900008D9900008BB900008C3
:10911000B1900008A19000080499094858225DF018
:109120000BFA019668E7074B23F8162064E700BFA7
:10913000CC1601201F85EB51CDCCCCCCA466060803
:109140007446001004180120B03F0010002420468F
:1091500007B0BDE8F08F002213463FE7CBF880331D
:1091600067E600BF38B571F04BFA002800F09B812C
:10917000654B93F81C17002900F0C48093F87C23FA
:10918000002A40F0C380D3F82007046862F3C714B4
:109190000460B3F82447C462046844F080040460A7
:1091A0004262C568B3F83447012944EA0504C46043
:1091B000A3F8342700F0A680D3F83807046862F3D8
:1091C000C7140460B3F83C47C462046844F08004E8
:1091D00004604262C568B3F84C47022944EA0504BA
:1091E000C460A3F84C2700F08D80D3F850070468C2
:1091F00062F3C7140460B3F85447C462046844F0CF
:10920000800404604262C568B3F86447032944EAF5
:109210000504C460A3F8642774D0D3F86807046811
:1092200062F3C7140460B3F86C47C462046844F086
:10923000800404604262C568B3F87C47042944EAAC
:109240000504C460A3F87C275CD0D3F880070468C9
:1092500062F3C7140460B3F88447C462046844F03E
:10926000800404604262C568B3F89447052944EA63
:109270000504C460A3F8942744D0D3F89807046881
:1092800062F3C7140460B3F89C47C462046844F0F6
:10929000800404604262C568B3F8AC47062944EA1A
:1092A0000504C460A3F8AC272CD0D3F8B007046839
:1092B00062F3C7140460B3F8B447C462046844F0AE
:1092C000800404604262C568B3F8C447072944EAD1
:1092D0000504C460A3F8C42714D0D3F8C8170868DD
:1092E00062F3C7100860B3F8CC07C862086840F0A2
:1092F000800008604A62CC68B3F8DC072043C8608D
:10930000A3F8DC2738BD00BFB03F0010D3F82847D2
:10931000D3F82027B3F82C076060906C4FF0030C53
:109320006CF30C209064956C0D2060F3040595643B
:10933000D56845F48075D5602268012942F00102A4
:109340002260DFD0D3F84047D3F83827B3F844572A
:109350006560956C6CF30C259564956C60F3040561
:109360009564D56845F48075D5602268022942F07D
:1093700001022260C6D0D3F85847D3F85027B3F87B
:109380005C576560956C6CF30C259564956C60F387
:1093900004059564D56845F48075D56022686145FB
:1093A00042F001022260ADD0D3F87047D3F86827AD
:1093B000B3F874576560956C6CF30C259564956CE7
:1093C00060F304059564D56845F48075D56022681E
:1093D000042942F00102226094D0D3F88847D3F8E0
:1093E0008027B3F88C576560956C6CF30C259564F9
:1093F000956C60F304059564D56845F48075D56077
:109400002268052942F0010222603FF47BAFD3F8C5
:10941000A047D3F89827B3F8A4576560956C6CF310
:109420000C259564956C60F304059564D56845F446
:109430008075D5602268062942F0010222603FF45F
:1094400061AFD3F8B847D3F8B027B3F8BC5765601D
:10945000956C6CF30C259564956C60F3040595642C
:10946000D56845F48075D5602268072942F001026D
:1094700022603FF447AFD3F8D027B3F8D417D3F81E
:10948000C8375160996C6CF30C219964996C60F346
:1094900004019964D96841F48071D960136843F07C
:1094A0000103136038BD56F0AFF900287FF460AEB9
:1094B00038BD00BF2DE9F04171F0A2F8002837D087
:1094C0001E4ED6F8E057002D15DD002496F80481D5
:1094D00006F2EC702746B8F1000F21D0037E012B75
:1094E00021D002691368013443F00103AC4200F15A
:1094F000AC001360EFD118F00DF8D6F8E847C6F8C5
:10950000E407002C0ADD0E4B03EBC40419689A88AB
:10951000C86808330243A342CA60F7D1BDE8F081AE
:10952000FEF7C2FEDDE780F89C70FEF7BDFED8E7CF
:1095300056F06AF90028C3D1BDE8F081B03F0010B1
:109540004C4A001010B504465BF04CFD81B2204639
:10955000BDE8104004E400BF2DE9F04FC44C94F87E
:1095600004B189B0BBF1000F1DD1D4F8E037002B56
:1095700015DD0025BF48294603691A686FF300020C
:109580001A60436F03F1C00259600C339A42FBD159
:10959000D4F8E0370135AB4200F1AC00ECDC01203F
:1095A00009B0BDE8F08FB44ED6F8305117F0B2FFD5
:1095B000D4F8BC3AD4F8E4271433801AB0EB430F44
:1095C000C0F2AF81D4F800310193AC4BA3FB05236B
:1095D000AB4A5B09A2FB032CD4F8A02600924FEA09
:1095E000DC0C96F8342106920CEB8C0C06F59C7280
:1095F000A3EB4C0C0792D4F89C26049200235FFA4C
:109600008CF204F56E7E059303920EEB8C0C04F540
:10961000D36A264602931F46019BBB4240F3028158
:10962000B16973680A6998005368D1F898201FFAE5
:1096300083F8A2EB0808D1F8943000F1085008F143
:10964000806500EB4310393D00EB851501468D42E6
:1096500040F2DC800A6801F58073002A00F0548132
:109660000A6C002A00F05381D1F88020002A00F013
:109670005181D1F8C0201946002AE8D19D4240F21C
:10968000C580181AA8EBA010452828BF452003EB79
:10969000801100209946054680460DE01A6C002A8C
:1096A00040F08480D3F88020002A40F0AB80D3F8CB
:1096B000C02003F580732AB9994205D91A68002A97
:1096C000ECD04033994274D84046112840F29E8035
:1096D000C8F11503002BC0F2D98000F02C810121C4
:1096E000C8F1140201FA02F205FA03F365481343C4
:1096F000C3F3C43200EB8202D2F8581403F01F0205
:1097000000EB8202D2F8582442EA0132C3F344113A
:1097100000EB8101C3F3842300EB8303D1F85814D9
:10972000D3F8583442EA011242EA032383EA1322AF
:1097300082EA121202F00F020F2A40F0A780B3F55E
:10974000803F80F0A38040F6FF71B1EB131F4FEA1A
:10975000131200F0EA80C2F308025B0B12FA03F363
:1097600000F09480590801F5122101F5F861B1FB70
:10977000F3F14FF6FE73994248D0009B01330093FA
:109780004FF6FF73994200F084808BB2AAF80C3038
:10979000032F4FF001038AF80E3000F38080069B00
:1097A0002D2B7CD1079B23F8171078E0803399424A
:1097B0008AD9A3EB09029211501C334A82FB009212
:1097C000A2EBE072012AB8BF01229540012090442B
:1097D000013A00FA02F21543184602687AB3026CA5
:1097E000002A00F09A80D0F88020002A00F09780AC
:1097F000D0F8C02000F5807012B38142EDD89946B0
:10980000034659E7C0335DE7CDF808B00137082FAC
:109810000EF15C0E0CF15C0C0AF1040A06F1200654
:109820007FF4FAAE029B13B1009BC4F8A036059BEF
:10983000002B3FF49AAE049BC4F89C3695E640306A
:109840008142DCD9C31A9B115A1C0F4B83FB029334
:10985000A3EBE273012BB8BF01239D409844012282
:10986000013B02FA03F31D4303469946034623E7EF
:10987000B03F00109C470010CC1601201F85EB5113
:10988000CDCCCCCCA466060856555555009B01336B
:109890000093049B0133CDE9043B4FF6FF719EF822
:1098A00058300398834214D0DCF80820DEF80030EA
:1098B0009B1ACEF80030DCF83020DEF804309B1A1A
:1098C000CEF804300023CCF80830CCF830308EF8D5
:1098D0005800DEF800300133CEF80030DCF80830F4
:1098E0000133CCF808304FF6FF7399428CD1DEF883
:1098F0000430CDF808B00133CEF80430DCF8303055
:109900000133CCF8303081E701F14003B6E601F1D4
:109910008003B3E601F1C003B0E6803090E7C030C9
:109920008EE7002009B0BDE8F08F009B0133009363
:10993000002319462AE71349C5F3C43301EB830317
:109940000846D3F8582405F01F0301EB8303D3F82E
:10995000583443EA0233C5F3441201EB8202C5F3E3
:109960008421D2F8582400EB810143EA0213D1F894
:10997000582443EA022383EA132282EA121202F0F5
:109980000F02D9E6A4660608F0B58468617901394A
:109990004900C9B2054687B02068072907D8DFE823
:1099A00001F05C065F06620665040A2343670368EC
:1099B0006FF30003036000230493029300930123D9
:1099C00003930193062258F017FB63792268013B49
:1099D0005B00DBB2062B0DD8DFE803F0046B4B70A5
:1099E00054665D00136A43F001031362936943F008
:1099F00008039361207938B9AB681A68136843F09B
:109A00000103136007B0F0BD0609013E072E00F008
:109A10000F001DD82C4F07EB4603B3F8D81441FABA
:109A200000F3DB0714D5012303FA00F001380840E6
:109A30003E445AF0C3F896F8E8341844234B03EB3D
:109A4000C0005422C280227A0A2117F0BBF8226893
:109A5000536C43F400435364CEE70A234363A6E701
:109A60000A238363A3E70A23C363A0E70A230364EB
:109A70009DE7136A43F010031362936943F4006394
:109A80009361B7E7136A43F480731362D36943F0B9
:109A90000803D361AEE7136A43F480531362D369BA
:109AA00043F40063D361A5E7136A43F48063136250
:109AB000A0E7136A43F0040313629BE7136A43F0C1
:109AC0004003136296E700BFA46606080C18012045
:109AD0002DE9F0430546006A354C006895B00E4606
:109AE0009146984658F020FF324B049304F12C0322
:109AF000009304F130030193297E0223029304F1C1
:109B00002402012300278DF80C30059206970029C6
:109B100036D08DF834308DF84830CDE90977330EE2
:109B2000CDE90E77CDE9107784F825300523CDF8FF
:109B30002C908DF82070CDF8308013972634079341
:109B4000330C1D4F2370330A6370A670D7F8D80208
:109B50002C6A16F059FA6B7EA08033BB05A920460B
:109B600016F020FA2B6A186858F0DEFED7F8DC02EF
:109B700016F04AFA2B6A9880404615B0BDE8F0838B
:109B80008DF834308DF848300423CDE90911CDE942
:109B90000E11CDE91011CDF82C908DF82010CDF8D4
:109BA0003080139125340793CAE76946D7E700BF91
:109BB000703D0010158A0008CC16012007B500235F
:109BC0008DF807300DF1070201230F2114F020FF5B
:109BD00028B19DF807306C2B14BF0020132003B070
:109BE0005DF804FB07B500238DF807300DF107027F
:109BF00001230F2114F00CFF28B19DF807306A2BC8
:109C000014BF0020122003B05DF804FB38B5002219
:109C10004E21054615F04AFA152496201AF0F6FD55
:109C2000F521284616F066F9422807D0472807D0C4
:109C3000013C14F0FF04F0D1204638BD0C24FBE7B2
:109C40000D24F9E710B51C4615F030FA2046BDE8A2
:109C500010401AF0DBBD10B50446806816F004FA17
:109C600001201AF0D3FDA06816F004FABDE81040F8
:109C70000A201AF0CBBD2DE9F743054600F1100488
:109C8000934816F0C1F9A88295F8D10044F23B330D
:109C9000A5F8FC3000283AD00709013F072F00F053
:109CA0000F0000F2EC80DFF8408208EB4703B3F8C6
:109CB000D82442FA00F616F0010615D0012303FA63
:109CC00000F001381040474459F078FF97F8E83425
:109CD000804A184402EBC00652F83030B2881B6943
:109CE0001A4214D12623F38029467B4B41F80C3FBE
:109CF000304656F0A1F956B1B388B3FA83F24FF06B
:109D00000043D34003D075490A6813430B6042F205
:109D10001F53A5F8FC3000227621204615F0C6F925
:109D200000224E21204615F0C1F995F888906C4B21
:109D3000B9F10C0F93F8E13240F0A380012B00F051
:109D4000B080022B15BF062603264FF4DC774FF4B4
:109D5000786714BF4FF015084FF03F0801227621B5
:109D6000204615F0A3F942460C21204615F09EF935
:109D700007F0FC020D21204615F098F9320142EA65
:109D800017220E21204615F091F9B9F10C0F14BFDE
:109D90004FF006084FF015084FF002024FF0760121
:109DA000204615BF24274FF4DC770A26062615F037
:109DB0007DF94FEA48020321204615F077F907F0B4
:109DC000BC020421204615F071F9320142EA172243
:109DD0000521204615F06AF900227621204615F06B
:109DE00065F9FF225221204615F060F90322142163
:109DF000204615F05BF900226321204615F056F944
:109E000008226521204615F051F9E421204616F07C
:109E100071F800F0EF0040F060026421204615F078
:109E200045F90F224E21204615F040F901201AF085
:109E3000EDFC95F88B30002B45D095F8D0300133F0
:109E400043F00103B3FA83F3C3F11F03032B3ADC9E
:109E5000244AD25C02F00F024F212046019215F0F5
:109E600025F90F201AF0D2FC2046019A502115F056
:109E70001DF90F2003B0BDE8F0431AF0C7BC00265F
:109E800032E7022B13D0032B17D0012B15BF0A2664
:109E900008262427902714BF4FF006084FF00C081F
:109EA0005CE704264FF4C0674FF0270856E7062604
:109EB0004FF4DC774FF0150850E704264FF4AC67F9
:109EC0004FF025084AE7002385F88B300622C1E7CA
:109ED00000366E010C180120EDCA0008003C01405C
:109EE000CC160120A0100708A46606083122F42130
:109EF00057F064BA10B50446006857F095F938B9C0
:109F00002046044A0623F72158F0FCFD012010BD2D
:109F10000020FCE7B840001008B503681A78012A51
:109F200006D00D4A0623002158F0ECFD012008BDA3
:109F300093F90430094A5C2101FB032292F844138F
:109F400001F0FF0309B1002008BDD2F83023926967
:109F50001204E6D5184608BDF4160120CC160120DF
:109F600010B50E4C94F878304BB10C300C4A0623E7
:109F7000032158F0C7FD002084F8780010BD094B7C
:109F8000B3F81C2452BA0A80B3F81E2452BA8A804D
:109F9000B3F820345BBA4B800120EDE700000120CC
:109FA000E81A0120CC16012010B5174C94F8223481
:109FB000012B00F10C000CD0022B17D0012304F26E
:109FC0002342062158F09EFD012384F8223400200C
:109FD00010BD94F8233413F00403F6D0062304F2E2
:109FE0002442002158F08EFD0223EEE7B4F8243419
:109FF0000B80B4F826344B80B4F828348B800023CF
:10A0000084F822340120E3E7CC160120582157F0D0
:10A0100023B9482157F020B910B50446006857F01D
:10A0200003F9014690B923681A78022A08D1196AFF
:10A0300021B9074A0323204614F09CFF012006E0C3
:10A04000034A0323204658F05DFDF7E7002010BDCA
:10A05000C0400010E0E710B500F10C0470220021B0
:10A06000204615F07BF820220121204615F076F8D5
:10A0700000220221204615F071F864201AF0C6FB78
:10A08000012010BD10B500F10C04C06858F07AFC36
:10A0900001220B21204615F061F820B11D22092173
:10A0A000204615F05BF800F0010010BD07B5002355
:10A0B000ADF8043001AA022314F004FF08B19DF8A2
:10A0C000050003B05DF804FB10B50446FFF7C3FDBF
:10A0D00000212046FFF7EAFF24280CBF0F200020B4
:10A0E00010BD07B5094BB3F8F02493F8F234ADF87E
:10A0F00004208DF8063001AA032314F0E3FE08B112
:10A10000BDF8050003B05DF804FB00BFA4660608B7
:10A110002DE9F3411F46089B019390460E460546E4
:10A12000FFF7C4FF044602201AF0CAFA24EA080422
:10A1300044EA0702019BD2B23146284602B0BDE88C
:10A14000F0417FE52DE9F743144698460DF10702EB
:10A150000123DDF8289006460F4614F059FCA0B103
:10A1600002201AF0ADFA9DF8075025EA040444EAEB
:10A170000802394630468DF8072014F0EFFFB9F198
:10A18000000F02D048461AF041FB03B0BDE8F0834F
:10A19000F7B5642300F11004009301231A46054625
:10A1A00012212046FFF7CEFF002680231A460B21FE
:10A1B00020460096FFF7C6FF02220D21204614F02C
:10A1C000CDFF01201AF022FB32460E21204614F06A
:10A1D000C5FF01201AF01AFB76221021204614F048
:10A1E000BDFF01201AF012FBAC221121204614F011
:10A1F000B5FF012701201AF009FB04233C2212219C
:10A2000020460097FFF79EFF0E231A461321204693
:10A210000097FFF797FF174B93F8E1220097032A67
:10A220009BBF154B9B18334693F8F3341722152127
:10A230002046FFF787FF0223204600971A46182181
:10A24000FFF780FF95F8D10078B116F0DDFD0446E8
:10A2500008B12623C3802946084B41F80C3F20460D
:10A2600055F0EAFE204616F085FA54F007FEA88263
:10A2700003B0F0BDCC160120A466060885D2000804
:10A28000F7B5642300F11004009301231A46054634
:10A2900012212046FFF756FF002680231A460B2185
:10A2A00020460096FFF74EFF02220D21204614F0B3
:10A2B00055FF01201AF0AAFA32460E21204614F06A
:10A2C0004DFF01201AF0A2FA76221021204614F048
:10A2D00045FF01201AF09AFAAC221121204614F011
:10A2E0003DFF012701201AF091FA04233C2212219C
:10A2F00020460097FFF726FF0E231A46132120461B
:10A300000097FFF71FFF144B93F8E1220097032AF1
:10A310009CBF124B9B18204694BF93F8F3343346EE
:10A3200013221521FFF70EFF95F8D10078B116F032
:10A330006BFD044608B12623C3802946084B41F82B
:10A340000C3F204655F078FE204616F013FA54F0E4
:10A3500095FDA88203B0F0BDCC160120A4660608C6
:10A3600071D500082DE9FF4100F110046423B622E5
:10A370007E2190F8CE7006462046FFF763FC20460B
:10A38000FFF769FC012300227C212046FFF75AFCDD
:10A390000123002259212046FFF754FCA74A4FF41D
:10A3A00000535E21204614F0F5FE0A201AF02EFA22
:10A3B00001234FF00A081A4659212046FFF742FCB4
:10A3C000002301227C212046CDF80080FFF7A0FE6B
:10A3D00080231A4677212046CDF80080FFF798FEAB
:10A3E00004231A467D212046CDF80080FFF790FE19
:10A3F00004231A4669212046CDF80080FFF788FE25
:10A40000434601222F212046FFF71CFC3221204623
:10A41000FFF767FE054602201AF052F945F48070F6
:10A4200000B28DF80C00C0F30720022303AA3221EA
:10A430008DF80D00204614F0ADFE40461AF0E6F906
:10A4400041F2883302227E212046FFF7FBFB69217F
:10A450002046FFF72BFE0625002840F0E980642007
:10A460001AF0D4F92F21204601230022FFF7EAFB3E
:10A4700038212046FFF735FE10B90A201AF0C6F938
:10A48000012300227D212046FFF7DCFB012300226F
:10A490006B212046FFF7D6FB032F1DD1012300229D
:10A4A00048212046FFF7CEFB012380224921204688
:10A4B000FFF7C8FB0123002245212046FFF7C2FB1E
:10A4C0000123062246212046FFF7BCFB0123002280
:10A4D00047212046FFF7B6FB01239B22402120465F
:10A4E000DFF86481FFF7AEFB032201234121204600
:10A4F000FFF7A8FB98F8E132013BDBB2022B9BBFD0
:10A500004F4A9B18002293F8F724120162F032029E
:10A51000012302F0FD0242212046FFF793FB0822AF
:10A52000012343212046FFF78DFB032F0CBF02229E
:10A530000422012358212046FFF784FB01230A222D
:10A5400053212046FFF77EFB012302227C21204677
:10A55000FFF778FB01230E227D212046FFF772FBD7
:10A5600001231A462F212046FFF76CFB3421204699
:10A57000FFF7B7FD054602201AF0A2F845F4007374
:10A580001BB28DF80C30C3F3072303AA34218DF8D6
:10A590000D302046022314F0FDFD012501201AF0A4
:10A5A00035F94023C022772120460095FFF7B0FD02
:10A5B0002B4600222F212046FFF744FB032F05D115
:10A5C0002B46B0227E212046FFF73CFB3C21204653
:10A5D000FFF76CFD00F07F03420648BF803B96F812
:10A5E000D1005BB288F82A3478B116F00DFC04462D
:10A5F00008B12623C3803146124B41F80C3F204658
:10A6000055F01AFD204616F0B5F854F037FCB0822C
:10A6100004B0BDE8F08169212046FFF747FD804680
:10A620004FF47A701AF0F2F8B8F1000F3FF417AF58
:10A63000013D15F0FF05EED111E700BF5476060885
:10A64000A466060821CE0008CC16012008B590F8B3
:10A650002430012B18BF012000D008BD006A58F03B
:10A6600067F9C04300F0010008BD00BF38B50C4DCC
:10A67000044694F82430012B03D00023E361012029
:10A6800038BD206A58F054F9C04310F00100F4D1ED
:10A69000D5F83031E2699B1A002BEADB38BD00BFE8
:10A6A000CC1601202DE9F043614D91B004460F46D0
:10A6B000164694F8241001292CD00023E361206A67
:10A6C000062258F03DFD0123637695F82B34002BCC
:10A6D0003FD1D7F80090D5F82C84376894F824300F
:10A6E000012B26D00022012BE26170D0D5F8303149
:10A6F000A26A0233E3613068D5F82C3401210344A7
:10A7000085F82B14C5F82C340AB19047306811B085
:10A71000BDE8F083206A58F00BF9C10740F185804D
:10A72000D5F83031E2699B1A002BC2DB94F8241073
:10A73000C5E7206A58F0FCF8C20773D5D5F8303168
:10A74000E2699B1A002BC9DB94F82430012BCDD190
:10A750003DE0D5F82C348DF80230C3F30223D7F84E
:10A7600000808DF80130376884238DF8003094F82C
:10A770002430012B1BD00022012BE261B6D10897B7
:10A78000276A8DF824308DF838300023CDE90A335C
:10A79000CDE90C33CDF8188001A902938DF8103063
:10A7A000059307930F933846CDF804D02FE0206A25
:10A7B00058F0BEF8C30732D5D5F83031E2699B1A9C
:10A7C000002BD4DB94F82430012B8FD1D7E7002263
:10A7D0000897CDE90A22276A8DF80280CDE90C227C
:10A7E000C8F302288DF824308DF838300223CDF8D4
:10A7F00018908DF80180CDF804D002928DF81020C9
:10A800000592079201A90F928DF800303846032374
:10A81000039315F0C7FB386858F086F866E794F89C
:10A820002430A8E794F824305CE794F8241044E737
:10A83000CC16012033B910B51C46836A20469847D0
:10A84000204610BD2EE700BF70B5194D04460E46D8
:10A8500094F82410012910D00023E3610622206A15
:10A8600058F06EFC94F8243001229342627612D0A4
:10A87000D5F830310F33E36170BD206A58F058F8D5
:10A88000C30712D5D5F83031E2699B1A002BDFDB04
:10A8900094F82410E2E7206AF20AD82158F006FC66
:10A8A000D5F830310F33E36170BD94F82410D3E74D
:10A8B000CC1601208388002B5BD02DE9F04F0026B9
:10A8C0002E4D8DB0044637464FF006084FF0010973
:10A8D00094F824A0BAF1010F14D0BAF1010FD4F802
:10A8E00020B0E7618DF8078020D084F81990D5F862
:10A8F0003031A28801360F33B242E361E8D80DB09F
:10A90000BDE8F08F206A58F013F8C30732D5D5F8A8
:10A910003031E2699B1A002BDADB94F824A0D4F8DA
:10A9200020B08DF80780BAF1010FDED10DF10703D9
:10A9300002A958460293CDE9037ACDE90677CDE91D
:10A9400008778DF814A08DF828A00B9715F02AFB36
:10A95000DBF8000057F0E8FF94F8243084F819A0E1
:10A96000012BC4D17204206AD20AD82158F09EFB70
:10A97000BDE7704794F824A0AFE700BFCC160120D4
:10A9800070B51D4D95F82B3423B1D5F82C34C3F395
:10A990000A0303B170BDD5F83064184BF60A0446BB
:10A9A000DE6794F82430012B0FD00022E261012BE6
:10A9B00019D0D5F83031D5F82C24C5F8302402331D
:10A9C0000021E36185F82B1470BD206A57F0B0FFB9
:10A9D000C3070ED5D5F83031E2699B1A002BE0DBB6
:10A9E00094F82430E3E7206A3246102158F05EFBE9
:10A9F000DFE794F82430D8E7CC16012000000120CE
:10AA000070B52C4D826295F82B3423B1D5F82C34D7
:10AA10008B4205D170BDC5F82C14C5F8301470BD3B
:10AA2000044694F82410012929D00023E361206A08
:10AA3000062258F085FB0123D5F83064637694F83C
:10AA40002430012B0BD00022012BE26125D0D5F858
:10AA5000303100220233E36185F82B2470BD206A77
:10AA600057F066FFC3071ED5D5F83031E2699B1A4F
:10AA7000002BE4DB94F82430012BE8D10DE0206AB0
:10AA800057F056FFC20711D5D5F83031E2699B1A4D
:10AA9000002BC6DB94F82410C9E7206AF20A1021C3
:10AAA00058F004FBD3E794F82430CCE794F8241052
:10AAB000BBE700BFCC16012010B582B0044601925E
:10AAC000049A0093FFF79CFF6A4601A92046FFF70E
:10AAD000E9FD2046FFF754FF02B010BD70B5194DD7
:10AAE00095F82B3403B970BDD5F83064164BF60ACF
:10AAF0000446DE6794F82430012B0BD00022E2617B
:10AB0000012B15D0D5F8303100220233E36185F8EE
:10AB10002B2470BD206A57F00BFFC3070ED5D5F864
:10AB20003031E2699B1A002BE4DB94F82430E7E72C
:10AB3000206A3246102158F0B9FAE3E794F824303D
:10AB4000DCE700BFCC160120000001201C481D4A94
:10AB50001D4938B5121A5BF0EFFC1C481C4A1D4910
:10AB6000121A5BF0E9FC1C4A1C49D2F8883043F405
:10AB70007003C2F888300B6843F001030B600B6868
:10AB80009B07FCD58B68154A6FF301038B609368B4
:10AB900013F00C0FC3F38101F9D1916013680E48D3
:10ABA0000F4D23F0867323F4803313604FF41F049A
:10ABB0004FF000635560C2F8A010D460836038BDC8
:10ABC00000000010703D001018A60708703D00102E
:10ABD000B03F0010F304080800ED00E00038024028
:10ABE00002300300BFF34F8F0549064BCA6802F4D9
:10ABF000E0621343CB60BFF34F8F00BFFDE700BFA0
:10AC000000ED00E00400FA0508B572B6FFF7EAFFB0
:10AC100010B582B00D4A0023009300920099096894
:10AC2000012901D002B010BD09490193CA24532063
:10AC300001924C624862019C064A2360FF204862F0
:10AC4000136883F3088853689847FEE75C28004040
:10AC5000002800400000FF1F70B5944884B050F0F9
:10AC6000FDF8934A934B1169012060F302011161D1
:10AC7000196E02F5E43260F30101196613680343AB
:10AC8000136013689907FCD593688B496FF3010330
:10AC900093608B6813F00C0FC3F38102F9D10B683A
:10ACA000864C23F0867323F480334FF41F000B602F
:10ACB0008A604C60C1F8A020C8600B68804A43F4E9
:10ACC00080330B60D2F800389B0307D44FF4405315
:10ACD000D2F800188E0301D4013BF9D1D2F8003824
:10ACE0009D03EFD57449764A0B6843F001030B606E
:10ACF000D2F800389C07FBD56F4B71495A6842F473
:10AD000080025A605A68482464F38E125A605A6866
:10AD1000012060F303025A605A6860F312425A60DD
:10AD20001A6842F080721A60D1F800389801FBD599
:10AD3000614B9A686FF307129A609A68042161F375
:10AD40004F329A609A6861F38C229A60D3F8A420FB
:10AD500042F03002C3F8A4209A68022060F3010296
:10AD60009A609A68C2F38102022AFAD1D3F8A42029
:10AD70006FF30512C3F8A420D3F8A4200B2161F3CC
:10AD80000F32C3F8A420D3F8A0206FF34D32C3F8DC
:10AD9000A0209A6812F00C0FC2F3810161D0022941
:10ADA0006CD0484D484BC5F88030434A47499068BD
:10ADB000D5F88030464C474EC0F303100144464856
:10ADC00091F8FC14CB40C5F88030E3684FF6FF01E2
:10ADD0000B4043F0052343F47A03E360536FC6F856
:10ADE000343437493D4BA360D1F8343823F0004365
:10ADF000C1F83438536F43F08073536750F02EF826
:10AE000068464FF0BBFF009B354A3648A2FB032340
:10AE1000D4F8FC209B0C42F08072C4F8FC20C6F8E9
:10AE200038344FF06042304BC2F8B00F0021596007
:10AE30001A6842F001021A60D5F880302B4AA2FB52
:10AE400003239B09013BB3F1807F08D24FF0E0223E
:10AE5000F0205361072384F823009161136104B04B
:10AE600070BDD3F8A020174D52049BD5D3F8A03065
:10AE7000DB0497D51E4BC5F8803096E75A685A68B0
:10AE8000596858680F4D104CC2F38813C0F3024044
:10AE9000184A125C01F00F0104FB03F312FB01F2EC
:10AEA000B3FBF2F3C5F880307FE700BF1C00400021
:10AEB00000700040003C02400038024002300300B5
:10AEC000003002400000012000127A00A46606084B
:10AED00000ED00E0CC1601201F003000000000084B
:10AEE00083DE1B4355CEACC5001000E0D34D62108D
:10AEF000006CDC02B01007082F4B98423AD0B0F13A
:10AF0000804F3ED0A3F57C4398423ED003F580634A
:10AF100098423CD003F5806398423AD003F58063B1
:10AF2000984238D003F58063984236D003F57043D9
:10AF3000984234D003F57053984232D003F58063C1
:10AF4000984230D003F5806398422ED0A3F5983311
:10AF500098422CD003F58063984214D003F58063A7
:10AF6000984226D003F59633984208BF0E2202D0AD
:10AF7000002070470022114B03EBC20393F8100529
:10AF800070470122F7E70C22F5E70222F3E70322DC
:10AF9000F1E70422EFE70522EDE70622EBE70722BF
:10AFA000E9E70822E7E70922E5E70A22E3E70B22BF
:10AFB000E1E70D22DFE700BF00000140A4660608BC
:10AFC00010B5574C0368D4F88000B0FBF2F001399B
:10AFD00089B20138D96298625A69524942F0010235
:10AFE0005A611A686FF309221A601A686FF3061221
:10AFF0001A601A688B4242F001021A603ED0B3F127
:10B00000804F72D0484A934273D002F580629342D7
:10B0100071D002F5806293426FD002F58062934254
:10B020006DD002F5806293426BD002F5704293427C
:10B0300069D002F57052934267D002F58062934264
:10B0400065D002F58062934263D0A2F598329342B4
:10B0500061D002F58062934249D002F5806293424A
:10B060005BD002F59632934208BF0E2107D0012231
:10B07000BDE81040114600204FF0F2BD00212B4BDF
:10B0800003EBC103012293F8114593F91105114611
:10B090004FF0E6FD1B2C00D010BD254BDA68C2F343
:10B0A0000222C2F10700042802F1040328BF042091
:10B0B000062B12D800210A464FF0FF338340DB43B2
:10B0C00003F0010393400B431A4A1B01DBB282F8E1
:10B0D00019334FF00073136010BD033A4FF0FF3186
:10B0E0009140C94301F00101E6E70121C7E70C21C6
:10B0F000C5E70221C3E70321C1E70421BFE705211A
:10B10000BDE70621BBE70721B9E70821B7E7092119
:10B11000B5E70A21B3E70B21B1E70D21AFE700BF87
:10B12000000001200000014000040040A466060861
:10B1300000ED00E000E100E0F0B50468534DB5EB30
:10B14000942F4FEA94230CD3B3F5801F71D3A3F54A
:10B150008013013B022B00F29480DFE803F07F6B49
:10B160006F004B4DAB426DD00135AB4261D14FF01A
:10B17000050C4FF4807543790CEB8C0E013BD8B273
:10B180000CEB4E0E8644434800296BD0E76802263C
:10B1900006FA03F300EB8E063B43C6F84014C6F8EC
:10B1A0005024B646E360EFF31181502383F31288F5
:10B1B0002C2202FB0C02D2F83C34002B4BD0C2F8FC
:10B1C000603404332C2202FB0C02D2F850541DB11F
:10B1D0001D60D2F8503404332C2202FB0C02D2F84A
:10B1E00054541DB11D60D2F8543404332C2202FB98
:10B1F0000C02D2F858541DB11D60D2F858340433F3
:10B200002C2202FB0C02D2F85C541DB11D60D2F856
:10B210005C3404330022C9B21A6081F311882C23F4
:10B2200003FB0C00D0F8603483B9E36823F001031A
:10B23000E360F0BD4FF0030CA8259CE74FF0040C31
:10B24000D42598E74FF0000C242594E7E36843F0F9
:10B250000103E360F0BD104B2B44B3E74FF0020C49
:10B260007C2588E7E668022707FA03F326EA03034A
:10B27000E36000EB8E039E46C3F84014C3F85024ED
:10B2800091E74FF0010C502575E700BF0300100057
:10B2900040001000CC160120081B01200149024883
:10B2A000FDF704BD081B01200000014002494FF0DA
:10B2B0008040FDF7FBBC00BF341B01200149024860
:10B2C000FDF7F4BC601B0120000400400149024866
:10B2D000FDF7ECBC8C1B012000080040014902482E
:10B2E000FDF7E4BCB81B0120000C00402DE9F04F35
:10B2F0004FF49A724048414C414D424E424FDFF864
:10B300001481DFF81491DFF814A183B000215BF001
:10B3100021F9DFF80CE1DFF80CC13C4800222BE0FA
:10B32000B3F1804F3ED0A34245D0AB4245D0B342AB
:10B3300045D0BB4245D0434545D04B4545D053450C
:10B3400046D033498B4246D001F580618B4245D0CF
:10B35000A1F598318B4244D001F580618B4242D0F7
:10B3600001F580618B4240D001F596318B423FD090
:10B370000832B2F5E07F12D05EF822306345CFD1BB
:10B380004FF0010B416C41EA0B014164436C083200
:10B3900003EA0B030093B2F5E07F009BECD103B00E
:10B3A000BDE8F08F0123016C19430164016C0B406F
:10B3B0000193019BDCE70223F5E70423F3E708236D
:10B3C000F1E71023EFE72023EDE74FF0020BD9E779
:10B3D0004FF4803BD6E74FF4003BD3E74FF4802B8C
:10B3E000D0E74023DFE78023DDE74FF48073DAE71F
:10B3F0004FF4801BC6E700BF081B0120000400407B
:10B4000000080040000C00400010004000380240DE
:10B41000004401400014004000040140004001408D
:10B42000286C0608000001400348D0F890300BB1AA
:10B4300084301847704700BF000001200348D0F84F
:10B44000B4300BB1A8301847704700BF000001208E
:10B450000348D0F8D8300BB1CC301847704700BF44
:10B46000000001200348D0F8FC300BB1F030184741
:10B47000704700BF000001200348D0F8203113B10D
:10B4800000F58A7018477047000001200348D0F883
:10B49000443113B100F59C7018477047000001203B
:10B4A0000348D0F8683113B100F5AE701847704703
:10B4B000000001200348D0F88C3113B100F5C070B2
:10B4C00018477047000001200348D0F8B03113B18D
:10B4D00000F5D27018477047000001200348D0F8EB
:10B4E000D43113B100F5E470184770470000012013
:10B4F0000348D0F8F83113B100F5F67018477047DB
:10B50000000001200348D0F81C3213B100F504708C
:10B5100018477047000001200348D0F8403213B1AB
:10B5200000F50D7018477047000001200348D0F85F
:10B53000643213B100F516701847704700000120FF
:10B5400010B501380B4C0C4B00EBC00004EB800431
:10B55000D4F8840098420CBF3620382054F0D0F93B
:10B56000D4F88420D2F8003143F00103C2F800314E
:10B5700010BD00BF0000012000640240F8B5013892
:10B58000124C00EBC00004EB80041E461048D4F8B7
:10B59000843083420CBF3620382015460F4654F0C5
:10B5A000AFF9D4F88400D0F8003143F00103C0F8BB
:10B5B000003194F99500C4F89070C5F30112A909FF
:10B5C000C4F89860BDE8F8404FF04ABB0000012085
:10B5D000006402402DE9F04F87B0B44BB44EB54D36
:10B5E000B54C02934FF000094F46DFF8E882DFF8D0
:10B5F000DCA20023B6EB982F01934FEA98232CD3BB
:10B60000B3F5801FC0F04181A3F58013013B022BED
:10B6100000F2A983DFE803F00C022E00A74B93F899
:10B620008135012B0CD0022B0AD04FF0040B36E0F1
:10B63000A24B93F88135012B02D0022B40F0658399
:10B64000019B0133082B019300F09A805AF8208F58
:10B65000B6EB982F4FEA9823D2D2AB4214D0A34234
:10B66000964B93F8813540F07583012BE8D04FF06D
:10B67000080B14E0914B93F88135012BE0D0022B9D
:10B68000DED04FF0050B0AE08C4B93F881B5BBF18F
:10B69000010F04D0BBF1020FD2D04FF0010B4FF0DD
:10B6A00001091FFA89F1584619F084FC19F038FD98
:10B6B000037813B1542B40F0178109F10109B9F156
:10B6C000050FEED137B34FF0000C784A0021906897
:10B6D000D0F800E0B6EB9E2F4FEA9E23C0F0CA8060
:10B6E000B3F5801FC0F0CF80A3F58013013B022B80
:10B6F00000F23483DFE803F0BC02B10004235B45B1
:10B7000000F0AF800131B94202F1AC02DFDBBCF1E5
:10B71000000F95D1DAF80C00694B002205E00132E8
:10B720000E2A03F10C0300F01B8359688842F6D1FE
:10B730009AF8051052B2404614F0BAFF61494268C7
:10B74000002384464868824200F0AB8001330E2B10
:10B7500001F12401F6D160464FF0FF335A4A03EB62
:10B76000C30302EB830393F89C30002B7FF468AF94
:10B77000029A836801995361544B03EB4113936020
:10B78000029B0137AC33042F02937FF42EAF504F4E
:10B7900007F6F42307F6E462BB464FF00108039274
:10B7A0009946D7F8002108F1FF339A4252DDDBF8C1
:10B7B0000C60002E00F0C9823068B58800F13F406F
:10B7C000B5FA85F500F57E00C5F11F030193800AE7
:10B7D000D7F8E047002C40F38F80344A002305E07F
:10B7E00001339C4202F1AC0200F084801168814276
:10B7F000F6D1019A2D49CBF80420AC2202FB0315A7
:10B80000CBF818505FFA88F216B1F2710322B271C8
:10B810005846FCF7CDFC97F80421002A5CD0019B28
:10B82000686F012202FA03F189B2FCF76DFC284629
:10B8300008F10108FCF738FD0123B8F1090F8BF876
:10B840001C308BF81D3089F811300BF1200B09F1F9
:10B850001809A6D107B0BDE8F08F05235B457FF43A
:10B8600051AF43799AF8050098427FF44BAFE7E671
:10B87000032344E7AB4204D0A3420CBF08230023B8
:10B880003DE701233BE7002339E70C4B93F8813573
:10B89000012B3FF4D5AE022B3FF4D2AE4FF0000B9C
:10B8A000FDE60133DBB26046013B57E79C470010E1
:10B8B000030010004000100041001000CC160120D1
:10B8C0007C0201208400012000000120287306086A
:10B8D000B03F001000040140019B686F01219940B6
:10B8E00089B2FCF711FCA2E74FF0010C002F7FF4A6
:10B8F000ECAEA5E6032C53DCAC2202FB0472D2F8BA
:10B90000F437002B00F01A82C2F8EC075421013002
:10B9100082F8950882F89418621CC7F8E0277C4AE0
:10B92000D96892F8952502929BF8102004927948E4
:10B93000002205E001320E2A00F10C0000F0108216
:10B940004568A942F6D159791868DFF8FCA152B2CE
:10B9500014F0AEFEAC22D0E9010302FB04725146A2
:10B96000C2F80038C2F8FC0700234A6890421CD095
:10B9700001330E2B01F12401F7D1674B93F87820A6
:10B98000A246002A00F0C9816449654A654BC7F8A0
:10B99000DC1AC7F8D82AC7F8E43A07B0BDE8F08F38
:10B9A0005B4A032382F89435EEE75A1CD2B25A4B15
:10B9B000013A02EBC20203EB8202AC2392F89C0034
:10B9C000059004FB03F3F9180546B1F89408002D1F
:10B9D000DAD1A2F89C005A1002EBA302C2EBC21209
:10B9E00002EB8232920102EBA3024F48520002EBBB
:10B9F000A302C5184D4B02EB420000EB00104FF0C4
:10BA00008C0C03EB8000039B0CFB02F203EB420265
:10BA10003368C1F8F037404BC1F880283322C1F8B1
:10BA20006008C1F884C8C1F86428D3F88010029B6C
:10BA3000062B00F07E81072BDFF810C13C4B3D4800
:10BA40003D4A05BF184662464FF0710C4FF01C0C82
:10BA5000B1FBF2F2B1FBF0F0511EAC2202FB04721A
:10BA600089B20138A2F86808A2F84818284602925C
:10BA7000C7F8BCCAFCF76AFCFDF786FF029AD2F849
:10BA8000FC070022DAF80430984202F1010200F0CB
:10BA90003F810E2A0AF1240AF4D14FF0FF3A1E4BDF
:10BAA00026490AEBCA0203EB82020292D2F8840012
:10BAB00088420CBF3620382053F022FF029AD2F879
:10BAC0008400D0F80011AC2241F0010102FB0472A5
:10BAD000C0F80011D2F8F4074279D0F800E0013A3A
:10BAE000D2B2032A9CBF164901EB42024FEACA03B5
:10BAF00098BFB2F8841D02934FF0AC0202FB0472AF
:10BB000088BF0021A2F8F8170E4B002227E000BFE3
:10BB1000CC1601207C020120000001206DF20108FA
:10BB200069F2010875F201089C470010644B00108F
:10BB30001055220044950800D0DD06000064024044
:10BB4000A46606084C4A00108400012040771B00C0
:10BB5000864500F0F8800132042A00F0108153F885
:10BB600032000028F4D1D7F8E8070130C7F8E80719
:10BB700007EBC200D200C0F89CEA1A440598B2F85C
:10BB800004C041EA0C0191802B467E499022FFF7C8
:10BB9000F5FC029A7C4B524403EB8202AC2101FB80
:10BBA0000474D2F8A420D4F80018106861F30600D9
:10BBB00010602A69116841F0020111604FF4807C25
:10BBC0004FF440731021A5F86CC0A5F87030A5F8AB
:10BBD0006810B4F864E8A5F86AE0D4F8F007022128
:10BBE00000F1180385F86E102B6610300290D4F81F
:10BBF000600885F86F106866059010684BF6EF7A5C
:10BC000000EA0A001060106840F010001060106830
:10BC100040F440501060106861F38B201060106891
:10BC200061F309201060116841F080011160116812
:10BC30006FF38611116011686FF34511116051683F
:10BC40006EF30F01516005999360D1601168E9614D
:10BC500051682962916869620020D168A9624FF435
:10BC60004073A5F89030A5F88CC0A5F88800B4F80A
:10BC700084C8029BA5F88AC0012185F88E10C5F8FA
:10BC80008030D4F8803885F88F101468C5F8843077
:10BC900004EA0A04146014681460146844F44054FC
:10BCA0001460146861F38B241460146861F3092430
:10BCB0001460116841F080011160116860F3861111
:10BCC0001160116860F34511116051686CF30F0148
:10BCD000516002989060D3601168E96251682963ED
:10BCE00091686963D168A9631168049B41F00201FE
:10BCF00011608BF81030019BCBF80430CBF80C604E
:10BD00005FFA88F2CBF818507FE54FF0030BC6E4DA
:10BD1000D3B2059303F1FF3AC1E6AC2202FB0A72EB
:10BD200092F8951892F8942883F8782083F879107F
:10BD30002AE61648164A4FF0380C89E6154A0223BF
:10BD400082F8943520E6D20017E74FF0FF330193D5
:10BD500018463DE5012B7FF49EAD71E40223CEE44D
:10BD600000235B68FFDE0B4B93F88135012B3FF41A
:10BD700067AC022B3FF464AC4FF0020B8FE400235E
:10BD80009B88FFDE398C000800000120882A110002
:10BD9000A0BB0D00CC160120284AD2F88C3399693B
:10BDA000C80509D54FF48071132082F8A003D9612A
:10BDB000196821F0800119609969890509D54FF446
:10BDC0000071132082F8A003D961196821F0800165
:10BDD00019609969480509D54FF48061132082F8EC
:10BDE000A003D961196821F08001196099690905DA
:10BDF00009D54FF40061132082F8A003D9611968B6
:10BE000021F0800119609969C80409D54FF4805167
:10BE1000132082F8A003D961196821F0800119600C
:10BE20009969890409D513204FF4005182F8A003C1
:10BE3000D9611A6822F080021A607047CC1601207E
:10BE40008A4BD3F8982310B4072A0DD8DFE802F004
:10BE5000484831310F0F0404D3F88C239169CC0684
:10BE600040F195801023D3615DF8044B7047D3F8FF
:10BE70008C239169C80657D51021D161116841F012
:10BE8000200111609169890701D5002191629169B2
:10BE9000CC0703D4916941F001019161B3F8962375
:10BEA00092B2002AE0D0112283F8A0235DF8044B5F
:10BEB0007047D3F88C239169CC0640F1BA80B3F86F
:10BEC00096339BB2002BCDD19169890748BF93620D
:10BED0009369DB07C6D4936943F001039361C1E71B
:10BEE000D3F88C239169C80600F19C8091698C0776
:10BEF00000F1F3809169080600F103819169490717
:10BF000000F1A880916911F0400100F0B380B3F80E
:10BF100096339BB2002BA7D153689B01A4D45368DE
:10BF200043F4804353609FE7916911F0800100F072
:10BF3000A180116821F040011160B3F8961389B215
:10BF4000002991D05068B3F896C31FFA8CF1FF29ED
:10BF5000C0F3090040F21381FF21A3F89413B3F852
:10BF600094C3434C516821405FFA8CFC014341EA81
:10BF70000C4141F080715160B3F8B433102B136859
:10BF80000CBF43F4804343F4004313606CE79169B2
:10BF900011F0080166D1906980067FF565AF202019
:10BFA000D061106820F0FE001060506861F3090055
:10BFB0005060506861F30C305060506861F3174076
:10BFC0005060506861F318605060506861F38A20D7
:10BFD00050609069840748BF91629169C80703D493
:10BFE000916941F0010191619169490716D5D3F832
:10BFF0009013526A481CC3F890030A70B3F8942354
:10C0000092B25AB1B3F89623013A92B2A3F89623AA
:10C01000B3F89423013A92B2A3F894230122C3F80F
:10C020009C2321E71021D161916989073FF52DAF4C
:10C030002DE79169080715D491698C0700F1858077
:10C04000916911F00401A6D0B3F8961389B20029C2
:10C050003FF40AAFD3F89013526A481CC3F8900318
:10C060000A7041E00823D361FEE600BFCC16012030
:10C07000009800FC906980067FF5F6AE2020D06124
:10C08000506861F309005060506861F30C305060F3
:10C09000506861F317405060506861F31860506059
:10C0A000506861F38A2050609169CC0644BF10212A
:10C0B000D1619169880744BF002191629169C907E4
:10C0C00003D4916941F0010191611168012021F0CF
:10C0D000F6011160C3F89C03C6E6D3F89013481C20
:10C0E000C3F8900309789162B3F89623013A92B2AB
:10C0F000A3F89623B3F89423013A92B2A3F89423B9
:10C10000B2E6B3F8941389B200297FF4ADAEB3F868
:10C11000961389B200293FF4A7AE5168B3F896038D
:10C1200080B2FF28C1F309013CD9FF20A3F8940392
:10C13000B3F89403244C53682340C0B20B4343EA42
:10C14000004343F0807353608EE6B3F8961389B2D0
:10C1500000293FF489AED3F89013481CC3F890032C
:10C1600009789162B3F89423013A92B2A3F8942328
:10C17000B3F89623013A92B2A3F8962374E6B3F883
:10C180009613114C89B2A3F89413B3F894C3516871
:10C1900021405FFA8CFC014341EA0C4141F00071FF
:10C1A0005160E9E6B3F89603074C80B2A3F8940314
:10C1B000B3F8940353682340C0B20B4343EA0043EF
:10C1C00043F0007353604FE6009800FCF0B482B077
:10C1D0008DF80730431C63D0022861DC8C4D5C2352
:10C1E00003FB0053D3F83043002C5DD04FEA410CE1
:10C1F0000DF10701C3F834130221A3F83A1300210B
:10C2000083F8441342F21173A1690F0429D45C230B
:10C2100003FB0053B3F83A1389B2FF296DD9FF210C
:10C22000A3F83813B3F838337A4E6168DBB24CEABE
:10C23000034331400B4343F0807343F40053636086
:10C24000A1698E0742F2117335D4A169C9062DD5B3
:10C250005C23102203FB0053E261112283F8442384
:10C2600007E0013BD0D15C2303FB0053122283F88B
:10C27000442340F67103A269920607D4013BFAD128
:10C280005C2303FB0050122380F844332023E36136
:10C29000B5F8963501339BB20020A5F8963500E03D
:10C2A000002002B0F0BC70472046FAE7013BDAD02C
:10C2B000A1698E07C9D55C2303FB0053A262B3F8C2
:10C2C0003823013A92B2A3F83823B3F83A23013A5B
:10C2D00092B2A3F83A23B3F83A2392B2002A40D09C
:10C2E0004C4AFF2142F21176A769BF0719D4A7690A
:10C2F000FF06ADD4013EF7D1B5E7B3F83A13454E8A
:10C3000089B2A3F83813B3F838336168DBB24CEA6A
:10C31000034331400B4343F0007343F40053636025
:10C320008EE7D3F83463771CC3F834733678A6628B
:10C33000B3F83863013EB6B2A3F83863B3F83A6392
:10C34000013EB6B2A3F83A63B3F83863B6B21EB989
:10C35000B3F83A63B6B246BBB3F83A63B6B2002E4E
:10C36000C0D142F21173A269960606D4A269D10621
:10C370003FF56EAF013BF6D175E72023E3616368BB
:10C380006FF30903636063686FF30C336360636882
:10C390006FF31743636063686FF3186363606368E8
:10C3A0006FF38A23012063607BE742F21176A7696D
:10C3B0003F0606D4A769FF063FF54AAF013EF6D116
:10C3C00051E7B3F83A63B6B2FF2E0ED9A3F838138B
:10C3D000B3F83863F7B26668164046EA0C0646EAD8
:10C3E000074646F080766660B6E7B3F83A63B6B2C1
:10C3F000A3F83863B3F83863F7B26668164046EAC4
:10C400000C0646EA074646F000766660A4E700BFE1
:10C41000CC160120009800FCF8B5B24D05EB0017D2
:10C42000D7F89835002B00F0C9800446060197F82C
:10C43000A20553F065FA97F8A23503F01F025B09D5
:10C440000121013B01FA02F2042B0BD8DFE813F0C3
:10C45000DF000500E500EB00F100A34B596921EA7C
:10C4600002025A61AB19013493F89C0514F0CCFC1C
:10C47000E4B2074610B112238371C471AB1993F86B
:10C480009D0514F0C1FC10B11323C4718371AB1965
:10C4900093F89E0514F0B8FC10B11423C471837195
:10C4A000AC19262194F89F25384614F0FFFA94F829
:10C4B0009D0514F0A9FC94F8A025262114F0F6FAA5
:10C4C00094F89E0514F0A0FC94F8A125062114F020
:10C4D000EDFAD4F89835854A934200F0C880844A32
:10C4E000934200F0AC80834A934200F0E580824A98
:10C4F000934200F0EC803544804AD5F8983559686D
:10C5000041F002015960596841F001015960D9694F
:10C510006FF3CB21D96192F8241300295ED11868FA
:10C5200061F3CF301860186861F38E3018601868B6
:10C5300061F38A201860196892F82B4364F349214B
:10C54000196092F82503196801285AD06FF3082161
:10C550001960196860F38201196092F8261307299F
:10C560002DD858686FF34920586058686FF3082039
:10C570005860186861F3C5001860196892F827437D
:10C5800064F3C7111960196892F8284364F3CB214A
:10C590001960196892F8294364F341011960196818
:10C5A00092F82A2362F3000119601A69072060F3E8
:10C5B0000F021A611A6842F040021A60F8BD0A2997
:10C5C0006DD058686FF349205860586840F4807007
:10C5D0005860186861F3C5001860CEE7012951D092
:10C5E000022937D00329A6D1196841F40041196006
:10C5F000196841F48041196019686FF38A21196044
:10C6000099E7012CA2D141F480711960A1E7364B62
:10C61000196921EA02021A6124E7334B996921EA78
:10C6200002029A611EE7304B596A21EA02025A62FD
:10C6300018E72D4B196A21EA02021A6212E7304804
:10C640004EF00CFC2F4AD2F8203823F48043C2F875
:10C65000203850E7196841F40041196019686FF3F8
:10C660008E31196019686FF38A21196063E72648D3
:10C670004EF0F4FB234AD2F8243823F48053C2F856
:10C68000243838E719686FF3CF31196019686FF3F0
:10C690008E311960196841F4806119604BE759685F
:10C6A00041F40071596059686FF3082159601968A5
:10C6B0006FF3C501196060E714484EF0CFFB114AD3
:10C6C000D2F8203823F40043C2F8203813E710488A
:10C6D0004EF0C4FB0B4AD2F8243823F40053C2F8BE
:10C6E000243808E7CC160120003802400030014011
:10C6F00000380040003C00400034014000000120B0
:10C700000E002000003002400C0024000F0020002A
:10C710000D00240082690023102110B4D36013821D
:10C720009160416844690C31C2E900132CB1C269BF
:10C73000C2E90133D360138211605DF8044B704786
:10C7400070B40468D4E904215368002900F0918092
:10C750004861157C16684A68022000FA05F545F024
:10C760000C0575600D7C0968A84040F00C0048601D
:10C7700019686FF30001196011686FF3000111600F
:10C780001068A16940F0020010601D684BF6EF7C54
:10C7900005EA0C051D6018680D8905431D601868C1
:10C7A0004D7C65F30D3018601868CD7B65F38B20E8
:10C7B000186018688D7B65F3092018604D7B186838
:10C7C00065F3C71018600D7B186865F38610186054
:10C7D00018680D7C65F34510186058684D8965F33D
:10C7E0000F005860086849689860D9601068E1696E
:10C7F00000EA0C0010601568088928431060106872
:10C800004D7C65F30D3010601068CD7B65F38B2097
:10C8100010608D7B106865F3092010604D7B1068F7
:10C8200065F3C71010600D7B106865F3861010600B
:10C8300010680D7C65F34510106050684D8965F3F4
:10C840000F005060D1E900019060D160196841F09B
:10C8500001011960136843F00103136063685A68AB
:10C8600042F001025A605A6842F002025A6070BCFB
:10C870007047157C506110680222AA4042F00C02F9
:10C8800042601A6861F300021A601968A2694BF6E7
:10C89000EF70014019601868118901431960196827
:10C8A000507C60F30D3119601968D07B60F38B21E7
:10C8B00019601968907B60F3092119601968507B31
:10C8C00060F3C71119601968107B60F38611196055
:10C8D0001968107C60F3451119605089596860F33C
:10C8E0000F015960D2E900129960DA601A6842F0CB
:10C8F00001021A601A68616842F002021A604B680D
:10C9000043F002034B6070BC704700BFF8B50546AA
:10C910002C6895F838706368012284F824201A681E
:10C920006FF386121A60A8882289824219D0B0F566
:10C93000807F0246A8BF4FF48072022AB8BF02224D
:10C940001968002A92FAA2F2B2FA82F208BF4FF0F6
:10C95000FF32013A21F0380141EAC20292B21A6074
:10C9600020812A7BA17A91420AD01968002A72D0CC
:10C970006FF34101196019686FF300011960A27229
:10C980001A6842F040021A60216A8A68002A78D048
:10C9900000200646143116448A680130002AF9D175
:10C9A000227B62B15FB1012871D8072E6FD800EBEE
:10C9B00080029200216A0A44127B002A67D0226A10
:10C9C00092680026002A4FD00EB1327B22B1AA68AD
:10C9D00012B1116892888A62226A1768226A5168C5
:10C9E000226A926802F1FF3C92B117B33A4612F8FC
:10C9F000010B17469A689207FCD5D8609A68D2074F
:10CA0000FCD5DA6809B101F8012BBCF1010CECD2BC
:10CA1000236A1B7BC3B9236A1B6963B1236A686CF1
:10CA20001B69984701280AD0022804D100232362F9
:10CA3000F8BDFF20DEE7266A236A14332362236AE7
:10CA40009B688BB16368BFE7AB68002BE3D01A68C3
:10CA50009B889361DFE741F002011960196841F09A
:10CA600001011960A2728BE7236A1B68002B32D088
:10CA7000236A1D68236A5968236A216200221A60AA
:10CA800046E7217B00299AD0002F93D197E7216AAE
:10CA9000A3698A680868B8B158600120587392B2D7
:10CAA0005A812B685B6933B14968E369A9B10120F8
:10CAB000596058735A81AB6813B11A689B889362A6
:10CAC0002846BDE8F8403BE658730648FF2600F8C4
:10CAD000346F5860E3E72362F8BD03485860597328
:10CAE000E8E700BF703D0010A83D001038B5D0F851
:10CAF00090102C4B04465A68D0F8880071B1131A74
:10CB000099420BDC94F88030C4F88820012B10D0B7
:10CB1000D4F884300133C4F8843038BDD4F894306C
:10CB2000C4F888200344C4F88C3094F88030012B7A
:10CB3000EED16168201D04F19805EFF3118C1023EC
:10CB400083F3128863681B6A0BB3D4F8A0302A46BB
:10CB50001BB1D3691432002BFBD10B6AFBB199686E
:10CB600039B9934209D0196829B15B6899680029DD
:10CB7000F7D01433F3E7C3E900055FFA8CFC8CF3BC
:10CB80001188D4F884300133C4F8843038BD0D6284
:10CB90005FFA8CFC8CF31188FFF7B8FEB8E71860D9
:10CBA000FFDE00BF001000E02DE9F041826992F83D
:10CBB0008C30012B8AB005464AD0023B012B51D85C
:10CBC00092F8FC30D26C2F4C63F07F0313708669AF
:10CBD000336DD6F8108003F1010E0FCCEC46ACE8B3
:10CBE0000F00F36CCDE9003E0FCCACE80F0094E8E9
:10CBF000030006F110078CE80300EFF31180102307
:10CC000083F3128833691B6A002B2FD0029B6A467C
:10CC10001BB1D3691432002BFBD1D8F82030002B84
:10CC20002DD0996839B993420AD0196829B15B6847
:10CC300099680029F7D01433F3E71F60C3F804D0D4
:10CC4000C0B280F31188AA6911690B6A002BFCD16C
:10CC5000136D5A8852BAEA819A8852BA2A82DB88BE
:10CC60005BBA6B8201200AB0BDE8F081C8F820D021
:10CC7000C0B280F311883846FFF748FEE3E71F6033
:10CC8000FFDE00BF307406082DE9F04190F88C30CB
:10CC9000056D012B8AB0044655D015D8C36C4FF0F2
:10CCA000FF321A605A609A60DA60D0F8903005223C
:10CCB000B3F57A7FC0F8A0207AD8032380F88C30AF
:10CCC00001200AB0BDE8F081023B012BF8D890F8B2
:10CCD000FD30C26C504E63F07F031370036DD0F8CB
:10CCE000108003F1010E00F110070FCEEC46ACE806
:10CCF0000F00E36CCDE9003E0FCEACE80F0096E8E4
:10CD000003008CE80300EFF31180102383F31288F3
:10CD100023691B6A002B70D0029B6A461BB1D36942
:10CD20001432002BFBD1D8F82030002B72D0996838
:10CD300039B9934225D0196801B35B689968002915
:10CD4000F7D01433F3E790F8FC2090F8FD309B1AED
:10CD50005B100133DBB205EB430235F813305BBAED
:10CD6000A0F8803053885BBAA0F8823093885BBA11
:10CD7000A0F8843001200AB0BDE8F0811F60C3F83C
:10CD800004D0C0B280F311882269136A002BFCD151
:10CD90006B885BBAA4F88030AB885BBAA4F88230A9
:10CDA000EB8801205BBAA4F884300AB0BDE8F081BA
:10CDB00003691A7B52B35B6943B390F848302BB3D5
:10CDC00090F8FC30C26C606563F07F03137090F8DC
:10CDD000FC1090F8FD30026D1048C4F8B4005B1AE6
:10CDE00007330121C4F8AC30E36C84F8B0100A4476
:10CDF000C4E9293284F88C1062E7C8F820D0C0B2A8
:10CE000080F311883846FFF781FDBDE7022384F8DF
:10CE10008C3055E71F60FFDE307406087983000808
:10CE200038B504462549D0F8883094F88020D0F8E9
:10CE3000940049680344012AC4E9221305D0D4F8B8
:10CE400084300133C4F8843038BD6168201D04F19A
:10CE50009805EFF3118C102383F3128863681B6A23
:10CE60000BB3D4F8A0302A461BB1D3691432002B7F
:10CE7000FBD10B6AFBB1996839B9934209D01968A3
:10CE800029B15B6899680029F7D01433F3E7C3E947
:10CE900000055FFA8CFC8CF31188D4F884300133E0
:10CEA000C4F8843038BD0D625FFA8CFC8CF31188B5
:10CEB000FFF72CFDC3E71860FFDE00BF001000E0A5
:10CEC000F0B5826992F88C30012B8BB0054644D0C6
:10CED000023B012B4BD8D36C2C4C8C221A708669E8
:10CEE0000FCCEC46D6F810E0ACE80F00F36C0093E2
:10CEF000336D01930FCCACE80F0094E8030006F10A
:10CF000010078CE80300EFF31180102383F31288DD
:10CF100033691B6A002B2DD0029B6A461BB1D36973
:10CF20001432002BFBD1DEF8203063B3996839B995
:10CF300093420AD0196829B15B6899680029F7D033
:10CF40001433F3E71F60C3F804D0C0B280F3118834
:10CF5000AA6911690B6A002BFCD1136DB3F9022089
:10CF6000EA81B3F904202A82B3F906306B820120EA
:10CF70000BB0F0BDCEF820D0C0B280F31188384697
:10CF8000FFF7C4FCE4E71F60FFDE00BF587406082B
:10CF90002DE9F04390F8CE30032B8BB004466CD0D3
:10CFA00090F88C30076D012B00F0C98015D8C36C48
:10CFB00000221A605A609A609A81D0F89030052257
:10CFC000B3F57A7FC0F8A0204AD80323012580F862
:10CFD0008C3028460BB0BDE8F083023B012B47D8CC
:10CFE000C36CDFF89C8292221A70D0F8109000F186
:10CFF0001006B8E80F006D46AC46ACE80F00B8E884
:10D000000F00ACE80F0098E80300E36C8CE8030025
:10D010000093236D0193EFF31180102383F31288A3
:10D0200023691B6A002B00F01781029B2A461BB163
:10D03000D3691432002BFBD1D9F82030002B00F03B
:10D040001481996851B99A4200F09D8019680029AD
:10D0500000F097805B6899680029F4D01433F0E7FA
:10D0600003691A7B002A40F0D880022384F88C30B0
:10D07000012528460BB0BDE8F0837D4901F10C0085
:10D0800000230122CDE900100A210291CDE90433E9
:10D09000CDE9063321698DF80C2004F110068DF8D6
:10D0A00020200993EFF31180102383F31288236962
:10D0B0001B6A002B00F0A080029B6D462A461BB124
:10D0C000D3691432002BFBD10B6A002B00F0CD800A
:10D0D000996839B9934209D0196829B15B68996890
:10D0E0000029F7D01433F3E7C3E90065C0B280F339
:10D0F00011882269136A002BFCD15E49B1F84A20DD
:10D10000052A1ADDB1F94C00CD6CB1F94E70B1F9B8
:10D11000501010F5004F78D0C4F88050A4F8841057
:10D120000125063A002AA4D03046B0227E2111F013
:10D13000BDFF28460BB0BDE8F0831D46F2E74E4B1D
:10D14000B98993F92A34B7F9082013FB01F3002BAE
:10D15000B8BF03F2FF13A2EB6323B3F5004F43DB29
:10D1600047F6FF73A0F88030B7F90A30A4F8823090
:10D17000B7F90C30A4F88430012528460BB0BDE87F
:10D18000F083C3E90065C0B280F311882269136A95
:10D19000002BFCD1384BF98893F92A34B7F90220D7
:10D1A00013FB01F3002BB8BF03F2FF13A2EB6323C1
:10D1B000B3F5004F10DB47F6FF73A4F88030B7F9E2
:10D1C0000430A4F88230B7F90630A4F88430012581
:10D1D00028460BB0BDE8F08313F5004FB8BF4FF4FD
:10D1E0000043A4F88030EAE713F5004FB8BF4FF4CE
:10D1F0000043A0F88030B7E7C1F820D0C0B280F378
:10D2000011883046FFF782FB73E717F5004F83D193
:10D2100011F5004F80D11D4683E75B69002B3FF479
:10D2200024AF90F84850002D3FF41FAFC36C6065E9
:10D230008C221A70026DC0F8A8200E2201230F491B
:10D24000C0F8AC20C26CC0F8B410C0F8A42080F8BC
:10D25000B03080F88C300CE7C9F82050C0B280F3B1
:10D2600011883046FFF752FB90E71E60FFDE00BFDB
:10D27000AC3D0010703D0010CC160120FD88000868
:10D280005874060838B504462549D0F8883094F813
:10D290008020D0F8940049680344012AC4E922138D
:10D2A00005D0D4F884300133C4F8843038BD6168C7
:10D2B000201D04F19805EFF3118C102383F31288DD
:10D2C00063681B6A0BB3D4F8A0302A461BB1D3693C
:10D2D0001432002BFBD10B6AFBB1996839B9934228
:10D2E00009D0196829B15B6899680029F7D014330F
:10D2F000F3E7C3E900055FFA8CFC8CF31188D4F8DE
:10D3000084300133C4F8843038BD0D625FFA8CFC80
:10D310008CF31188FFF7FAFAC3E71860FFDE00BF4D
:10D32000001000E02DE9F043826992F88C30012B67
:10D330008BB0054657D0023B012B50D8D36C374CED
:10D34000A8225A708669F36CD6F8109003F1010890
:10D35000336D5F1C0FCCEC46ACE80F000FCCACE893
:10D360000F0094E80300CDE900878CE8030006F184
:10D37000100EEFF31180102383F3128833691B6AB8
:10D38000002B3ED0029B6A461BB1D3691432002B9E
:10D39000FBD1D9F82030002B3CD0996839B99A429A
:10D3A0000BD0196829B15B6899680029F7D014334C
:10D3B000F3E7C3F800E0C3F804D0C0B280F31188EB
:10D3C000A9690A69136A002BFCD10B6DB3F902201D
:10D3D000EA81B3F904202A82B3F906306B82012076
:10D3E0000BB0BDE8F083136DB3F90820C281B3F927
:10D3F0000A200282B3F90C30438201200BB0BDE851
:10D40000F083C9F820D0C0B280F311887046FFF7CE
:10D410007DFAD5E7C3F800E0FFDE00BF58740608C8
:10D420002DE9F04390F88C30056D012B8BB004464C
:10D430005DD014D8C36C00221A605A609A609A8139
:10D44000D0F890300522B3F57A7FC0F8A0205ED8DE
:10D45000032380F88C3001200BB0BDE8F083023B41
:10D46000012BF8D8C36C404EA2225A70C36CD0F87E
:10D47000109003F10108036D00F1100703F1010E94
:10D480000FCEEC46ACE80F000FCEACE80F0096E8EC
:10D490000300CDE9008E8CE80300EFF31180102328
:10D4A00083F3128823691B6A002B4ED0029B6A46C5
:10D4B0001BB1D3691432002BFBD1D9F82030002BDB
:10D4C00050D0996839B993420AD0196829B15B687C
:10D4D00099680029F7D01433F3E71F60C3F804D02C
:10D4E000C0B280F311882269136A002BFCD1B5F910
:10D4F0000230A4F88030B5F90430A4F88230B5F9D0
:10D500000630A4F8843001200BB0BDE8F083036935
:10D510001A7B1AB35B690BB390F84830F3B1C36C54
:10D520006065A2225A70D0E9132301210F48C4F884
:10D53000B4000D250A440B44C4E92923C4F8AC50B7
:10D5400084F8B01084F88C1085E7C9F820D0C0B2F8
:10D5500080F311883846FFF7D9F9C4E7022384F82D
:10D560008C3078E71F60FFDE3074060829890008D8
:10D5700038B504462549D0F8883094F88020D0F892
:10D58000940049680344012AC4E9221305D0D4F861
:10D5900084300133C4F8843038BD6168201D04F143
:10D5A0009805EFF3118C102383F3128863681B6ACC
:10D5B0000BB3D4F8A0302A461BB1D3691432002B28
:10D5C000FBD10B6AFBB1996839B9934209D019684C
:10D5D00029B15B6899680029F7D01433F3E7C3E9F0
:10D5E00000055FFA8CFC8CF31188D4F88430013389
:10D5F000C4F8843038BD0D625FFA8CFC8CF311885E
:10D60000FFF784F9C3E71860FFDE00BF001000E0F9
:10D610002DE9F043826992F88C30012B8BB00546DE
:10D6200057D0023B012B50D8D36C374CA8225A70EC
:10D630008669F36CD6F8109003F10108336D5F1C16
:10D640000FCCEC46ACE80F000FCCACE80F0094E830
:10D650000300CDE900878CE8030006F1100EEFF31C
:10D660001180102383F3128833691B6A002B3ED08C
:10D67000029B6A461BB1D3691432002BFBD1D9F847
:10D680002030002B3CD0996839B99A420BD01968E8
:10D6900029B15B6899680029F7D01433F3E7C3F820
:10D6A00000E0C3F804D0C0B280F31188A9690A6908
:10D6B000136A002BFCD10B6DB3F90220EA81B3F998
:10D6C00004202A82B3F906306B8201200BB0BDE83A
:10D6D000F083136DB3F90820C281B3F90A200282E6
:10D6E000B3F90C30438201200BB0BDE8F083C9F8D8
:10D6F00020D0C0B280F311887046FFF707F9D5E754
:10D70000C3F800E0FFDE00BF587406082DE9F043BF
:10D7100090F88C30056D012B8BB004465DD014D889
:10D72000C36C00221A605A609A609A81D0F89030D7
:10D730000522B3F57A7FC0F8A0205ED8032380F8D5
:10D740008C3001200BB0BDE8F083023B012BF8D8F0
:10D75000C36C404EA2225A70C36CD0F8109003F1F3
:10D760000108036D00F1100703F1010E0FCEEC4626
:10D77000ACE80F000FCEACE80F0096E80300CDE94F
:10D78000008E8CE80300EFF31180102383F31288DE
:10D7900023691B6A002B4ED0029B6A461BB1D369DA
:10D7A0001432002BFBD1D9F82030002B50D09968CF
:10D7B00039B993420AD0196829B15B689968002980
:10D7C000F7D01433F3E71F60C3F804D0C0B280F37E
:10D7D00011882269136A002BFCD1B5F90230A4F834
:10D7E0008030B5F90430A4F88230B5F90630A4F8D9
:10D7F000843001200BB0BDE8F08303691A7B1AB3B3
:10D800005B690BB390F84830F3B1C36C6065A2223A
:10D810005A70D0E9132301210F48C4F8B4000D2534
:10D820000A440B44C4E92923C4F8AC5084F8B0106E
:10D8300084F88C1085E7C9F820D0C0B280F3118835
:10D840003846FFF763F8C4E7022384F88C3078E7A2
:10D850001F60FFDE307406085589000870B5954CCE
:10D8600094F8D835012B92B000F0DF80022B00F045
:10D87000D180002B00F08F808F4DD4F8DC1595F807
:10D880002C335B064CBF4FF4F0734FF4C37302AEFE
:10D890000022A5F82E330123CDE90622CDE9082286
:10D8A00085F830338DF814308DF828300392834B8F
:10D8B0000B92834A5A6502F102129A6502F1021232
