:020000040800F2
:10000000F0FF0220E53A05082D3B0508F1B601088E
:100010002D3B05082D3B05082D3B05080000000081
:100020000000000000000000000000002D3B05085B
:100030002D3B0508000000002D3B0508C18D01087F
:100040002D3B05082D3B05082D3B05082D3B0508DC
:100050002D3B05082D3B0508D5AE0008DDAE000898
:10006000E5AE0008EDAE0008F5AE00082D3B050832
:100070002D3B05082D3B05082D3B05082D3B0508AC
:100080002D3B05082D3B05082D3B05082D3B05089C
:100090002D3B05082D3B05082D3B0508FDAE00084E
:1000A0002D3B05082D3B05082D3B0508EDD5000827
:1000B000FDD500080DD600081DD6000809A40008CB
:1000C000FDA3000851A4000845A400082D3B050825
:1000D0002D3B0508898601085987010829880108F0
:1000E00005AF00082D3B05082D3B05082D3B0508F5
:1000F0002D3B05082D3B05082D3B05082D3B05082C
:100100002D3B05082D3B05082DD600082D3B050885
:10011000F9880108C98901082D3B05082D3B050810
:10012000BDAB0008D1AB0008E5AB0008F9AB000897
:100130000DAC00082D3B05082D3B05082D3B05089F
:100140002D3B05082D3B05082D3B0508F1D0000887
:1001500021AC000835AC000800000000998A0108B5
:1001600099A400088DA40008000000000000000011
:100170002D3B05082D3B05082D3B05080000000020
:10018000000000002D3B0508698B0108398C01082F
:100190002D3B0508000000000000000000000000EA
:1001A0000000000000000000000000002D3B0508DA
:1001B0002D3B0508000000002D3B05080000000055
:1001C000000000000000000000000000000000002F
:1001D00000000000000000002D3B05082D3B050835
:1001E0002D3B050805D000082D3B05082D3B0508D3
:1001F00049AC00085DAC000871AC000885AC000893
:0C02000099AC0008ADAC0008C1AC0008CF
:1080000030B5EAB18E464FEA014C034600F1C00597
:10801000002419689A6841EA0C0142EA0E029A604B
:10802000C3E900140C33AB42F3D1D0F8C030C0F830
:10803000C44043EA0E03C0F8C030C0F8C84030BDA9
:108040004FEA014E8C46E0E710B40C4C2368002B3D
:1080500011DD002004F1040C0146DCF8743003F15A
:10806000C00259600C339342FBD123680130834234
:108070000CF1AC0CF1DC5DF8044B7047901600205D
:1080800070B5474C04EB401393F8D02202B970BD91
:108090004C2202FB004294F8145694F815E692F82C
:1080A000B66383F8B66275454FF000034FEA401C93
:1080B00082F8B6330CD00EEB4E0304EBC30393F8F7
:1080C0001826561E012E4FEA4E035BD9032A53D0C1
:1080D00004EB0C00A0F8B412EFF31182902383F3A9
:1080E000128890F8B632B0F8B41243EA4103002186
:1080F000D2B29BB280F8B61282F311881A0994F8B2
:10810000781682EA13225A40D1B1D0F8CC42D0F886
:10811000B812646FD2431B019BB202F00F02012020
:108120008840134304F1C0015A0013F4004F93B286
:1081300002D16268024362600C348C42F4D170BD9B
:10814000D0F8CC12D0F8B8024C6F1B0100F110012E
:108150009BB202F00F0201208840134304F1C001DA
:108160005A0013F4004F93B202D162680243626076
:108170000C34A142F4D170BD0EF1010202F00302F1
:10818000AA42A5D0734404EBC303184490F8251603
:1081900000299DD004EB0C03012283F8B62297E757
:1081A00090160020704700BF704700BF024B03EBE2
:1081B000401090F8D1027047901600204368826CFE
:1081C00010B49A61EFF31182502383F3128841684F
:1081D000C46B0B6823EA0403446C2343D2B20B60E4
:1081E00082F31188D0E907418268036912681C6034
:1081F0005960D0E909419C60D960B0F85C10D16247
:1082000000235DF8044B0376704700BF026890F8C6
:1082100010C01168022303FA0CF3194200D1704711
:1082200010B4074C41684FF0000C84F879C6086818
:108230006CF3000008605DF8044B5360704700BFAA
:1082400090160020704700BF0B4890F8B01689B117
:1082500001EB4101002310B4490000F5D7601C4632
:1082600050F82320063302B114608B42F8D15DF838
:10827000044B7047704700BF901600200B4890F8E1
:10828000B01689B101EB4101002310B4490000F59B
:10829000D7601C4650F82320063302B1146099427F
:1082A000F8D15DF8044B7047704700BF901600206E
:1082B00001207047034B00EB400003EBC00090F837
:1082C000C9067047901600201F4890F8B036CBB30F
:1082D00000222DE9F04100F5D7631C4F50262C25D4
:1082E000144607E053F8181B0C6090F8B0160132E2
:1082F000914225DD197C0029F4D059684FEA912E6E
:10830000AEF5801EBEF1530F4FF0FE0C98BF17F86C
:108310000EC0EFF3118E86F31288D1F8248005FB8E
:108320000C0C08F10108CCF8A087D1F8148048F0B3
:1083300001085FFA8EFCC1F814808CF31188D1E734
:10834000BDE8F081704700BF90160020C0500508BE
:1083500007EE900AB8EE670A704700BFBCEEC00A8D
:1083600010EE103A98B2704708B51D200FF02CFEA1
:1083700008B183794BB11E200FF026FE08B1837936
:1083800003B108BD5523C38008BD5523C380F2E760
:10839000704700BF704700BF704700BF704700BF05
:1083A00001207047094A0A4BD2F8BC29D3F8900241
:1083B000526AD3F8941292F85330012B08BFB2F8E6
:1083C0005030A0EB010008BFC01870479016002085
:1083D00088270020012380F85130704710B4EFF354
:1083E0001181802383F312880C4AC9B2D2F89832E3
:1083F000D2F89C42D2F89802D2F89C2281F31188DC
:10840000904203F1FF33A3EB04038CBF0020012053
:1084100003EBC0205DF8044B704700BF88270020A5
:108420004A4B4B4A1B6893424CD015D9494A934258
:1084300051D027D9484A934256D002F1B77202F57B
:10844000585293427DD1454BD3F8A4200B2161F3C0
:108450000F32C3F8A4207047414A93424DD020D92F
:10846000404A934252D002F1B77202F558529342F9
:108470006AD13A4BD3F8A420052161F30F32C3F837
:10848000A4207047384A934249D0384A93425AD17F
:10849000324BD3F8A420062161F30F32C3F8A42095
:1084A0007047334A934243D002F1B77202F55852F3
:1084B000934247D1294BD3F8A4206FF30F32C3F86E
:1084C000A4207047254BD3F8A420042161F30F3278
:1084D000C3F8A4207047214BD3F8A420092161F3ED
:1084E0000F32C3F8A42070471C4BD3F8A4200821F6
:1084F00061F30F32C3F8A4207047184BD3F8A420BF
:10850000032161F30F32C3F8A4207047134BD3F853
:10851000A420022161F30F32C3F8A42070470F4B4F
:10852000D3F8A420072161F30F32C3F8A4207047C9
:108530000A4BD3F8A420012161F30F32C3F8A42021
:108540007047704770477047704700BF00000020B9
:10855000007A030A001C4E0E0052BC0F0038024085
:1085600000D8B805000E270700B0710B00E6DF0C3D
:10857000006CDC02074BD0F894105B68D0F8A020A8
:108580005B1A9A42B8BFC0F8A030012380F8CC3003
:1085900000207047001000E003689A69D10508D5F3
:1085A0004FF4807213218177DA611A6822F0800219
:1085B0001A609A69920508D54FF4007213218177E9
:1085C000DA611A6822F080021A609A69510508D5AA
:1085D0004FF4806213218177DA611A6822F08002F9
:1085E0001A609A69120508D54FF400621321817749
:1085F000DA611A6822F080021A609A69D10408D5FB
:108600004FF4805213218177DA611A6822F08002D8
:108610001A609A69920408D54FF4005213218177A9
:10862000DA611A6822F080021A607047184BD3F89A
:10863000A012D3F8A4228A1A322A15D8D3F8B82265
:108640008A4200D37047D3F8A822E2B1106892881A
:1086500010B44469224218BF120432315DF8044B51
:108660008261C3F8B8127047D3F8A8223AB193F8E0
:10867000B40291881268C00748BF090491610022C2
:10868000C3F8B82270473231C3F8B812704700BF40
:1086900088270020064AD2F8A8323BB192F8B412DB
:1086A0009A881B68C90748BF12049A610020704766
:1086B000882700204FF40070034B1060D3F8C832B5
:1086C0000B600020704700BF882700200020704703
:1086D0000120704701207047002070470123437735
:1086E00000207047D0E90B2108B583690B448361F2
:1086F0000AB108469047002008BD00BF436A1B68C6
:108700001B6A5B685B78024613F0010008BF507774
:10871000704700BF70B5224A224C234B94B00546E7
:10872000CDE90042214A0992A4F108020A922A7F67
:108730000493201D0023CDE905039A42CDE90E33B1
:108740000B931093139314BF0520042011936B6AAD
:108750000C9002200122029018688DF80C200E4621
:1087600007928DF820208DF834208DF8482049F0AC
:1087700099FE2B7F93B1330E04F8073C063C320C74
:10878000330A22706370A670686A69460EF078FF3B
:108790006B6A186849F086FE14B070BD073CEEE7BE
:1087A000802A00200C000020FD860008DD860008DD
:1087B00010B5044694B05022064968464CF0B8FB08
:1087C000606A69460EF05CFF636A186849F06AFEE9
:1087D00014B010BD14510508C2628161704700BF1A
:1087E0002DE9F0410446406A00681E460F46904657
:1087F00049F058FE237F002B37D0254DA069052373
:10880000EB64030E6B7505F116039870020C000AF9
:1088100058701A703B68AB650020D8F800302B66A2
:10882000012E2363286727D0022E1CD1D8F80420FC
:10883000A866796885F86400E966134415496A6793
:108840000120236385F87800E967134B617F606A34
:1088500003F11402002914BF194611460EF010FF4F
:10886000E36A83B1206BBDE8F081094DA069042360
:10887000EB6405F11503C8E7064B85F86460C5E9AC
:108880001A306867E1E7636A186849F00BFEE9E7A8
:1088900000000020E58600081C000020704700BF93
:1088A00000B583B081610192049A0093C2620123F2
:1088B0006A4601A9FFF794FF03B05DF804FB00BF0F
:1088C000043070470D4B93F80023D3F8FC12024498
:1088D000D2B283F8002393F8002308441206C3F8A9
:1088E000FC0205D593F8002382F0800283F8002370
:1088F000034B012283F89420704700BF8827002093
:10890000000000202DE9F047144FD7F80453ED0A7A
:108910001ED00026B04607F54F79D7F80833104827
:10892000D3F828A0C7F83483AC19641010234A4642
:10893000E102D0470F280BDD0A4B03F1100C53F86E
:10894000041B013107D16345F9D12546B542E4DC6A
:10895000E802BDE8F087661CF8E700BF8827002022
:10896000902A0020C42A0020012141F201020023A4
:1089700041F2011C017202804FF60B71FF22A0F838
:1089800004C043818381C38101828274704700BF28
:10899000164BFF224FF0FF3CF0B5C270027102721D
:1089A0004272427382738274C27403F10C0766468A
:1089B000172516244FF0150E002202EB82028118B3
:1089C000BB4200F802E04C708D70CE7081F804C09C
:1089D0000BD093F9062093F807E01C7A5D7A93F99F
:1089E0000A6093F90BC00633E7E7F0BD6451050850
:1089F0004FF0000C01210222032380F805C0817191
:108A0000C2710372704700BF0023022203704370DB
:108A10008370C37002717047252202230270437075
:108A2000704700BF4FF0010C2C210222002380F878
:108A300000C041708270C370704700BF4FF4F07285
:108A400002804FF47A7242844FF4F56240F22E4C69
:108A50004FF4FA61828442F21312A0F81EC001841E
:108A600040F2262C42F2267142810122A0F81CC05D
:108A700001814FF00E0C022182710022072380F841
:108A800026C0417440F2012C428240F2034140F280
:108A900005628370A0F814C0C18202838376704798
:108AA0000023037043708370C3707047002303700A
:108AB00043708370C37070470022012302704270BC
:108AC0008270C270037143718371C371704700BFBC
:108AD000FF23037043708370C37070470023062127
:108AE0004FF47A72C0E9012301700373704700BF2D
:108AF00010B50023411CFF2200F8132001F81320B9
:108B000001330B2BF8D10C4B4FF0FF3103F118045C
:108B100000228C4605E013F902CC13F9011C13F86E
:108B2000032C00F812C000EB420E03339C428EF877
:108B30000110F0D110BD00BF7B5105084FF0180C9B
:108B4000072180F800C081704FF0260C002180F8CA
:108B500003C041714FF0270C13210123022280F83A
:108B600006C041724FF0210C032143700371C371A1
:108B700003728372C27280F80CC0427381737047B3
:108B8000704700BFD0ED007AD0ED016A30EE677A11
:108B9000E6EE877AB0EE670AC0ED007A704700BF54
:108BA000D0ED017AD0ED026A30EE677A90ED000ADE
:108BB000E6EE877A37EEC07AC0ED017AA6EE870A34
:108BC00080ED000A704700BF90ED017AD0ED036A96
:108BD000D0ED027A30EE470AA6EE807A90ED000AD8
:108BE00080ED017A37EE676AE6EE867A37EEC07A74
:108BF000C0ED027AA6EE870A80ED000A704700BF3A
:108C0000DFED277AB4EEE70AF1EE10FA0CDDDFEDC6
:108C1000256A9FED257AF0EE407AF4EEC77AF1EE00
:108C200010FA30EE660AF6DCDFED207AB4EEE70AE1
:108C3000F1EE10FA0CD5DFED1B6A9FED1D7AF0EE18
:108C4000407AF4EEC77AF1EE10FA30EE260AF6D446
:108C5000DFED187AB4EEE70AF1EE10FA14DDDFED7D
:108C6000107A37EEC00A60EE006A9FED136A9FED3E
:108C7000137ADFED137AA6EE867A20EE266AE6EE08
:108C8000877AA6EE270A7047DFED0E7AB4EEE70A80
:108C9000F1EE10FA44BFDFED057A37EEC00AE2E7E5
:108CA000DB0F4940DB0FC940E4CB1641DB0F49C065
:108CB000E4CB16C1DB0FC93F92E741B99730083CBE
:108CC00015A82ABEDB0FC9BFD0ED056AD0ED017A29
:108CD00090ED007A90ED066AD0ED025A90ED035ABD
:108CE00080ED050A66EEA77AC0ED066AE7EE007A27
:108CF00090ED077AE5EE867A90ED086AD0ED045A99
:108D000080ED087AE5EE477AE5EEC67AB0EE670ABE
:108D1000C0ED077A704700BFD0ED057A90ED006A8C
:108D200090ED067AD0ED035AE6EE007A90ED016AF6
:108D3000F0EE406AA6EE267AB0EE670AD0ED047A2D
:108D400090ED026A67EEC07AA5EEC07AE6EE267A6A
:108D500080ED057AC0ED067A704700BF2DE9F04737
:108D6000089F3C460E4614F8011B002B054614BF15
:108D70004FF030094FF0200941B3002A2CDD234683
:108D800000E0B2B113F8010B9046013A0028F8D187
:108D9000A8F102086AB1C24649462846B047534680
:108DA000002B0AF1FF3AF7DC397828EAE872013241
:108DB00049B1D71B2846B047E01914F8011B002918
:108DC000F8D1BDE8F0871046BDE8F087002A02F12F
:108DD000FF38E0DC0846F4E70022EAE703685A1CA3
:108DE00002601970704700BF024BD3F84C03036850
:108DF0001B6818478827002010B5084C084842F027
:108E000003FC4022002104F554704CF0F4F84FF0BC
:108E1000FF33C4F89033C4F8933310BD8827002083
:108E20000E004400114B002130B50160818003F138
:108E30000C054FF448748E460A4602EB420200EBE2
:108E4000420C00F812E08CF80110DA788CF802205D
:108E5000AB42ACF8044007D093F9062093F807E042
:108E6000197A5C890633E8E730BD00BF90510508E8
:108E700084B04FF4E163ADF804300199ADF80C1003
:108E8000BDF80C1081814FF4007C41F201420023B7
:108E9000A0F800C0428040F21F3C01220093A0F8DD
:108EA00006C08360C28104B0704700BFF8B5164D9C
:108EB0001648174F00214FF40F724CF09CF805F63E
:108EC00044364FF0804105F628343A46002301E04D
:108ED00054F8332091420BD001330F2BF8D10020EE
:108EE0001C3547F0BFFBB5420CD055F81C1CECE715
:108EF000084A02EBC3031C3593F82C0C47F0B2FB75
:108F0000B542F2D1F8BD00BFC0510508081E0020CF
:108F100000000140C050050830B4436919690A686F
:108F20006FF300020A609A68B3F80CC01468E26834
:108F300022EA0C02E260046890F810C0206808225F
:108F400002FA0CF202403AD1224890F878560220F8
:108F500000FA0CF06060002D2FD0187E01282FD071
:108F6000D3F8A0100131C3F8A010EFF31180502105
:108F700081F312885C68DD6B216821EA05011D6CB4
:108F80002943C0B2216080F3118898681969DC6AAE
:108F900000680C601C6B4C605C6B8C609C6BCC60E4
:108FA0004262B3F87C20C2620A68012422430A604C
:108FB0001C76C2689B891343C36030BC7047FEE7D0
:108FC000D3F8A4000130C3F8A4000B6862F30003D7
:108FD0000B60F2E7901600201A4A0368934210B51E
:108FE00004460AD0184A934213D0184A93421CD020
:108FF0001A6842F001021A6010BD154842F004FBE5
:1090000014492368D1F8202822F40012C1F820283E
:10901000EEE7114842F0F8FA0E492368D1F820280B
:1090200022F48002C1F82028E2E70C4842F0ECFA72
:1090300008492368D1F8202822F40002C1F820282A
:10904000D6E700BF0054004000580040005C0040DC
:1090500015002000003002401600200017002000FC
:109060002DE9F0411A4D0FF0C9FE29680029074685
:109070004FF000064FF0AC0817DD00231C4608FB3C
:109080000352013392F8A1208B4244EA0204F6D144
:109090000FF0B4FEC01B2643B0F5FA6FF6B206DC43
:1090A0002CB1296800292646E7DC0FF0A7FE26B17F
:1090B000084B93F89723542A02D03046BDE8F0813C
:1090C000B3F89C230132A3F89C233046BDE8F0811D
:1090D0009016002088270020C94B93F878360BB9EA
:1090E000012070472DE9F04FC64FC749D7F8A0229D
:1090F000C64BA1FB02125209A3FB023B4FEADB0B5A
:109100000BEB8B0B85B0A2EB4B0B5FFA8BF303934E
:1091100007F5D1630193BA4B07F56A7A03F52D7908
:1091200000230AEB8B0B1D46D7F89837AB4240F370
:109130001A81D9F81830D9F80460D3E925840FF0E2
:109140005DFE4FEA860E0EF1085E0EEB481E97F8A4
:109150009783029004F1806197F890073939B8F14C
:10916000540F0EEB81110EEB801301D1A7F89E0373
:10917000994240F26B811A68002A00F05F811A6CF4
:10918000002A00F07181D3F88020002A00F06E815F
:10919000D3F8C02003F58073002AE9D1A3EB0E0EAB
:1091A00099424FEAAE1E40F25181A4EB0E014529CF
:1091B0004FF0000428BF452103EB81119C46204657
:1091C00026460DE01A6C002A40F0D480D3F88020A7
:1091D000002A40F0FA80D3F8C02003F580732AB942
:1091E000994206D91A68002AECD04033994200F21D
:1091F000C580112E344640F22D81D6F1150200F1C2
:1092000029818349029ED1F898309E45D7F894373A
:1092100038BFC1F898E0F11A002919DB03F5F423EF
:1092200003F590739E4288BF029B794988BF05333E
:10923000C7F89437764BD3F89830052B86BF053B9B
:10924000DBB2002387F890374FF0FF33C1F8983036
:1092500042B100FA02F2C4F11404012000FA04F44D
:1092600044EA02006B4BC0F3C43203EB8202D2F833
:10927000A04C00F01F0203EB8202D2F8A01CC0F346
:10928000441203EB8202C0F3842003EB8000D2F887
:10929000A03C41EA043141EA0311D0F8A03C41EA84
:1092A000032181EA112383EA131303F00F030F2B29
:1092B00040F0B480B1F5803F80F0B080B8F1540F39
:1092C0004FEA111104D1B7F898330133A7F8983356
:1092D000D7F89036B1F5606F03F10103C7F8903607
:1092E00000F0D580019B99819AF858300398834209
:1092F00014D0DBF80820DAF800309B1ACAF80030E6
:10930000DBF83020DAF804309B1ACAF80430002366
:10931000CBF80830CBF830308AF85800DAF8003053
:109320000133CAF80030DBF808300133CBF80830DD
:109330004FF6FF73994209D1DAF804300133CAF8C5
:109340000430DBF830300133CBF83030019B01358D
:109350001433082D0AF15C0A0BF15C0B019309F13F
:1093600020097FF4E1AE0123012087F88C3705B096
:10937000BDE8F08F803399427FF63BAFA3EB0C0240
:109380009211541C244A82FB04C2A2EBE472012A0B
:10939000B8BF0122904001241644013A04FA02F2B7
:1093A00010431C46226892B1226C002A60D0D4F887
:1093B0008020002A5ED0D4F8C02004F580743AB131
:1093C000A142EFD89C4623460AE7C0330EE740345B
:1093D000A142F7D9E31A9B115A1C0F4B83FB02C31E
:1093E000A3EBE273012BB8BF012398401E44012276
:1093F000013B02FA03F3184323469C462346EFE65B
:1094000090160020882700201F85EB51CDCCCCCCB6
:1094100000000020C050050856555555B8F1540FAE
:109420002AD0D7F890360133C7F89036D7F88C3663
:109430000133C7F88C364FF6FF7155E74033A3EB85
:109440000E0E99424FEAAE1E3FF6AFAE10B1013894
:1094500087F89007B8F1540F7FF478AFB7F89A33D4
:109460000133A7F89A3371E7803397E6C03395E666
:109470008034ADE7C034ABE7B7F898330133A7F8D1
:109480009833D7F890360133C7F89036CEE7084ABC
:1094900092F8153603EB430302EBC3032B4493F816
:1094A00025360D2B7FF41EAF019A802393771BE79F
:1094B0009016002010B504464BF09EF881B220466D
:1094C000BDE81040FEF7DCBD38B50B4D00EB4000A9
:1094D00005F5D76303EBC00393ED027AD3ED037A6E
:1094E000E7EE007AC4002C44B0EE670A4BF084F833
:1094F000D4F8B836186038BD90160020F8B51F4E65
:1095000096F8142696F815369A4231D13568002D12
:1095100012DD002496F878661948274606B3037EC4
:10952000012B20D002691368013443F00103AC42DF
:1095300000F1AC001360F1D10FF060FC114BD3F8D7
:109540009C47002C0BDD03F5F46303EBC40419689E
:109550009A88C86808330243A342CA60F7D1F8BDAD
:10956000FEF72CFEDEE780F89C70FEF727FED9E7B9
:1095700046F048FE0028C9D1F8BD00BF9016002073
:10958000941600208827002038B51A4B93F814262B
:1095900093F815369A4228D1174D95F8C0371BB36A
:1095A0004FF0000C05F2C4726146136859621868E6
:1095B000083261F3C710186032F8040CD8621868DA
:1095C00040F080001860186861F341001860DC68A2
:1095D00032F8020C95F8C0E70CF1010C2043E64587
:1095E000D86022F8021CE0DC38BD46F00BFE0028F3
:1095F000D2D138BD90160020882700200C4AF8B53B
:10960000136855692B4003EA000555617DB1094F88
:109610000126B5FA85F4C4F11F0407EB840306FAAA
:1096200004F4D3F8500303689847A543F1D1F8BD7B
:10963000003C0140882700200269C3682DE9F047FB
:1096400012EA03092AD005460E464FF000474FF0B4
:109650000008B9FA89F327FA03F2D2431B3B2A61C7
:1096600009EA0209042B16D8DFE803F0332A221A8C
:109670000300B36A002B35D003F1FF3A1FFA8AFAD0
:10968000C6F82880746A34B123682046514698474A
:109690006468002CF8D1B9F1000FDAD1BDE8F08789
:1096A0007068A98E03689847B9F1000FD1D1F5E72A
:1096B000B068298F03689847B9F1000FC9D1EDE769
:1096C000F068E96B036889B29847B9F1000FC0D11F
:1096D000E4E73069296C036889B29847B9F1000F53
:1096E000B7D1DBE7E96A1FFA81FACBE730B5124A56
:1096F000124CD2F8303883B043F00103C2F830384E
:109700004FF4C0554FF0817369462046CDE90053B0
:1097100042F010F8636A23F470236362636A43F4CF
:1097200020236362636A23F470436362636A43F4D1
:109730002043636203B030BD0030024000000240AD
:109740002DE9F04704460068237C0268022101FAF3
:1097500003F31A4201D1BDE8F087D4F814A0DFF872
:1097600078829C4ADFF874925268C9F804284C2722
:1097700007FB0A87D7F8BC23B7F8C0131668D7F8D9
:10978000F453F26822EA0102F2602A686FF30002E1
:109790002A6098F8782612B94360BDE8F087284619
:1097A00041F040FFD9F80C38012287F8E023002B64
:1097B00000F00A8133686FF3C71333604C2303FB57
:1097C0000A834FF0FF3293F8F033F262062B29D868
:1097D000DFE813F0D2002800AA0028008200280049
:1097E0000700336A6FF30C3333624C2303FB0A83A5
:1097F000326A93F8F11361F34D323262F26993F8F1
:10980000F21361F30922F26193F8F323F36962F32F
:109810000F33F361F3696FF38B23F361336A43F41E
:10982000805333622A684C2303FB0A834BF6EF70A4
:1098300002400020A3F8D4032A602968B3F8D42397
:109840000A432A602A6893F8DD1361F30D322A6017
:109850002A6893F8DB1361F38B222A602A6893F855
:10986000DA1361F309222A602A6893F8D91361F3A5
:10987000C7122A6093F8D8132A6861F386122A6007
:1098800093F8DC132A6861F345122A60B3F8D61303
:109890006A6861F30F026A60D3F8CC23AA60D3F838
:1098A000D023EA60D3F8F42316215160116841F007
:1098B00001011160D3F8BC23B3F8C03312682068EB
:1098C000D1680B43D360434A237C5168C9F8081818
:1098D000022202FA03F35FE7336A6FF3082333626D
:1098E0004C2303FB0A83316A93F8F12362F3492185
:1098F0003162316AC2F3400262F3CB213162F26914
:1099000093F8F21361F30102F26193F8F323F36920
:1099100062F30713F361F3696FF38303F361336A4F
:1099200043F4807333627DE7336A6FF30413336269
:109930004C2303FB0A83316A93F8F12362F3451148
:109940003162316AC2F3400262F3C7113162B26917
:1099500093F8F21361F30922B26193F8F323B36928
:1099600062F30F33B361B3696FF38B23B361336A6F
:1099700043F01003336255E7336A6FF30003336239
:109980004C2303FB0A83316A93F8F12362F341010C
:109990003162316AC2F3400262F3C3013162B269DB
:1099A00093F8F21361F30102B26193F8F323B36900
:1099B00062F30713B361B3696FF38303B361336A6F
:1099C00043F0010333622DE70FF018FAC9F80C08D1
:1099D000F0E600BF001000E090160020882700206D
:1099E00038B51E4CD4F8903273B1D4F89422D4F820
:1099F00090329A4208D0D4F89432E218013392F8A7
:109A00001008C4F8943238BD154BD3F8BC39002285
:109A1000596AC4F8942291F8533003F0FF05ABB1B2
:109A2000B1F8505081F853205DB193B2C818234467
:109A3000007983F81008B1F85000013293B29842CF
:109A4000F3D808484022043142F028FDC4F890526F
:109A5000D4F890020028CED1D5E700BF8827002097
:109A6000901600204820002090F850305A1C0344E3
:109A7000D2B280F8502083F83C1090F851300BB1EE
:109A8000132A01D949F040B9704700BF002280F87D
:109A9000512049F039B900BF38B542F085FD1D4B62
:109AA0001D4D292223F88A2C23F8822CFFF71EFE55
:109AB0001A4841F0A9FDFEF7B3FC46F03BFC4FF01D
:109AC000A04005F58053826B154942F40012826371
:109AD000012283F8782383F88523124AC3F87C2374
:109AE0004FF48172A3F880234FF401620024A3F89D
:109AF0007A2301F19C02C431C5F8B40983F8834389
:109B000047F0A0FD224621464FF0FF3041F05AFEBB
:109B1000204638BD80380020901600200700340011
:109B200000000020400040012DE9F0430446406A57
:109B3000344D006895B00E469146984648F0B2FC08
:109B4000314B0193314B049305F1F4030093217FD2
:109B50000223029305F1EC02012300278DF80C305B
:109B600005920697002936D08DF834308DF84830AC
:109B7000CDE90977330ECDE90E77CDE9107785F879
:109B8000ED300523CDF82C908DF82070CDF8308085
:109B90001397EE350793330C1D4F2B70330A6B7000
:109BA000AE70D7F89C01656A0DF08CFE637FA880CB
:109BB00033BB05A928460DF063FD636A186848F0B9
:109BC00071FCD7F8A0010DF07DFE636A98804046D5
:109BD00015B0BDE8F0838DF834308DF8483004239B
:109BE000CDE90911CDE90E11CDE91011CDF82C9078
:109BF0008DF82010CDF830801391ED350793CAE72A
:109C00006946D7E700000020183A0020FD860008CA
:109C1000803800202DE9F047089F8846154600212E
:109C2000202204461E464BF0E6F94FB13B68E38123
:109C30001B0C23827B687A89E3821B0C628223835C
:109C4000404649F0B5F8EB0619D4431EB8B108EB0D
:109C5000000701E0013B12D317F801CDBCF12E0F34
:109C6000F8D1C01A421E032AA8BF0322082B03F111
:109C7000010AA8BF08239146C2441A4606E00828F4
:109C80000246C246A8BF08224FF000094FF0203319
:109C900041462360636004F1080720464BF048F911
:109CA000174B23815146BB704A4638464BF040F96A
:109CB000611EE31D11F801CFACF1610EBEF1190F69
:109CC0009CBFACF1200C81F800C08B42F2D1384629
:109CD00004F10B0110F8013BA3F16102192A9CBFAA
:109CE000203B00F8013C8842F4D118232373330C45
:109CF000A382E572099B6683E361BDE8F08700BF3C
:109D0000202020002DE9F04FDFF88094D9F8A00240
:109D1000C9F8A40287B0002B00F0D88001F5FE78C6
:109D20001344DFF86CB40393164601F12007C246D2
:109D30001FE0002E62D0D9F8D432B34200F0CA80BE
:109D4000D9F8D032B34200F0FD80D9E9B631B34240
:109D50004BD8B14200F29781711A204644F02CFF93
:109D6000039B01369E4207F500770AF5007A00F062
:109D7000AD80D9F8E052B542A7F12004D9D8751BBF
:109D8000D9F8F08205F00702EB080492D8F83020E9
:109D90000233934203D3D8F8382093420BD941467B
:109DA0001846059344F0D8FE059B8046002800F035
:109DB0008A81C9F8F00298F80420002A40F0328124
:109DC000D8F82850002D00F07781D8F830209B1A61
:109DD000049A02EBC303D8F80C20204602EB43227E
:109DE0004FF400714346A847BAE7B142B4D92046C0
:109DF0004FF4007200214BF0FEF8B1E74FF400720F
:109E0000314620464BF0F7F8802387F89E310C232B
:109E100087F8A231D9F8D032D34AD9F8C812C4F899
:109E2000C6319342C4F8CA1100F33281CF4AD04CF4
:109E300082FB03021A44D817C0EB621284FB02545F
:109E4000CC4D85FB03C5C0EB2530C2EB821587F8EE
:109E5000A1015B1B801020F03F0001330343144439
:109E600087F8A031D317C3EBE4142244BE4B87F824
:109E70009F214A1E9A4200F31781BC4BBC4883FBCA
:109E800002311144D317C3EB611180FB0140B94C7F
:109E900084FB0254C3EB2433C1EB811487F8A53152
:109EA000121B9B1023F03F0301321343084487F831
:109EB000A431CB17C3EBE010014487F8A31155235D
:109EC00087F8DE31AA2387F8DF3149E7002007B0A1
:109ED000BDE8F08F4FF0FF3384F8EC3184F8ED31BA
:109EE00084F8EE3184F8EF31D9F8E832C4F8E8317B
:109EF0005223237063706123A37084F8E7314123F8
:109F00000025E37084F8E631722384F8E43184F8A4
:109F1000E5314FF4F0722946A7F11C004BF06BF8C5
:109F20005523C7F8D051C7F8D451C7F8D85184F891
:109F3000FE316FF0550384F8FC5184F8FD5184F82C
:109F4000FF310DE700214FF4007220464BF053F82B
:109F5000894A03CA47F81D0CEB2007F8200C58204B
:109F600007F81F0C902047F8191C07F81E0C002357
:109F700002220821F820E372227307F8131CA2734F
:109F8000E37307F8102C07F80B0CD9F8D00284F80B
:109F90002C20D9F8C8226376121A2262D9E9B602B7
:109FA000121A3F2020764FF0FF30A0763E20207717
:109FB0000120E3766377A377E37784F82D3084F884
:109FC0002E3084F82F30626284F8300084F831300B
:109FD00087F82610802187F82010292187F8221081
:109FE000942187F823100E2187F824100D21634A4D
:109FF00087F82510552187F8DE11AA2187F8DF118F
:10A0000003CA5F4BC7F82700C7F82B1003CB138890
:10A01000A7F82F309378C7F83200C7F8361087F8C2
:10A0200031309DE64FF40072002120464AF0E3FFF4
:10A03000049B002B4ED1D8F84030002B00F0AA80B2
:10A04000049AD8F830304F49CDE900222046112239
:10A05000FFF7E0FDD8F840301A6C002A00F0AD8020
:10A06000049A1B6BCDE90022474911223846FFF7BD
:10A07000D1FDD8F8448007F120044FF4E075B8F121
:10A08000000F3FD16CE6F11A204644F095FD67E6DB
:10A09000FF2387F89F3187F8A13187F8A031324B31
:10A0A0004A1E9A427FF7E9AEFF2387F8A33187F86B
:10A0B000A53187F8A43102E7294620464FF4007203
:10A0C0004AF099FF4CE6A7F1240343F804BF9A45F0
:10A0D000FBD145E6D8F84030049AD8F84480002BEC
:10A0E0000CBF01230223C3EB02154346002B3FF4B0
:10A0F00037AE013D9B6CF9D198464FF40075002BAB
:10A100003FF42EAE254420342346203544460496A1
:10A1100098460EE05CF81C1B236BCDF800C00026AF
:10A120000196FFF777FDA46C08F12008CCB1A84593
:10A1300017D02379A44604F11C0E1122A8F12000A7
:10A14000002BE7D162792669236B216842F0210256
:10A15000CDE900E6FFF75EFDA46C08F12008002CB5
:10A16000E5D1049EFCE500BFFF03FB0083200882CD
:10A170008180808097554541C4C50508D0C5050834
:10A18000DCC50508BCC50508C0C505088827002032
:10A19000DEADBEEF049BD9F8CC12CDE900332046EA
:10A1A0000822FFF737FDD8F84480B8F1000F3FF4DC
:10A1B000D7AD3C464FF4F075A4E7049BCDE90033DE
:10A1C00052E700BF38B590F82830012B044604D080
:10A1D000407F40B10023637738BD406A03681A7B33
:10A1E00092B9637F0BB9012038BD0A4D0A49022399
:10A1F00005F5D2720DF074FA95F8A53103F001035C
:10A2000083F001006377E7E71B6A002BE9D00020A9
:10A2100038BD00BF80380020F80000202DE9F04153
:10A220000446154E90F82800637F144F06F5D27847
:10A23000012805D00BB1002363770120BDE8F08130
:10A24000606A05682A7B82B9002BF6D00223424659
:10A2500039460DF045FA96F8A53103F0010363770E
:10A26000002BEAD094F82800E2E72A6A002AE8D115
:10A27000002BE2D0EAE700BF80380020F800002081
:10A28000F0B511F0010583B00AD190F82860012ED5
:10A29000044607D0C368B3F1807F01D90123237737
:10A2A00003B0F0BD0A4B476AD3F89C010DF00AFBDE
:10A2B000E368B880B3F1807FF2D9B7218DF804103C
:10A2C000267733462A46384601A90DF009FAE7E712
:10A2D00080380020144B154910B5044618681B79C6
:10A2E000206284F82430152204F125004AF0D4FEBF
:10A2F0000F4B93F8A6214FF0010E84F83AE012B903
:10A3000084F83B2010BD03F5D47CBCE80F0020602E
:10A310006160A260E360BCE80F0084F83BE020616C
:10A320006161A261E36110BDE8C50508F0C50508DB
:10A330008038002010B50021382204464AF05BFE28
:10A340000B490C4A0C48C4E904120C490C4AA2629D
:10A35000C4E90601012341F61E6CA373A4F826C0CC
:10A3600084F8213021460748BDE810402EF0F6BFA2
:10A370006400DC051A046C070019750343080E001D
:10A380001E7D0101FCC50508174A1849D2F888301E
:10A3900030B443F47003C2F888300B6843F0010313
:10A3A0000B600B689B07FCD58B68104A6FF30103A9
:10A3B0008B60936813F00C0FC3F38101F9D19160A6
:10A3C000136809480A4D23F0867323F48033136021
:10A3D0004FF41F044FF000635560C2F8A010D46022
:10A3E00030BC8360704700BF00ED00E000380240E1
:10A3F00002300300704700BF002070470148FEF79D
:10A40000CBB800BF603A00200C4BD3F8F831023BC8
:10A41000072B11D8DFE803F00D0D0A0A0707040423
:10A42000074848F021BA064848F07ABA044848F08C
:10A43000F5BA034848F09ABB704700BF8038002047
:10A44000603A00200148FEF7A7B800BFB43A0020E8
:10A450000C4BD3F84C32023B072B11D8DFE803F04A
:10A460000D0D0A0A07070404074848F0FDB906481D
:10A4700048F056BA044848F0D1BA034848F076BBD1
:10A48000704700BF80380020B43A00200148FEF732
:10A4900083B800BF083B00200C4BD3F8A032023B2E
:10A4A000072B11D8DFE803F00D0D0A0A0707040493
:10A4B000074848F0D9B9064848F032BA044848F08D
:10A4C000ADBA034848F052BB704700BF8038002047
:10A4D000083B002070B40468D4E9042153680029C3
:10A4E00000F091804861157C16684A68022000FAE5
:10A4F00005F545F00C0575600D7C0968A84040F035
:10A500000C00486019686FF30001196011686FF35F
:10A51000000111601068A16940F0020010601D6820
:10A520004BF6EF7C05EA0C051D6018680D890543A4
:10A530001D6018684D7C65F30D3018601868CD7B80
:10A5400065F38B20186018688D7B65F3092018600F
:10A550004D7B186865F3C71018600D7B186865F3AC
:10A560008610186018680D7C65F3451018605868EF
:10A570004D8965F30F005860086849689860D96094
:10A580001068E16900EA0C0010601568088928432A
:10A59000106010684D7C65F30D3010601068CD7B45
:10A5A00065F38B2010608D7B106865F309201060C7
:10A5B0004D7B106865F3C71010600D7B106865F364
:10A5C0008610106010680D7C65F3451010605068AF
:10A5D0004D8965F30F005060D1E900019060D160B2
:10A5E000196841F001011960136843F00103136019
:10A5F00063685A6842F001025A605A6842F00202E7
:10A600005A6070BC7047157C506110680222AA40E5
:10A6100042F00C0242601A6861F300021A60196885
:10A62000A2694BF6EF700140196018681189014367
:10A6300019601968507C60F30D3119601968D07B7E
:10A6400060F38B2119601968907B60F30921196010
:10A650001968507B60F3C71119601968107B60F3AB
:10A66000861119601968107C60F3451119605089D2
:10A67000596860F30F015960D2E900129960DA60FD
:10A680001A6842F001021A601A68616842F0020218
:10A690001A604B6843F002034B6070BC704700BF08
:10A6A000F8B505462C6895F838706368012284F87F
:10A6B00024201A686FF386121A60A88822898242C1
:10A6C00019D0B0F5807F0246A8BF4FF48072022AED
:10A6D000B8BF02221968002A92FAA2F2B2FA82F2F4
:10A6E00008BF4FF0FF32013A21F0380141EAC202BF
:10A6F00092B21A6020812A7BA17A91420AD019680D
:10A70000002A72D06FF34101196019686FF30001DC
:10A710001960A2721A6842F040021A60216A8A68BF
:10A72000002A79D000200646143116448A68013088
:10A73000002AF9D1227B62B15FB1012872D8072EBD
:10A7400070D800EB80029200216A0A44127B002A32
:10A7500068D0226A92680026002A4FD00EB1327B60
:10A7600022B1AA6812B1116892888A62226A1768B7
:10A77000226A5168226A926802F1FF3C92B117B3D3
:10A780003A4612F8010B17469A689207FCD5D86032
:10A790009A68D207FCD5DA6809B101F8012BBCF13F
:10A7A000010CECD2236A1B7BC3B9236A1B6963B11A
:10A7B000236A686C1B69984701280AD0022804D1D3
:10A7C00000232362F8BDFF20DEE7266A236A1433E4
:10A7D0002362236A9B688BB16368BFE7AB68002B79
:10A7E000E3D01A689B889361DFE741F002011960AA
:10A7F000196841F001011960A2728BE7236A1B6896
:10A80000002B33D0236A1D68236A5968236A2162AA
:10A810000022C3E9002245E7217B002999D0002FBF
:10A8200092D196E7216AA3698A680868B8B158602E
:10A830000120587392B25A812B685B6933B1496821
:10A84000E369A9B10120596058735A81AB6813B10B
:10A850001A689B8893622846BDE8F8403AE6587328
:10A860000548FF2600F8FA6F5860E3E72362F8BD59
:10A87000024858605973E8E700000020983B002028
:10A8800038B5D0F890102B4B04465A68D0F88800A1
:10A8900071B1131A99420BDC94F88030C4F8882007
:10A8A000012B10D0D4F884300133C4F8843038BD83
:10A8B000D4F89430C4F888200344C4F88C3094F859
:10A8C0008030012BEED16168201D04F19805EFF373
:10A8D000118C102383F3128863681B6A0BB3D4F8BE
:10A8E000A0302A461BB1D3691432002BFBD10B6A6E
:10A8F0006BB1996839B9934209D0196829B15B687D
:10A9000099680029F7D01433F3E7C3E900055FFA2B
:10A910008CFC8CF31188D4F884300133C4F8843073
:10A9200038BD0D625FFA8CFC8CF31188FFF7B8FE1E
:10A93000B8E700BF001000E02DE9F041826992F80D
:10A940008C30012B8AB0054649D0023B012B50D8F0
:10A9500092F8FC30D26C2D4C63F07F031370866943
:10A96000336DD6F8108003F1010E0FCCEC46ACE845
:10A970000F00F36CCDE9003E0FCCACE80F0094E87B
:10A98000030006F110078CE80300EFF31180102399
:10A9900083F3128833691B6A002B2ED0029B6A4610
:10A9A0001BB1D3691432002BFBD1D8F8203073B11E
:10A9B000996839B993420AD0196829B15B689968D6
:10A9C0000029F7D01433F3E71F60C3F804D0C0B2F6
:10A9D00080F31188AA6911690B6A002BFCD1136DF1
:10A9E0005A8852BAEA819A8852BA2A82DB885BBABC
:10A9F0006B8201200AB0BDE8F081C8F820D0C0B257
:10AA000080F311883846FFF74BFEE3E7E05D050869
:10AA10002DE9F04190F88C30056D012B8AB0044689
:10AA20006ED015D8C36C4FF0FF321A605A609A602E
:10AA3000DA60D0F890300522B3F57A7FC0F8A02014
:10AA400079D8032380F88C3001200AB0BDE8F0816A
:10AA5000023B012BF8D890F8FD30C26C4F4E63F0EA
:10AA60007F031370036DD0F8108003F1010E00F125
:10AA700010070FCEEC46ACE80F00E36CCDE9003ECA
:10AA80000FCEACE80F0096E803008CE80300EFF36C
:10AA90001180102383F3128823691B6A002B6FD067
:10AAA000029B6A461BB1D3691432002BFBD1D8F844
:10AAB000203073B1996839B993420AD0196829B125
:10AAC0005B6899680029F7D01433F3E71F60C3F877
:10AAD00004D0C0B280F311882269136A002BFCD124
:10AAE0006B885BBAA4F88030AB885BBAA4F882307C
:10AAF000EB8801205BBAA4F884300AB0BDE8F0818D
:10AB000090F8FC2090F8FD309B1A5B100133DBB20B
:10AB100005EB430235F813305BBAA0F88030538858
:10AB20005BBAA0F8823093885BBAA0F88430012029
:10AB30000AB0BDE8F08103691A7B52B35B6943B385
:10AB400090F848302BB390F8FC30C26C606563F02D
:10AB50007F03137090F8FC1090F8FD30026D1048E0
:10AB6000C4F8B4005B1A07330121C4F8AC30E36CBD
:10AB700084F8B0100A44C4E9293284F88C1063E7E1
:10AB8000C8F820D0C0B280F311883846FFF788FD9E
:10AB9000A2E7022384F88C3056E700BFE05D050889
:10ABA0007585000810B1036882889A61704700BFFC
:10ABB00010B1036882889A62704700BF0348D0F8DA
:10ABC00008310BB1FC301847704700BF000000206F
:10ABD0000348D0F82C3113B100F590701847704736
:10ABE000000000200348D0F8503113B100F5A270E6
:10ABF00018477047000000200348D0F8743113B1A3
:10AC000000F5B47018477047000000200348D0F8E2
:10AC1000983113B100F5C670184770470000002046
:10AC20000348D0F8BC3113B100F5D870184770470D
:10AC3000000000200348D0F8E03113B100F5EA70BD
:10AC400018477047000000200348D0F8043213B1C1
:10AC500000F5FC7018477047000000200348D0F84A
:10AC6000283213B100F50770184770470000002024
:10AC70000348D0F84C3213B100F5107018477047F4
:10AC8000000000200348D0F8703213B100F51970AD
:10AC900018477047000000200348D0F8943213B1E1
:10ACA00000F5227018477047000000200348D0F8D4
:10ACB000B83213B100F52B70184770470000002020
:10ACC0000348D0F8DC3213B100F5347018477047F0
:10ACD0000000002010B501380B4C0C4B00EBC000FD
:10ACE00004EB8004D4F8FC0098420CBF36203820D6
:10ACF00045F0B8FCD4F8FC20D2F8003143F0010351
:10AD0000C2F8003110BD00BF000000200064024006
:10AD1000F8B50138124C00EBC00004EB80041E466D
:10AD20001048D4F8FC3083420CBF3620382015463A
:10AD30000F4645F097FCD4F8FC00D0F8003143F002
:10AD40000103C0F8003194F90D01C4F80871C5F38E
:10AD50000112A909C4F81061BDE8F84040F032BD05
:10AD60000000002000640240D3B20D2B2AD84FF01F
:10AD7000000C10B46346144C04E00133202B1DD0AA
:10AD800014F803CF6045F8D194F801C08C45F4D194
:10AD90000E4902EB420401EB840201F53D700C49BF
:10ADA00003EB43030B4400EB840093F84A3D5DF84A
:10ADB000044BC2F8FC3282F8F432704700205DF890
:10ADC000044B704700207047085E05080000002013
:10ADD000C050050810B40C4C002304F5477C01E07A
:10ADE000152B0CD003EB430201331CF802108142F7
:10ADF000F6D122445DF8044B92F91E0370474FF0E0
:10AE0000FF305DF8044B70478038002030B40023D9
:10AE1000114C124D04E001331C2B1AD054F8085F7A
:10AE2000A842F8D125798D42F5D10D480D4902EBA4
:10AE3000420400EBC30001EB840390F8AD2DC3F88E
:10AE4000FC2201F53D7101EB840083F8F42230BC53
:10AE50007047002030BC7047685E05080000014064
:10AE6000C050050800000020F0B110B504460F489E
:10AE700094F804E0002300F5477C01E0152B11D085
:10AE800003EB430201331CF802107145F6D1024472
:10AE9000617992F91E232068D3B20D2B02D8BDE848
:10AEA0001040B3E7002010BD00207047803800201C
:10AEB000800AA0F58010532806D8044B1B5C0C2B8D
:10AEC00002D8034AD056704700207047C05005088A
:10AED00098C605080120FEF791BB00BF0220FEF7CF
:10AEE0008DBB00BF0420FEF789BB00BF0820FEF722
:10AEF00085BB00BF1020FEF781BB00BF4FF4787008
:10AF0000FEF77CBB4FF47C40FEF778BB30B50C46B7
:10AF100083B0054618B3036803F13F4303F57E038E
:10AF20009B0A104A134493F8880E45F09BFBA988AE
:10AF30000091C4F30013C4F341128DF80430286863
:10AF40008DF8052004F003036946C4F381048DF8ED
:10AF500006308DF8074040F0EDFB03B030BD4FF0F8
:10AF6000FF33DEE7C050050800B1CFE7704700BFF0
:10AF70000E4B70B5D3F89867002E14DD0C4C0025ED
:10AF800003E0B54204F120040DD0237F0135002BEE
:10AF9000F7D0E0680028F4D0217DFFF7B7FFB54275
:10AFA00004F12004F1D1012070BD00BF88270020EA
:10AFB00044190020F8B502680446007C1368022199
:10AFC00081400B4206D1116808238340194218BF03
:10AFD0005360F8BD04238340656951605360EFF30B
:10AFE0001183502282F312882A6C1168C9070BD58D
:10AFF000DBB283F3118895F86C3013B195F8856056
:10B00000EEB12268207CDEE7516889B279B9D5E9D2
:10B01000097087422AD0AE690644D66021D82E69CD
:10B02000301A80B25060A962002185F86C10116856
:10B0300041F00101DBB2116083F31188DBE795F881
:10B040007A000CF0C1FFAB6EDA68012166F3C3022F
:10B05000DA6085F885100028D3D02821FFF756FF45
:10B06000CFE7381A80B25060AF62DDE7012285F881
:10B070006C20BDE770B50C4682B016460546002828
:10B0800047D0036803F13F4303F57E039B0A224A3E
:10B09000134493F8880E45F0E5FAAB880093C4F3A7
:10B0A0004113C4F300128DF80530694604F0030320
:10B0B00028688DF80420C4F381048DF806308DF8DB
:10B0C000074040F037FBAB882A68B3FA83F3C3F13B
:10B0D0001F0303F00701890013F0F80F06FA01F6C9
:10B0E0000BD1136A0F2000FA01F123EA010111626A
:10B0F000136A1E43166202B070BD536A0F2000FA35
:10B1000001F123EA01015162536A1E43566202B003
:10B1100070BD4FF0FF33BAE7C050050800B1A9E792
:10B1200070472DE9F04FC04F542303FB007385B0E7
:10B13000D3F8C8518046002D00F06C81D3F8D0417F
:10B140001CB1A379002B40F06581542303FB0873E5
:10B15000D3F8D491B9F1000F04D099F80630002B40
:10B1600040F0588108F10103DBB214B11522A2713D
:10B17000E371B9F1000F04D0162289F8062089F88E
:10B180000730287E45F06EFA2046FFF70BFD484653
:10B19000FFF708FD19212046FFF7E6FE1921484672
:10B1A000FFF7E2FE09264FF0330A02E00A200FF013
:10B1B000EDFC24B12368A2881B691A4202D1BAF1BE
:10B1C000010AF3D12046FFF7F3FC05200FF0DEFC67
:10B1D0002046FFF7E7FC05200FF0D8FC013EE2D146
:10B1E0002046FFF7E5FC05200FF0D0FC4846FFF7AE
:10B1F000DFFC4FF0540A05200FF0C8FC0AFB08FAE8
:10B20000204607EB0A08FFF7CDFC05200FF0BEFC37
:10B210004846FFF7C7FC98F8DA3198F8D821834FF1
:10B22000002B14BF362116212046FFF777FF98F830
:10B23000DA3198F8D921002B14BF3621162148465F
:10B240005744FFF76BFF3C223146384649F0D3FEA6
:10B25000D8F8C8315C68C8F8E041684640F066F943
:10B26000DDED037AB8F8DC919FED717A9FED715AAC
:10B27000F8EE677AB0EE084AC7EE275AB64640F2B3
:10B28000145807EE909A9FED6C7AF8EEE77A25EE67
:10B29000844AC7EE274ADFED697AB0EE007AE5EE20
:10B2A000877AA5EE875A74EEE72A37EE856AF7EEBD
:10B2B000003AB9F5C87F0EF1010C07EE90CAD5BF70
:10B2C000642332234FF4967078200344B8EEE77A73
:10B2D00007EE903A27EE257AF8EEE76AD8BF4FF4EA
:10B2E000167A86EE873ACABF4FF4827A41464FF407
:10B2F000FA7101EB0A0373EE636AFCEEE67A17EE6D
:10B30000902A07EE90AAB8EEE73A07EE903A23EEBD
:10B31000243AF8EEE77AC3EE276A36EEC53A72EEC3
:10B32000E66AC3EE077A77EEE37AFCEEE77A17EE89
:10B33000901AC6EE877A77EEE37AFCEEE77A17EE9C
:10B34000903A03F1020A0AEB010B07EE90BAF8EE0D
:10B35000677AF0EE466AE7EE276AF4EEE64AF1EE27
:10B3600010FA5ADC5FFA82FABAF10F0F57D8323866
:10B3700007EE900AF8EEE77A77EEC47AC7EE876AAE
:10B38000FCEEE67A17EE900A5FFA80FABAF10F0F38
:10B3900045D81FFA81FABAF1FF0F40D81FFA83FA95
:10B3A000BAF1FF0F3BD81205254E4AEA0E7302F0A0
:10B3B0007F620004134300F47F00034306EA012187
:10B3C00043EA01063846FDF707FE23686FF30003E2
:10B3D00023602661236843F470632360A3686FF3DE
:10B3E0008A23A360A3686FF30903A360A36843F4EF
:10B3F0000043A3600022114695F91A0040F0E2F9DB
:10B40000002295F91900114640F0DCF9236843F059
:10B410000103236005B0BDE8F08F013193E7BCF173
:10B420000F0FCFD0E64644E780380020603A002076
:10B43000286B6E4E000016430024744900007042D1
:10B4400000FFFF002DE9F843B04D05EB0017D7F8DA
:10B450005C33002B00F0C5800446060197F86603B4
:10B4600045F000F997F8663303F01F025B090121EC
:10B47000013B01FA02F2042B0BD8DFE813F0DC00E9
:10B480000500E200E800EE00A14B596921EA020242
:10B490005A61AB19013493F860030CF095FDE4B2E6
:10B4A000804610B112238371C471AB1993F8610304
:10B4B0000CF08AFD814610B11323C4718371AB195E
:10B4C00093F862030CF080FD074610B11423C47199
:10B4D0008371AC19404694F863232621FFF71EFEC2
:10B4E00094F8642348462621FFF718FE94F8652354
:10B4F00038460621FFF712FED4F85C33854A9342A2
:10B5000000F0C980844A934200F0AD80834A9342A0
:10B5100000F0E680824A934200F0ED80AB19814A48
:10B52000D3F85C33596841F002015960596841F021
:10B5300001015960D9696FF3CB21D96192F89C134D
:10B5400000295FD1186861F3CF301860186861F383
:10B550008E301860186861F38A201860196892F8B4
:10B56000A34364F34921196092F89D0319680128E7
:10B570005BD06FF308211960196860F382011960CC
:10B5800092F89E1307292ED858686FF34920586007
:10B5900058686FF308205860186861F3C500186098
:10B5A000196892F89F4364F3C7111960196892F8FB
:10B5B000A04364F3CB211960196892F8A14364F3A6
:10B5C00041011960196892F8A22362F30001196021
:10B5D0001A69072060F30F021A611A6842F04002EC
:10B5E0001A60BDE8F8830A296DD058686FF34920C6
:10B5F0005860586840F480705860186861F3C5005E
:10B600001860CDE7012951D0022937D00329A5D1EF
:10B61000196841F400411960196841F480411960CA
:10B6200019686FF38A21196098E7012CA1D141F4C0
:10B6300080711960A0E7364B196921EA02021A618C
:10B6400027E7334B996921EA02029A6121E7304BDF
:10B65000596A21EA02025A621BE72D4B196A21EA54
:10B6600002021A6215E730483FF0CEFF2F4AD2F8A7
:10B67000203823F48043C2F820384FE7196841F49A
:10B680000041196019686FF38E31196019686FF302
:10B690008A21196062E726483FF0B6FF234AD2F8B4
:10B6A000243823F48053C2F8243837E719686FF33D
:10B6B000CF31196019686FF38E311960196841F440
:10B6C000806119604AE7596841F40071596059680E
:10B6D0006FF30821596019686FF3C50119605FE7BE
:10B6E00014483FF091FF114AD2F8203823F4004368
:10B6F000C2F8203812E710483FF086FF0B4AD2F814
:10B70000243823F40053C2F8243807E78038002097
:10B71000003802400030014000380040003C00404A
:10B7200000340140000000200E00200000300240E4
:10B730000C0024000F0020000D0024002DE9F04F24
:10B740008DB0A94B0793A94BDFF8C0820024A3F565
:10B750006965A74FDFF894A2BB0AA3F58013532BAA
:10B760004FF000064BD8EB5C0C2B48D818F903902F
:10B77000A04B93F8AE33012B40F00781B9F1010FD4
:10B7800033D14FF0010B1FFA8BF148460FF064FEE6
:10B790000FF0F0FE037813B1542B40F01F810BF132
:10B7A000010BBBF1050FEED1ACB34FF0000C8E4A8C
:10B7B00000210BE0EB5C0C2B0FD818F903304B4544
:10B7C0000ED00131A14202F1AC0221DA9068036887
:10B7D0009B0AA3F58013532BECD900234B45F0D1E2
:10B7E00043799AF805009842EBD10136082E45D0EE
:10B7F0005AF81C7FBB0AA3F58013532BB3D97D4B9A
:10B8000093F8AE33013B012BEFD94FF00009B8E7B5
:10B81000BCF1000FE9D1DAF80800774B002205E00F
:10B8200001320E2A03F10C0300F0CA8359688842E2
:10B83000F6D152B29AF805103846FFF7E7FA6F4A88
:10B84000406800235168884203F1010300F09A80A8
:10B850000E2B02F12402F5D14FF0FF33684A03EBBF
:10B86000C30302EB830393F81431002BBDD15F4B6C
:10B87000C6EBC60603EB8606079B9E60079B01345A
:10B88000AC33042C07937FF464AFDFF8849109F2A2
:10B8900004434FF0010B98465A4BD3F898270BF10D
:10B8A000FF339A426BDDD9F80C50002D00F08483F1
:10B8B0002968AE8801F13F41B6FA86F601F57E01AE
:10B8C000C6F11F06890A504B1F68002F40F3A48061
:10B8D0000433002405E00134BC4203F1AC0300F062
:10B8E00099801A688A42F6D13F4AC9F80460AC23AD
:10B8F00003FB0424C9F818405FFA8BF315B1EB7110
:10B900000323AB71404B616C93F87806E36B7200D4
:10B91000032797403B43E363012303FA02F20A4300
:10B920006264002839D0A26C03FA06F63243A2649E
:10B930006DB1304BAA8893F804142B68490141F08B
:10B94000050101F0E5019A612846FFF7DFFA606F13
:10B95000B1B20122FCF754FB20460BF1010BFCF7BE
:10B960002DFC0123BBF1090F89F81C3089F81D302B
:10B9700088F8113009F1200908F118088CD10DB0B0
:10B98000BDE8F08FDBB2013B68E7022B7FF4F9AE34
:10B99000B9F1080F3FF4F5AE27E7A26C06F11001EC
:10B9A00003FA01F10A43A264002D00F08B8003FA30
:10B9B00006F6104BAA8893F804142B68490141F04D
:10B9C0000501120401F0E5019A612846FFF79EFA8D
:10B9D000606FB1B20022FCF713FBBDE74FF0010C22
:10B9E000002C7FF4E4AE00E794160020505F0508B9
:10B9F0000004014080380020F4020020FC000020F8
:10BA000000000020882700209016002098C6050816
:10BA100044190020032C58DC8B4AAC2303FB07237A
:10BA2000D868002800F0C1825422596083F8AC2005
:10BA30000131854A83F8AD107B1C1360834B99F864
:10BA4000102093F8C53308928168814C00229C46EF
:10BA500005E001320E2A04F10C0400F0B1826368A3
:10BA60009942F6D141790068CDF81CC052B2FFF777
:10BA7000CDF9754BDFF800A2D0E90141AC2202FB01
:10BA80000732079BC2E905415146002248688442BB
:10BA900002F101021ED00E2A01F12401F6D16D4BF4
:10BAA00093F8F020002A00F0288268486A496B4A1F
:10BAB0006B4BC0F8EC13C0F8E423C0F8F4330DB0BE
:10BAC000BDE8F08F03FA06F682E7604A032382F8A6
:10BAD000C433EAE7D2B25F49013A02EBC20201EB9A
:10BAE0008202AC24584992F81401099007FB04F42F
:10BAF00001EB040C0146BCF8AC000029D5D1A2F83A
:10BB00001401621002EBA402C2EBC21202EB8232F9
:10BB1000920102EBA4025349520002EBA40202EB91
:10BB2000420E0C4450498C200EEB0E1E00FB02F21C
:10BB300001EB8E0E01F54C7101EB42020A922A686C
:10BB4000CCF808200A9ACCF898203322DCF80C10A4
:10BB5000CCF87C203F4ACCF89C00062B0868126881
:10BB60000791CCF878E000F0F581072BDFF80CC1E5
:10BB70003E4B3F4908BF19463E4B08BF6346B2FBE8
:10BB8000F1F101F1FF3C3049B2FBF3F3AC2202FBCF
:10BB90000712013B9BB2A2F86030A2F880C0C362DA
:10BBA00000238362426942F001024261026863F34A
:10BBB00009220260026863F306120260036843F020
:10BBC00080030360036843F080030360079B597997
:10BBD00001394900C9B207290BD8DFE811F0B801D3
:10BBE0000A00B5010A00B2010A00AF0108000A23E9
:10BBF000436703686FF3000303600022012303938C
:10BC00000193049202920092062246F00BF901235E
:10BC10001A46079B597918680139914001F0FE01D5
:10BC20003FF016FE079A53791268013B5B00DBB2C6
:10BC3000072B29D8DFE813F07D01280078012800C0
:10BC4000730128006E012400901600208038002027
:10BC5000F4020020000000203D6A0108396A010852
:10BC6000456A010894160020883C002010552200E7
:10BC700044950800D0DD0600FC00002040771B0042
:10BC8000136F43F008031367079B1879002840F0EF
:10BC90007781136843F001031360B04AAC2303FBC0
:10BCA000072359690023DAF80420914203F10103C4
:10BCB00000F01E810E2B0AF1240AF4D14FF0FF3A56
:10BCC000A74A0AEBCA0302EB8303A64AD3F8FC0097
:10BCD000079390420CBF3620382044F0C3FC079BEA
:10BCE0009E4AD3F8FC10A048AC2303FB0723D1F8ED
:10BCF000002142F00102C1F80021DA684FEACA03CC
:10BD000007935379D2F800C0944A013BDBB2032B6E
:10BD10009BBF964901EB43030021B3F8701FAC238E
:10BD200003FB07234FF0000E1982734606E094458B
:10BD300000F040810133042B00F0458150F833209E
:10BD4000002AF4D18A4A9E461346D2F89C27013233
:10BD5000C3F89C2703EBCE024FEACE03C2F8A0C77C
:10BD6000034409989A881143998090228149234677
:10BD7000FEF7CEFF079B7A4A7849534402EB8303D0
:10BD8000AC2202FB0717D3F81C31B9691A6861F3BA
:10BD900006021A607B691A6842F002021A604FF4C8
:10BDA000407C4FF4807A1022A4F870C0A4F86CA0F4
:10BDB000A4F86820B7F87CE0A4F86AE0B968022229
:10BDC00001F1180084F86E20206609901031B86FD8
:10BDD00084F86F2007911968606621F4804121F092
:10BDE00010010904090C1960196841F0100119606B
:10BDF000196841F440511960196862F38B21196088
:10BE0000196862F3092119601A6842F080021A6009
:10BE10001A686FF386121A601A686FF345121A6077
:10BE20005A686EF30F025A60099A9A60D8601A68CD
:10BE3000E2615A6822629A6862620021DA68A2624C
:10BE4000A4F88CA0A4F890C0A4F88810079AB7F8BA
:10BE50009C00C4F88020012284F88E20A4F88A0077
:10BE6000D7F898C084F88F201F68C4F884C027F4DE
:10BE7000804727F010073F043F0C1F601F681F60BA
:10BE80001F6847F440571F601F6862F38B271F60CD
:10BE90001F6862F309271F601A6842F080021A6067
:10BEA0001A6861F386121A601A6861F345121A6003
:10BEB0005A6860F30F025A60079A9A60C3F80CC080
:10BEC0001A68E2625A6822639A686263DA68A26357
:10BED0001A6842F002021A60089B89F81030C9F80B
:10BEE0000460C9F80C50C9F818405FFA8BF306E5F6
:10BEF000DBB2099303F1FF3AE2E61849AC2202FBF8
:10BF0000071292F8AD1092F8AC2083F8F02083F875
:10BF1000F110CAE5D36943F40063D361B4E6D36991
:10BF200043F00803D361AFE6936943F40063936180
:10BF3000AAE6936943F008039361A5E60A23036424
:10BF400057E60A23C36354E60A23836351E60A23B0
:10BF500043634EE60849094B11E600BF90160020E6
:10BF60000000002000640240282F0020C050050877
:10BF700088270020198F0008882A1100A0BB0D0017
:10BF80000B920CF021F80B9A0A9048B1079B0A21FA
:10BF9000DA79FFF76FF80A9B5422DA80079B1A6858
:10BFA000536C43F40043536473E6084A022382F857
:10BFB000C4337AE5DB00D3E64FF0FF36314682E446
:10BFC00000235B68FFDE00239B88FFDE80380020B3
:10BFD000F8B590F87A301C09013C072C0FD81A4E9E
:10BFE00006EB44020546B2F8780F03F00F0340FA5F
:10BFF00003F2D20703D595F88570012F01D00120F7
:10C00000F8BD07FA03F3013B1840344447F096FBB0
:10C0100094F8882F0D49104451F8302001EBC001ED
:10C0200010698B881840EBD0002395F87B2085F8A9
:10C03000853008460A21FFF71DF8AA6ED36843F041
:10C040000803D3603846F8BDC05005089837002073
:10C05000094AD2F8983BD2F89C2B002140F22A40A2
:10C0600058605162116841F0010111601A6842F094
:10C0700001021A60704700BF80380020002800F0DD
:10C08000AB812DE9F04F002287B02F2106460FF03B
:10C09000C7FA0546E0B1654FD0F80090C7F89C9B01
:10C0A000FEF7E2FE804698B14068C7F8980B78B179
:10C0B0005F4C002322465168884202F1240203F1BA
:10C0C00001030FD00E2BF6D15A4B93F8F00018B1A4
:10C0D000002007B0BDE8F08F2F2283F8F02083F80E
:10C0E000F100F6E7DBB2DFF84CA1013B03EBC30341
:10C0F0000AEB830393F814B1BBF1000FE8D130468B
:10C100002F26A3F814610BF05FFF0346C7F8A40BBA
:10C1100020B1DE80EA790A21FEF7ACFF464A4749A2
:10C12000002301E051F83320914500F05F81013395
:10C130000F2BF7D1002044F095FAD7F89C0B404A1A
:10C1400003686FF300030360DAF800309342C0F035
:10C15000458103F1B7723B4902F55852A1FB022118
:10C16000890D013989B24A1C0139B3FBF2F3364A11
:10C17000364E1B0AA2FB03231A09A6FB02625208D1
:10C180001B09A7F8A22B013B5200C362A7F8A02B02
:10C190008162436943F00103436103686FF309233C
:10C1A000036003686FF306130360AA7912F00206B6
:10C1B00000F0178102F00106002213464FF0010C37
:10C1C000697901394900C9B207290DD8DFE811F0B2
:10C1D00041010C003C010C0037010C003201080049
:10C1E0004FF0000EC0F874E0CDE901260022039361
:10C1F0000092CDF810C0062245F014FED7F89C0B33
:10C20000036843F0800303606B79013BDBB25A00A3
:10C21000D1B2072920D8DFE811F008011F0003017F
:10C220001F00FE001F00F9001B0000BF8038002027
:10C23000FC0000200000002000000140E85C050830
:10C24000006CDC02819F5E16598B4F01ABAAAAAA33
:10C25000066F46F008060667032B9CBF844BD21876
:10C26000C36894BFB2F8702F00221343C360AB7948
:10C270009B0748BF01314FF0010248BFC9B23FF0F0
:10C28000E7FAD7F8980B224600235168884202F15A
:10C29000240200F0B78001330E2BF6D14FF0FF36A9
:10C2A00006EBC6060AEB8606724BD6F8FC009842EF
:10C2B0000CBF3620382044F0D5F9D6F8FC10D1F860
:10C2C000003143F00103C1F80031D7F8986B2246E2
:10C2D000002351688E4202F1240203F1010300F0B1
:10C2E0008E800E2BF5D16449584600236022FEF75C
:10C2F0000FFD33686FF30003336030463FF092F96F
:10C300006B79D7F89C5B012B00F0A880022B00F022
:10C31000A880032B00F0A880042B16BF05EB830335
:10C3200005F1400103F13001D7F8983B1A684BF64C
:10C33000EF7002401A601A6842F010021A601A6820
:10C34000012060F30D321A601A68022060F38B221C
:10C350001A601A6860F309221A601A6842F08002B3
:10C360001A601A686FF386121A601A686FF3451222
:10C370001A605A6840F22A4060F30F025A603F4A3E
:10C380009960DA60002261688B4204F1240402F1B2
:10C39000010231D00E2AF6D14FF0FF3202EBC20279
:10C3A0000AEB820AD8F80800DAF81C21116860F359
:10C3B000060111601A6842F002021A601A68012030
:10C3C00002431A606B6C43F400436B642B680343B5
:10C3D0002B6007B0BDE8F08F002070474FF0FF31B1
:10C3E000C5E602F00102B4460123E9E6204A02EB69
:10C3F000C30393F82C0C9EE6D2B2013ACEE75FFA63
:10C4000083FB70E75E1CF6B2013E49E7C66946F45D
:10C410000066C66120E7C66946F00806C6611BE7EC
:10C42000866946F40066866116E7866946F0080666
:10C43000866111E74FF0000EC0F840E0D4E64FF0FF
:10C44000000EC0F83CE0CFE64FF0000EC0F838E038
:10C45000CAE64FF0000EC0F834E0C5E605F134013D
:10C4600062E705F138015FE705F13C015CE700BFD9
:10C47000C0500508006402400D82000808CB00206F
:10C4800030B40B4A0B4B82B0CA25532402EB800018
:10C4900000225D625C62019201905D625C620198C3
:10C4A000FF2201605A625A6202B030BC704700BF7E
:10C4B0005028004000280040F0B5013B0E469DB2D8
:10C4C000644B34681B68B3FBF2F2013AE562A26286
:10C4D000636987B043F00103BDF830109DF8342044
:10C4E000636123686FF30923236023686FF30613E6
:10C4F00023607579B37907460AB183F0010313F01D
:10C50000020010D0002203F001004FF0010C13468E
:10C51000013D6D00EDB2072D0AD8DFE805F01D09D9
:10C520004A0980095C6E03F0010284460123EFE7AB
:10C53000CDE90120002200922946CDF810C00393D6
:10C5400006222046023D45F06DFC052D14D8DFE89B
:10C5500005F03D1373134F6161630021CDE90203C0
:10C560000192CDF810C000910622204645F05AFCF9
:10C57000A36943F00803A3613268536C43F400439A
:10C580005364136843F0010313607379012B58D08F
:10C59000022B59D0032B5AD0042B16BF02EB830376
:10C5A00002F1400330330021C7E90032196007B0BF
:10C5B000F0BDA16301920022CDE902030092CDF803
:10C5C00010C006220221204645F02CFCA36943F44A
:10C5D0000063A361D0E72164019200220092062249
:10C5E000CDE90203CDF810C01146204645F01AFCF3
:10C5F000E36943F40063E361BEE7616701920022EF
:10C60000CDE902030092CDF810C006220721204692
:10C6100045F008FC236F43F008032367ACE7E163B0
:10C6200001920022CDE902030092CDF810C006224B
:10C630000421204645F0F6FBE36943F00803E3617B
:10C640009AE702F13403AEE702F13803ABE702F1F7
:10C650003C03A8E7000000202DE9F04FD0F8089037
:10C66000046C99F805A099F80680D9F80060054691
:10C6700087B020460AF1FF3B3EF0D4FF5FFA8BF310
:10C680005F000022FFB208F0020885F82C20072F77
:10C690000DD8DFE817F0D2000C00DB000C00E4003E
:10C6A0000C00ED000800326F6FF3C3023267B8F17F
:10C6B000000F15D1AAF10203022B05D84FEA4A0850
:10C6C000A8F102085FFA88F80022414630463FF0A0
:10C6D000BFF8BBF1030F11D8DFE80BF096918C0C7B
:10C6E000022B00F284804FEA4A0808F1FF385FFA13
:10C6F00088F8E9E7F3696FF30923F36195F83B30B4
:10C70000049395F83A30039395F83930029395F8ED
:10C710003830019395F83730009395F8363095F816
:10C7200035203946304645F07DFB99F805309A1E94
:10C73000022A50D9002373634146012230463FF05C
:10C7400087F8072F09D8DFE807F073086E08690833
:10C750006404336F43F00803336723684BF6EF71CB
:10C7600010220B402A84236023681343236023682C
:10C7700095F8292062F30D332360236895F827206C
:10C7800062F38B232360236895F8262062F3092344
:10C790002360236895F8252062F3C713236023687C
:10C7A00095F8242062F386132360236895F82820E7
:10C7B00062F34513236063686A8C62F30F0363605E
:10C7C000D5E90623A260E360236843F002032360F7
:10C7D00007B0BDE8F08F5B00023BDBB2042B53D007
:10C7E000062B4ED0022BA7D10023B363A4E74FF052
:10C7F000000869E7F3696FF30103F3617EE7B3694A
:10C800006FF30923B36179E7B3696FF30103B36190
:10C8100074E7F36943F40063F3619EE7F36943F05F
:10C820000803F36199E7B36943F40063B36194E7E4
:10C83000B36943F00803B3618FE7B2696FF3C302D2
:10C84000B261B8F1000F3FF435AF49E7B2696FF359
:10C85000CB22B261B8F1000F3FF42CAF40E7F26990
:10C860006FF3C302F261B8F1000F3FF423AF37E773
:10C87000F2696FF3CB22F261B8F1000F3FF41AAF07
:10C880002EE70023336457E70023F36354E700BF28
:10C890002DE9F04FB44B93F8784685B024B90124C4
:10C8A000204605B0BDE8F08FB04ED6F8A0520CF08F
:10C8B000A5FAAF4B93F8DC3B002B00F04D81AD4B5C
:10C8C000AD4FA3FB05235B09A7FB0327FF0807EB7D
:10C8D0008707A3EB4707D6F80C38C31A0093A24B7F
:10C8E00003F56D7BFBB206F56A78019306F5D1631B
:10C8F00008EB87075D4600269946CDF80CB011E09D
:10C900002846FFF7A9FE9A4B93F8DC4B0136A64266
:10C9100008F15C0807F15C0709F1140905F14C0501
:10C9200080F2C180009A002A03DB2B6B934200F354
:10C93000FD808D4B4C2202FB063393F8E033002B35
:10C94000DED0AB68A9891A682B6C5B681FFA83FE7E
:10C95000D368CEF1160E23EA0103BEF1070FD360B0
:10C96000CED9824AD2F890360133C2F89036AB6CF9
:10C9700002939C46002201215CF8044B92468B46B0
:10C980001BE0DCF80000BAF1140FA0EB04031DDC7F
:10C9900013F1080448BF03F1170423110AEB241A0A
:10C9A0000446581E013102FA03F38E450BFA00F2D9
:10C9B00042EA03020CF1040C08D37145E1D3CAF139
:10C9C0001503DCF800404FF0150AEAE7BAF1150F3D
:10C9D0005ED16A48C2F38423C2F3441100EB83039F
:10C9E00000EB8101D3F8903FD1F8901F1B0243EA7E
:10C9F000011302F01F0100EB8101C2F3C43200EB0E
:10CA00008202D1F8901FD2F8902F0B4343EA0233F1
:10CA100083EA132282EA121202F00F020F2A37D1A0
:10CA2000C3F30F134FF6FF72934231D0B3F5606F2B
:10CA300000F08180A9F80C3098F8582001988242C3
:10CA400010D0B968D8F80020521AC8F80020396B05
:10CA5000D8F80420521AC8F804200022BA603A63B9
:10CA600088F85800D8F800200132C8F80020BA68C9
:10CA70000132BA604FF6FF7293427FF441AFD8F8AB
:10CA800004300133C8F804303B6B01333B6337E7B4
:10CA9000364AD2F88C360133C2F88C36002E3CD0A0
:10CAA0004FF6FF73C8E73149DDF80CB001220023CF
:10CAB00081F88C27C1F80C38002C3FF4F0AE04EB61
:10CAC000C40304EB43040BEB840403250CE0022EA7
:10CAD00003F1FF331FD9002101220BF14C0B3EF073
:10CAE000B7FE5C453FF4DBAEDBF8083018684268FF
:10CAF00065F3061242609BF810105B7911F0020199
:10CB000003F1FF36A3F102024FEA4303DFD1022A09
:10CB1000A3F10203E0D8D9B2DEE702F23470029941
:10CB2000582248F005FA4FF6FF7385E700242046A7
:10CB300005B0BDE8F08F0C4991F8152602EB4202D2
:10CB400001EBC202324492F825260D2A7FF472AF1F
:10CB5000802289F81E206FE70449012281F88C2782
:10CB6000C1F80C389CE600BF9016002088270020F2
:10CB7000803800201F85EB51CDCCCCCCC0500508AF
:10CB8000F0B5044685B0A56EEB686FF34D33EB60EE
:10CB900068466679A7683EF0C9FC934B9D4206F053
:10CBA000020605D003F580639D4201D0039B00E09F
:10CBB000029B03EB83035A008C4BB2FBF7F2A3FBFF
:10CBC0000213DB0803EB8301A2EB4102042A88BFB6
:10CBD0000133AA689BB263F30F02AA60EB686FF39C
:10CBE0001C73EB60EB686FF30C33EB602B6966F33F
:10CBF0000D332B616679A26E7107C6F3800300F1D5
:10CC00008880D16863F34921D160D16863F38A21B8
:10CC1000D16053696FF30823536153696FF349235C
:10CC20005361217911F0010740F0C48011F0020531
:10CC300040F0BB806E4B03F1200053F8041F8C4280
:10CC400054D09842F9D116F008035DD0536943F0EF
:10CC500008035361D36843F40053D360002F3DD0E1
:10CC6000E06B002800F0AB806569666EA7893EF036
:10CC7000D9FCE36B1A684BF6EF710A401A601A6828
:10CC80001A601A68012161F30D321A601A686FF395
:10CC90008B221A601A686FF309221A601A6842F030
:10CCA00080021A601A686FF386121A601A6842F0DE
:10CCB00020021A605A6867F30F025A609E60DD60B6
:10CCC0001A680A431A60A16E4A6942F040024A613A
:10CCD0005B6821799BB2E36501F0020515BBA26E8A
:10CCE000D36843F40053D36005B0F0BD002CAAD044
:10CCF00094F88430002BA6D0A16E0B6943F4004356
:10CD00000B6116F00803A1D1516963F3C3015161AE
:10CD1000A0E7D3686FF34923D360D36843F48063FB
:10CD2000D36076E7206C002855D0266EA569278A47
:10CD30003EF078FC236C1A684BF6EF710A401A60DB
:10CD40001A6842F010021A601A68012161F30D326C
:10CD50001A601A686FF38B221A601A686FF309223F
:10CD60001A601A6842F080021A601A686FF386121D
:10CD70001A601A686FF345121A605A6867F30F0257
:10CD80005A609E60DD601968A26E41F002010020C9
:10CD900019605860536943F0800302F10C0153613C
:10CDA0000B6843F040030B609AE7D36843F0080335
:10CDB000D3603FE7D36843F00403D36036E76FF0F6
:10CDC00020031360D36843F02003D360D36843F09B
:10CDD0001003D36082E7A26ED36843F0800302F1B0
:10CDE0000C01D360DCE700BF00100140CDCCCCCCFF
:10CDF000604400202DE9F843434C04EB8004D4F850
:10CE0000E44B002C3DD0656FA1601F463F4B236073
:10CE10006B68A366AB6B63616B6BA361EB8FE360C5
:10CE2000AB8F23613A4B23670646204690460BF0B2
:10CE300075FA95F82C0000285DD194F87A000BF073
:10CE4000C3F80222390794F8789084F885201BD51E
:10CE500088B317F0510F0CBF0122002217F0010F09
:10CE600014BF4021202141EA021101360B22C67174
:10CE7000827194F87B2041F00601FEF7FBF8E36B2A
:10CE80006BB32046BDE8F88318F0020F13D090B1C1
:10CE90000B22827117F0410706F10102C2712DD1F8
:10CEA000A36EDA68012167F3C302DA6084F88510A3
:10CEB0002821FEF72BF818F0010FE0D048460BF0C0
:10CEC00083F80028DBD00C220136C671827194F8F9
:10CED00079200A21FEF7CEF8E36B002BD1D195F82B
:10CEE000301095F92E00C1F3011289093EF06AFC59
:10CEF0002046BDE8F88343F0B5FB9EE794F87B201D
:10CF00000A21FEF7B7F8D6E780380020D060050880
:10CF1000D1BF00082DE9F047884600294AD04618BD
:10CF2000DFF89890DFF898A0451E013E8024EFF3CB
:10CF3000118184F31288D9F89832D9F89C02D9F873
:10CF40009822D9F89CC2C9B281F31188624512E0D7
:10CF500001200DF0B1FFEFF3118184F31288D9F8AD
:10CF60009832D9F89C02D9F89822D9F89C72C9B2A3
:10CF700081F31188BA428CBF002201221B1A03EBF5
:10CF8000C223012BE4D0EFF3118284F31288D9F885
:10CF90009C3215F8011F5344D2B283F8041CD9F80F
:10CFA0009C320133C3F30A03C9F89C3282F311881F
:10CFB000B542BCD14046BDE8F08700BF88270020BD
:10CFC00080380020F8B50D4B93F89C3C032B00D023
:10CFD000F8BD0B4E0D46D6F8A072144609E0FFF7D7
:10CFE00099FFD6F8A032DB1B322BA4EB00040544DA
:10CFF000EED8002C21462846F1DCF8BD9016002022
:10D0000088270020344BD3F8BC39596A91F8523044
:10D01000012B56D170B5314C314AD4F80C0360BBAA
:10D02000D2F89802D2F89C32984221D0D2F89802D5
:10D03000D2F89C32984249D8D2F89C32D2F8980261
:10D040001B1AD2F8982291F8520088B1B3F5007FEC
:10D0500028BF4FF400731D46002381F85230214948
:10D0600021480A44ABB281213EF01EFCC4F80C53A7
:10D070001E4B6FF001021A6170BDD2F8985200F099
:10D080003F032844C2F89802D2F89802B0F5006F26
:10D0900004BF0020C2F898020020C4F80C03002B43
:10D0A000BED1D2F8982291F852000028E4D00D4861
:10D0B00081F852300244BDE870400B4881213EF0B7
:10D0C000F3BB0A4B6FF001021A617047D2F8983235
:10D0D000C3F50063B5E700BF901600207849002033
:10D0E000882700208444002048200020004C014074
:10D0F00042F00AB9344B292270B523F88A2C23F860
:10D10000822CFCF7F3FA314A314ED2F83438314CE4
:10D1100043F08003C2F83438FBF782F943F00AF990
:10D120003FF042FA4FF0A0402B49826B01F580534B
:10D1300042F400128263C3F87C634FF4016601225B
:10D14000A3F87A634FF481760025C1F8B40983F817
:10D15000782383F8852304F5737104F56972A3F8C5
:10D16000806383F8835344F06DFA23681B4A1C4C98
:10D170001C4EA2FB03239B09013B0422E262A36233
:10D180006369194A43F001036361236865F3092366
:10D1900023602368C6F8102365F306132360236811
:10D1A00043F080032360E36843F00103E3606920F8
:10D1B0002A4602213EF006FB236843F00103236068
:10D1C00006F5447070BD00BF80380020003002407A
:10D1D000400040010000002090160020D34D621056
:10D1E000004C01407849002000610508BFF34F8FD3
:10D1F0000549064BCA6802F4E0621343CB60BFF3F3
:10D200004F8F00BFFDE700BF00ED00E00400FA050E
:10D2100008B500210320FFF733F972B6FFF7E6FFE8
:10D2200008B5184CD4F8642394F86A034AB111681D
:10D23000938809690B40F8B9003B18BF0123002B04
:10D24000F4D114200DF038FE00BFD4F8643363B17C
:10D250001A689B88116994F86A230B4042B9003B15
:10D2600018BF01230BB1FFF7D3FFFBF7DFF9EBE7A3
:10D27000B3FA83F35B09F5E7B3FA83F35B09002B99
:10D28000D4D1DEE77849002008B572B6FFF7AEFFCB
:10D29000F0B5AC4BB3F5C07F85B000F08D8100F2E6
:10D2A0001381B3F5807F00F03481B3F5A07F40F0A7
:10D2B00006810324A44B1B8A03F00703A34240F01A
:10D2C0007D81A2483EF0A0F9A149A24B0A68A2487C
:10D2D00042F480720A60FF24CA2153225C625962C0
:10D2E0005A62D0F87438DB0000F1F9809B4A994B00
:10D2F0009B4FCA2553240020FF215D625C6202908F
:10D3000002925D625C62029E0432BA4230605962EF
:10D310005962F2D193490020FFF7B2F8924B0021F5
:10D3200003910393039B1B680093009B012B00F068
:10D33000E68086483EF068F9854A8C4B10690121E9
:10D3400061F3020010611A6E61F301021A663DF08A
:10D350004DF98749804A0B6843F480330B60D2F85B
:10D3600000389F0307D44FF44053D2F800188E03BF
:10D3700001D4013BF9D1D2F800389D03EFD57C49A7
:10D38000754A0B6843F001030B60D2F800389C0724
:10D39000FBD5774B70495A6842F480025A605A684C
:10D3A000482464F38E125A605A68012060F3030225
:10D3B0005A605A6860F312425A601A6842F08072EA
:10D3C0001A60D1F800389801FBD5694B9A686FF361
:10D3D00007129A609A68042161F34F329A609A6842
:10D3E00061F38C229A60D3F8A42042F03002C3F893
:10D3F000A4209A68022060F301029A609A68C2F33E
:10D400008102022AFAD1D3F8A4206FF30512C3F8DF
:10D41000A420D3F8A4200B2161F30F32C3F8A42079
:10D42000D3F8A0206FF34D32C3F8A0209A6812F011
:10D430000C0FC2F3810100F0B18002296BD04D4C7A
:10D440004D4B23604A4A4D49906823684C4DC0F3C8
:10D450000310014411F8881CCB402360EB684FF6A1
:10D46000FF010B4043F0052343F47A03EB603A4994
:10D47000444B506FAB60D1F83438434823F000433D
:10D48000C1F83438536F43F0807353673EF0BCF8F3
:10D490000BF06AFC23683D4AA2FB03239B09013B76
:10D4A000B3F1807F09D24FF0E022F02053610021D8
:10D4B000072385F823009161136105B0F0BD802B2F
:10D4C00014BF05240624F5E6B3F5E07F05D0B3F5D7
:10D4D000007F14BF05240024ECE60124EAE62C4B6F
:10D4E000002201920193019A03F11973126803F566
:10D4F0009E3303F2E1139A427FF4F8AE0EE7032065
:10D50000FEF7BEFF234B1A6882F308885B689847D2
:10D51000FEE70424CEE65A685A6859685868154CE4
:10D52000154DC2F38813C0F302401B4A125C01F090
:10D530000F0105FB03F312FB01F2B3FBF2F32360CF
:10D5400080E700BFC000000000C0FF1F1C004000BB
:10D550000070004000280040003002405428004085
:10D560006C280040316665425C280040003C024067
:10D57000003802400000002000127A00B86105085F
:10D5800000ED00E0000000081F003000D34D6210E5
:10D59000502800400000FF1F90C60508D3F8A020C7
:10D5A0000D4C52047FF54CAFD3F8A030DB047FF56F
:10D5B00047AF0A4B236045E702247BE6084B094945
:10D5C000094A59605A6059645A6444F0BFFC2046C5
:10D5D00044F09AFCFFF758FE00000020006CDC02CB
:10D5E000003C024023016745AB89EFCD0149024869
:10D5F000FCF722B8081E00200000014002494FF04D
:10D600008040FCF719B800BF341E002001490248D1
:10D61000FCF712B8601E00200004004001490248D7
:10D62000FCF70AB88C1E002000080040014902489F
:10D63000FCF702B8B81E0020000C0040F8B5CB780B
:10D6400013B900252846F8BD00F110070C46064620
:10D65000897838460AF066F905460028F1D0E07866
:10D660000AF0B2FCB06123780133DBB210B1C371B0
:10D67000222383710521FDF777FCB069FDF792FA4B
:10D680000C4AD2F8A032632BFBD90B480AF01AF9E6
:10D69000B08238463AF02EF8074620B9E0780AF012
:10D6A000F3FC3D46CEE7306986F8887044F0FEFE14
:10D6B000C8E700BF8827002040420F00264A92F8A2
:10D6C000C0377BB3D2F8C417884235D0012B29D09C
:10D6D000D2F8CC17814233D0022B23D0D2F8D41702
:10D6E00088422FD0032B1DD0D2F8DC1788422BD0D4
:10D6F000042B17D0D2F8E417884227D0052B11D07D
:10D70000D2F8EC17884223D0062B0BD0D2F8F417AE
:10D7100088421FD0072B05D0D2F8FC17814208BFE2
:10D7200007230AD002EBC30103F1010CC1F8C407BF
:10D7300082F8C0C7184670470023DBB2184670470E
:10D740000123FAE70223F8E70323F6E70423F4E7CB
:10D750000523F2E70623F0E78827002038B5384B89
:10D760004C2202FB003292F8C32302B938BD93F871
:10D7700014C693F8152694450ED002EB420403EB31
:10D78000C40494F818E60EF1FF35012D4FEA420467
:10D7900046D9BEF1030F3ED04FF04C0C0CFB003CC1
:10D7A000ACF8B413EFF31181902282F31288BCF825
:10D7B000B4439CF8B62342EA44020024C9B292B2B0
:10D7C0008CF8B64381F31188110A93F8784681EA00
:10D7D0001211514004B1C9434C2404FB003412011E
:10D7E000184BD4F8FC03D3F86C3301F00F0192B25C
:10D7F0000A4301219847D4F8F813B4F8C0C3CA8883
:10D80000D4F8F43342EA0C02CA8058601A6842F035
:10D8100001021A6038BD551C05F003056545BBD0F3
:10D82000224403EBC202024492F825160029B3D029
:10D830004C2202FB0032012482F8B643ACE700BF61
:10D84000901600207849002030B4037F083300EBA5
:10D8500043035B88047F9BB214B98469022C51D0C6
:10D86000FF2B3AD80382037F012B16D08369032B49
:10D8700026D08369022B23D0038A0468244D606874
:10D88000DBB242EA034242EA010300EA0502134323
:10D8900043F00073636030BC70478369022BE5D1AD
:10D8A000038A04681A4D6068DBB242EA034242EA26
:10D8B000010300EA05010B4343F080736360EAE76C
:10D8C00004680A43018A636811480340C9B21343DC
