:020000040800F2
:10000000F0FF0220B1530708095407089DDA0208DF
:10001000095407080954070809540708000000009C
:100020000000000000000000000000000954070864
:10003000095407080000000009540708D5620108A8
:100040000954070809540708095407080954070800
:100050000954070809540708913501089535010826
:10006000993501089D350108A13501080954070893
:1000700009540708095407080954070809540708D0
:1000800009540708095407080954070809540708C0
:10009000095407080954070809540708A535010839
:1000A000FDAB000825AC00084DAC0008E9AB00082A
:1000B00075AC000889AC00089DAC000851AA000886
:1000C00045AA000869AA00085DAA000809540708A3
:1000D00009540708A9AA0008B5AA0008C1AA00087F
:1000E000A93501080954070809540708D9AC0008C4
:1000F00001AD000829AD0008C5AC00080954070887
:100100000954070809540708B1AC00080954070846
:1001100009540708CDAA000809540708095407081C
:1001200065AD000879AD00088DAD0008A1AD0008EF
:10013000B5AD000809540708095407080954070811
:1001400009540708095407080954070899CE0008FC
:10015000C9AD0008DDAD0008000000000954070823
:1001600081AA000875AA0008000000000000000035
:10017000095407080954070809540708000000003B
:100180000000000009540708D9AA0008095407080C
:1001900009540708000000000000000000000000F3
:1001A00000000000000000000000000009540708E3
:1001B0000954070800000000095407080000000067
:1001C000000000000000000000000000000000002F
:1001D0000000000000000000095407080954070847
:1001E00009540708B5CD00080954070851AD0008A7
:1001F000F1AD000805AE000819AE00082DAE0008EC
:0C02000041AE000855AE000869AE0008D1
:1080000010B5054C237833B9044B13B10448AFF3D2
:1080100000800123237010BDA01E0120000000007D
:10802000A4DC080808B5034B1BB103490348AFF3B0
:10803000008008BD00000000A41E0120A4DC080888
:10804000D0E907239A422FBFD01AC0688018C01AFF
:10805000704700BFD0E9092300699A4238BF12185F
:10806000D31A0138C01A7047D0E90902101AB0FAC1
:1080700080F04009704700BF0246036A4069D1683A
:10808000C05C01338B4228BF00231362704700BFDE
:10809000436A8269D154436A0169426B01338B425E
:1080A00028BF00234362D36843F08003D360704746
:1080B000436B186810F0100002D01A685B6801204A
:1080C000704700BFF0B54469B4B90368C3F30A024E
:1080D000A2B903F17842B2F5002F44D303F1774EF1
:1080E0000EF5780EBEF5002FC0F08D80BEF5002F86
:1080F0000D6810D3043303602046F0BD03F17842CD
:10810000B2F5002F0D6849D303F1774E0EF5780EC6
:10811000BEF5002FEED29C490A6D42F001020A65BD
:108120001D60CB6C13F0010300F088804FF48012C7
:10813000CB6C13F0010340F09D80CD6CC5F380063D
:108140006D0700F1AB80CB6CC3F30015DB0640F18B
:10815000B680012A00F091800B6D66F300036FF08A
:1081600001040B65C8E7884D2A6942F002022A61C2
:108170006B612A6942F040022A61EA68D60700F181
:10818000A680EA68520700F11981EA68D70600F173
:1081900015812A6964F341022A610D687A490A69E6
:1081A00042F001020A611D60CB6813F0010318D090
:1081B0004FF48012CB6813F0010351D1CD68C5F3A1
:1081C00080066D0761D4CB68C3F30015DB066ED55E
:1081D000012A47D00B6966F300036FF001040B61BD
:1081E0008AE7CA685707C2F3800550D4CB68DE0619
:1081F000C3F3001240F1DC800B6965F300036FF0FC
:1082000001040B6178E7604D2A6D42F002022A6595
:108210006B652A6D42F040022A65EA6CD60700F1D0
:108220008D80EA6C520700F1D080EA6CD70600F12D
:10823000CC802A6D64F341022A6557E7CA6C570760
:10824000C2F380052CD4CB6CDE06C3F3001240F1E0
:10825000C3800B6D65F300036FF001040B654BE702
:10826000013AA7D1484B1A696FF300026FF001047D
:108270001A6141E7013A7FF45BAF434B1A6D6FF32C
:1082800000026FF001041A6536E7012AEAD00A6994
:1082900063F300026FF001040A612DE7012AECD0BC
:1082A0000A6D63F300026FF001040A6524E7012AF6
:1082B000D8D00B6965F300030B6103681AE7012A44
:1082C000DBD00B6D65F300030B65036812E74FF01D
:1082D000004CEA6812F0010213D1EE68C6F3800E7A
:1082E000760719D4EA68D706C2F300161ED5BCF18A
:1082F000010F09D02B696EF341034FF0FF342B615E
:10830000FAE6BCF1010CE4D11F4B1A696FF341028C
:108310004FF0FF341A61EFE6BCF1010FF4D02B6986
:1083200062F341034FF0FF342B61E5E6BCF1010F2E
:10833000EAD02A6966F341022A612EE74FF0004C29
:10834000EA6C12F0010213D1EE6CC6F380077607D7
:108350001CD4EA6CC2F30016D20621D5BCF1010F81
:1083600009D02B6D67F341034FF0FF342B65C3E653
:10837000BCF1010CE4D1044B1A6D6FF341024FF0D4
:10838000FF341A65B8E600BF003C0240BCF1010FA3
:10839000F1D02B6D62F341034FF0FF342B65ABE658
:1083A000BCF1010FE7D02A6D66F341022A659DE614
:1083B0000B6962F300030B6103689BE62B6964F3AE
:1083C00041032B614FF0FF3496E62B6D64F34103BC
:1083D0002B654FF0FF348FE60B6D62F300030B65E6
:1083E000036887E643899BB2FF2B30B412D9FF2381
:1083F000038103890468114D6068DBB242EA0343DC
:1084000043EA010200EA05010A4342F08072626019
:1084100030BC7047438904689BB2038103890748D5
:10842000DBB242EA034343EA0102616801400A43C6
:1084300042F00072626030BC704700BF009800FCE0
:10844000C368072B00F2A780DFE803F076768E8EF4
:108450004D4D040403689A69D20600F194809A692C
:1084600012F0080240F0F3809969890640F13181E9
:108470002021D961196821F0FE011960596862F361
:1084800009015960596862F30C315960596862F307
:1084900017415960596862F318615960596862F36D
:1084A0008A2159609969890748BF9A629A69D107F8
:1084B00003D49A6942F001029A619A6952070FD572
:1084C00042685B6A511C4160137003899BB23BB1E7
:1084D0004389013B9BB243810389013B9BB20381EA
:1084E00001230361704703689A6912F0100240F09B
:1084F0009580996911F0800100F0BA80196821F027
:1085000040011960418989B2002944D000B55968F9
:1085100083B0C1F309010190FFF764FF0198038D57
:108520000268102B13680CBF43F4804343F40043EC
:10853000136003B05DF804FB03689A69D2062BD57B
:108540001022DA619A69910701D500229A629A692C
:10855000D10703D49A6942F001029A6143899BB220
:10856000CBB111230375704703689A69D1065FD5B3
:10857000428992B23AB99969880748BF9A629A6962
:10858000D10740F192801022DA617047428992B29D
:10859000002A40F0B28070479A6992075AD49A69CB
:1085A000110600F187809A69520700F1A6809A6946
:1085B00012F0400240F0A7809969890640F1B1802D
:1085C0002021D961596862F309015960596862F341
:1085D0000C315960596862F317415960596862F368
:1085E00018615960596862F38A2159609A69D20604
:1085F00001D51022DA619A69920744BF00229A627B
:108600009A69D10703D49A6942F001029A611A6803
:10861000012122F0F6021A60016170471022DA612E
:108620001A6842F020021A609A6992078FD58CE787
:108630009A6912070BD49A6992074BD49A6912F07F
:108640000402A3D1996989063FF512AF7047082249
:10865000DA6170474268511C416012789A6243891E
:10866000013B9BB243810389013B9BB2038170476D
:108670009A6992062CD52022DA615A6861F30902C0
:108680005A605A6861F30C325A605A6861F31742B3
:108690005A605A6861F318625A605A6861F38A2214
:1086A0005A609A69D106A6D5A3E79A6942F00102F9
:1086B0009A6168E7028992B2002A7FF46CAF41891F
:1086C00089B200293FF467AF5968C1F3090189E60F
:1086D00070477047428992B2002A3FF45CAF42680B
:1086E000511C416012789A620389013B9BB203815D
:1086F0004389013B9BB24381704742685B6A511CCE
:1087000041601370ABE7428992B2002A7FF443AF15
:108710005A6891013FF53FAF5A6842F480425A606F
:108720007047704703689A69D10508D54FF4807285
:1087300013210175DA611A6822F080021A609A69C1
:10874000920508D54FF4007213210175DA611A6899
:1087500022F080021A609A69510508D54FF48062B0
:1087600013210175DA611A6822F080021A609A6991
:10877000120508D54FF4006213210175DA611A68F9
:1087800022F080021A609A69D10408D54FF4805211
:1087900013210175DA611A6822F080021A609A6961
:1087A000920408D54FF4005213210175DA611A685A
:1087B00022F080021A60704730B44468036922686E
:1087C000022101FA03F31A4201D130BC70478269D9
:1087D0000B4DD1684FF0000C82F810C08968086812
:1087E0006CF30000086052681168527935F8120085
:1087F000CA6822EA0002CA60636030BC704700BFEA
:10880000CCBC070830B40A78E2B98B68402B55D04D
:10881000202B68D0102B64D0082B8B7814BF002439
:108820000324002B4ED0D0F81C3843F48033C0F81A
:108830001C38D0F8002B64F30A0200F53063C0F84E
:10884000002B12E08B78FBB1D0F81C384FF4803449
:1088500094401C4300F5306303EB4213C0F81C48FE
:108860001A68886860F30A021A601A68C97861F3A6
:1088700093421A601A6842F080521A601A6842F4F1
:1088800000421A6030BC7047D0F81C380124944074
:108890001C4300F5106303EB4213C0F81C48186832
:1088A0008C6864F30A0018601868C97861F3934013
:1088B0001860196862F399511960DBE714468B78E8
:1088C000002BB0D1D0F81C3843F00103C0F81C389D
:1088D000D0F8005964F30A0500F51063C0F8005998
:1088E000E2E70224EBE70124E9E700BF044B93F839
:1088F000E802A0F10300B0FA80F04009704700BF21
:10890000C01E0120704700BF704700BF01207047A4
:10891000064BD3E9C102801A07D19B685B6A93F8C2
:108920005320012A08BFB3F850007047C01E012031
:10893000012380F84930704710B4EFF311817023A0
:1089400083F312880C4AC9B2D2F80C33D2F8104320
:10895000D2F80C03D2F8102381F31188904203F16E
:10896000FF33A3EB04038CBF0020012003EBC020E6
:108970005DF8044B704700BFC01E01204A4B4B4AB4
:108980001B6893424CD015D9494A934251D027D9FC
:10899000484A934256D002F1B77202F558529342B8
:1089A0007DD1454BD3F8A4200B2161F30F32C3F8DE
:1089B000A4207047414A93424DD020D9404A934267
:1089C00052D002F1B77202F5585293426AD13A4B33
:1089D000D3F8A420052161F30F32C3F8A420704717
:1089E000384A934249D0384A93425AD1324BD3F84D
:1089F000A420062161F30F32C3F8A4207047334A44
:108A0000934243D002F1B77202F55852934247D1D4
:108A1000294BD3F8A4206FF30F32C3F8A42070477A
:108A2000254BD3F8A420042161F30F32C3F8A4200E
:108A30007047214BD3F8A420092161F30F32C3F80A
:108A4000A42070471C4BD3F8A420082161F30F32F7
:108A5000C3F8A4207047184BD3F8A420032161F376
:108A60000F32C3F8A4207047134BD3F8A42002217F
:108A700061F30F32C3F8A42070470F4BD3F8A42042
:108A8000072161F30F32C3F8A42070470A4BD3F8D3
:108A9000A420012161F30F32C3F8A420704770476E
:108AA00070477047704700BF00000120007A030A3A
:108AB000001C4E0E0052BC0F0038024000D8B80512
:108AC000000E270700B0710B00E6DF0C006CDC0223
:108AD0000A06036825D42C2202FB010000F5B670BB
:108AE0008178027889B903F5106303EB42131A68A1
:108AF000D20F03D1196862F39E7119601A6842F4AB
:108B000000121A6001234373704703F5306303EBCF
:108B100042131A68D20FF1D1196862F39E7119607D
:108B2000ECE701F07F012C2202FB01000C30D7E7BB
:108B300090F86E21036890F86C1110B44ABB03F5ED
:108B4000106202EB41121168C90F29D0116841F47B
:108B500000111160827B017B4FF0010C80F879C11C
:108B60001ABB4FF4106202EB411203EB020C99584E
:108B7000C90F03D19C5861F39E749C50DCF80030FF
:108B800043F40013CCF8003001235DF8044B437626
:108B9000704703F5306202EB41121168C90FD5D15D
:108BA000146861F39E741460D0E74FF43062DAE722
:108BB0002DE9F04101F07F012C2606FB0106046837
:108BC00096F80CE0002504F5106CB562C6E90823A0
:108BD0000CEB4E1C04F50065F3B9DCF810704FF097
:108BE000010868F3DC47CCF81070DCF8107063F310
:108BF0001207CCF81070F37B43454CD0DCF8003002
:108C000043F08063CCF80030DCF8003043F00043E0
:108C1000CCF80030BDE8F08111BB4669B3428CBF8F
:108C20004662466ADCF8103066F31203CCF8103066
:108C3000DCF81030012767F3DC43CCF81030C37B3D
:108C4000C662BB4227D02C2303FB01014B6A002BD9
:108C5000D4D06B6B012404FA0EF41C436C63CDE793
:108C6000DCF81070066C63F31207CCF81070013B4F
:108C70003344B3FBF6F3DCF8106063F3DC46CCF866
:108C8000106090F83B30012BDDD1DCF8106063F30D
:108C90005E76CCF81060AB68DB0525D5DCF80030DB
:108CA00043F08053CCF80030DCF8003043F08063B0
:108CB000CCF800302C2303FB0101DCF80030888C59
:108CC000033043F000438010CCF80030A2D004F50C
:108CD000805404EB0E340023013352F8041B21604E
:108CE0009842F9D1BDE8F081DCF8003043F0005340
:108CF000CCF80030D8E700BF4FF02C0C0CFB010C77
:108D000070B40468CCE9602300239CF86C21CCF893
:108D1000883104F5306303EB421369BBD0F874214A
:108D2000C0F884212C2202FB0102D2F874511A6986
:108D300065F312021A611A69012565F3DC421A61B2
:108D40002C2202FB010090F86F21012A0AD1D4F8ED
:108D5000082812F4807F1A680CBF42F0005242F0DB
:108D600080521A601A6842F080621A601A6842F0F3
:108D7000004270BC1A607047D0F8B021002AD1D0F0
:108D8000D0F8A0511E692A44013AB2FBF5F202FB69
:108D900005F565F312061E611D6962F3DC451D6170
:108DA000CEE700BF38B5204CD4F8042352B1D4F834
:108DB00008339A4206D0591C2344C4F8081393F888
:108DC000140338BDA3685A6A92F853300021C4F8DE
:108DD000081303F0FF00D3B1B2F8505082F85310DB
:108DE000C5B18BB2D0182344007983F81403B2F8CC
:108DF000500001318BB29842F3D840230B48012137
:108E00000432FFF779FFC4F804530023D4E7C4F811
:108E1000040338BD0548402304320121FFF76CFFED
:108E2000C4F80453284638BDC01E0120C41E0120CA
:108E300043682DE9F0415D6A4FF4E13300266B652C
:108E40004FF00108082385F8528085F85A30A5F8BC
:108E5000586085F853602E60C3664FF44073044633
:108E6000A0F8663000F164010068FFF7CBFC4027F2
:108E70004FF400732068638704F138012764FFF71B
:108E8000C1FC40F201232068A4F89A3104F5CC71AA
:108E9000C4F8A071FFF7B6FC20463B462A1D4146A8
:108EA000FFF72AFF3046BDE8F08100BF38B591F8E2
:108EB00000E043681EF060045D6A844617D0202CF1
:108EC0001CD1CB888BB11EF0800F2AD14A7885F84F
:108ED0004C200321A5F84E3005F1440280F8E01241
:108EE000C0E964330021FFF707FF002038BD4B784D
:108EF0000A2B0BD00B2B06D0062BF6D16046FFF7C2
:108F000017FE002038BD4B882B60EEE70123214679
:108F10000224C0E90C332A4680F8E042FFF748FEFD
:108F2000E3E74878202805F1440225D0212809D01C
:108F300002218CF8E012CCE90C3300216046FFF7E7
:108F400037FED2E795F858006B6D85F8480095F824
:108F5000590085F8490095F85A0085F84A00180A22
:108F600085F8443085F84500180C1B0E85F846003E
:108F700085F84730CB88DBE7696C696595F8481060
:108F800085F8581095F8491085F8591095F84A1049
:108F900085F85A10CCE700BF0020704743685B6A31
:108FA00093F84C20202A01D00020704710B493F889
:108FB000480093F8491093F84A205C6C83F85800F5
:108FC00083F8591083F85A205C6500205DF8044B43
:108FD000704700BF10B4D0E900422369506A61F3C2
:108FE0008A1323612269084B42F02002226101E0CA
:108FF000013B02D022699206FAD4012380F8523054
:109000005DF8044B00207047420D0300436801F0F7
:109010007F012C2202FB01005B6AD0F88811A3F8C3
:109020005010012283F85320002070470020704721
:10903000002070470048704704000120002070475E
:10904000004870470C00012000207047004870471E
:1090500014000120002170B57220164D164C4FF0FF
:10906000410C02230E4602E0844615F8010F5A1CFB
:1090700004EB030E14FA82F202338EF814CB9BB287
:109080001FFA81FC82F8146B01310028ECD10CF13D
:10909000020C0A48C4F8180C4FEA4C0C1FFA8CFC5E
:1090A000032384F814CB84F8153BA4F814CC00F502
:1090B000807070BD15660808C01E0120D4290120EB
:1090C000002170B55420164D164C4FF0410C022370
:1090D0000E4602E0844615F8010F5A1C04EB030EFD
:1090E00014FA82F202338EF814CB9BB21FFA81FC81
:1090F00082F8146B01310028ECD10CF1020C0A4803
:10910000C4F8180C4FEA4C0C1FFA8CFC032384F8AB
:1091100014CB84F8153BA4F814CC00F5807070BD16
:109120001D660808C01E0120D42901201F49D1F85E
:10913000E837D1F8F0279B1801D11D4870471D4A28
:10914000D1F8EC1730B54FF0000E10467546B3F16C
:10915000204F4FEA137C0CF130040EF1020E2ABFAF
:109160000CF1370C847080F802C0BEF1100FC5708E
:109170004FEA031300F10200E9D100200446B1F1E7
:10918000204F4FEA117303F1300C00F102002ABFA7
:10919000373382F812C093740828D4744FEA01114F
:1091A00002F10202EBD1024830BD00BF00F0FF1F08
:1091B0001C00012024000120002170B56920164DFB
:1091C000164C4FF0560C02230E4602E0844615F86A
:1091D000010F5A1C04EB030E14FA82F202338EF8CC
:1091E00014CB9BB21FFA81FC82F8146B013100286A
:1091F000ECD10CF1020C0A48C4F8180C4FEA4C0CE4
:109200001FFA8CFC032384F814CB84F8153BA4F8D4
:1092100014CC00F5807070BD35660808C01E0120B2
:10922000D4290120002170B56920164D164C4FF04D
:10923000560C02230E4602E0844615F8010F5A1C14
:1092400004EB030E14FA82F202338EF814CB9BB2B5
:109250001FFA81FC82F8146B01310028ECD10CF16B
:10926000020C0A48C4F8180C4FEA4C0C1FFA8CFC8C
:10927000032384F814CB84F8153BA4F814CC00F530
:10928000807070BD51660808C01E0120D4290120DD
:1092900010B51C6994420DD396468A188C469442A8
:1092A000996938BFA4EB0E0C71446246BDE81040CA
:1092B0006FF04CBB10BD00BF00487047400001205C
:1092C0000020704700487047480001200020704788
:1092D0000048704750000120002170B57220164DE3
:1092E000164C4FF0410C02230E4602E0844615F85E
:1092F000010F5A1C04EB030E14FA82F202338EF8AB
:109300001CCC9BB21FFA81FC82F81C6C0131002836
:10931000ECD10CF1020C0A48C4F8200D4FEA4C0CB9
:109320001FFA8CFC032384F81CCC84F81D3CA4F8A1
:109330001CCD00F5807070BD15660808C01E0120A8
:10934000DC2A0120002170B55420164D164C4FF038
:10935000410C02230E4602E0844615F8010F5A1C08
:1093600004EB030E14FA82F202338EF81CCC9BB28B
:109370001FFA81FC82F81C6C01310028ECD10CF141
:10938000020C0A48C4F8200D4FEA4C0C1FFA8CFC62
:10939000032384F81CCC84F81D3CA4F81CCD00F5F4
:1093A000807070BD69660808C01E0120DC2A01209B
:1093B0001F49D1F8E837D1F8F0279B1801D11D4893
:1093C00070471D4AD1F8EC1730B54FF0000E10462B
:1093D0007546B3F1204F4FEA137C0CF130040EF1C7
:1093E000020E2ABF0CF1370C847080F802C0BEF167
:1093F000100FC5704FEA031300F10200E9D10020FD
:109400000446B1F1204F4FEA117303F1300C00F123
:1094100002002ABF373382F812C093740828D4742C
:109420004FEA011102F10202EBD1024830BD00BF48
:1094300000F0FF1F5800012060000120002170B5DE
:109440006120164D164C4FF04D0C02230E4602E0E3
:10945000844615F8010F5A1C04EB030E14FA82F22D
:1094600002338EF81CCC9BB21FFA81FC82F81C6C74
:1094700001310028ECD10CF1020C0A48C4F8200D8F
:109480004FEA4C0C1FFA8CFC032384F81CCC84F8A4
:109490001D3CA4F81CCD00F5807070BD7D660808E9
:1094A000C01E0120DC2A0120002170B56120164D6C
:1094B000164C4FF04D0C02230E4602E0844615F880
:1094C000010F5A1C04EB030E14FA82F202338EF8D9
:1094D0001CCC9BB21FFA81FC82F81C6C0131002865
:1094E000ECD10CF1020C0A48C4F8200D4FEA4C0CE8
:1094F0001FFA8CFC032384F81CCC84F81D3CA4F8D0
:109500001CCD00F5807070BD95660808C01E012056
:10951000DC2A012038B5044640254FF4007300686A
:10952000256404F138016387FFF76CF940F20123E9
:10953000C4F8A051A4F89A3104F5CC712068FFF763
:1095400061F963685D6A07222A80002305F580516E
:1095500022686B60C1E910338B641369012161F3E8
:109560008A1313611169094B41F02001116101E077
:10957000013B02D011698906FAD420461F2305F564
:1095800081520121FFF7B8FB002038BD420D0300D6
:1095900010B5044690F8662090F8641000686AF0F0
:1095A00011FB94F83A2094F8381020686AF00AFB0E
:1095B000206894F89A2194F898116AF003FB00202F
:1095C00010BD00BF30B490F83A50036890F83810DE
:1095D00035BB03F50062012404FA01FCD46924EAD6
:1095E0000C04D46103F5106404EB41110C6865F3BD
:1095F000CF340C6090F89A4190F898114CBBD06928
:1096000001258D4020EA0500D0614FF4106202EB85
:10961000411100205A5864F3CF325A5030BC704781
:10962000D3F81C484FF480328A4024EA020403F540
:10963000306202EB4111C3F81C480C686FF3CF3461
:109640000C6090F89A4190F8981103F50062002C94
:10965000D5D0D4694FF48030884024EA00044FF418
:10966000306000EB4111D4615A586FF3CF325A5039
:10967000002030BC704700BF0020704700207047BA
:1096800000207047002070474368234A70B55D6A28
:1096900005F580530446D9641A6407232B7005F539
:1096A00082520D238121FFF783FA266894F89821CE
:1096B00006F5306303EB421305F581551F22C4E91B
:1096C0006B520021D4F8A021C4F8B411186902F13A
:1096D0001E01B1FBF2F101FB02F262F3120018610C
:1096E0001A6961F3DC421A6194F89B21012A0AD1BC
:1096F000D6F8082812F4807F1A680CBF42F0005296
:1097000042F080521A601A6842F080621A601A6849
:1097100042F000421A6070BD55534253F8B50B78C1
:10972000426813F06003526A04460D4633D0202B82
:109730002CD14B78FE2B4BD0FF2B27D140F20713B7
:1097400013800068002353600369012161F38A13C9
:1097500003610169744B41F02001016101E0013BAB
:1097600002D001698906FAD4204602F581521F23EE
:109770000121FFF7C1FA0023042284F8E0222046E9
:109780001A461946FFF714FA0020F8BD2046FFF7E5
:10979000CFF90020F8BD4B78013B0A2BF9D801A185
:1097A00051F823F0E9970008939700089397000871
:1097B00093970008939700088D97000893970008E7
:1097C00093970008939700089F98000895980008C1
:1097D00001230221C0E90C3380F8E0120432002199
:1097E000FFF7E6F90020F8BDAA884FFA82FCBCF129
:1097F000000FD1B260DB2C2303FB010303F5B6732A
:109800009E7820681B78002E69D1D0F81C784FF024
:10981000010E0EFA03FE27EA0E0700F5106E0EEB9E
:109820004313C0F81C781F6866F3CF371F6012F02F
:10983000800348D0036962F38A130361036943F02C
:1098400020030361384B01E0013B02D0026992061C
:10985000FAD4BCF1000F55DB2C2303FB014201239A
:1098600002F5B67182F86E3140238B600223CB7013
:10987000FEF7C8FF63685E6A7378022B4CD095F9D7
:109880000420002A85DA012B83D001212046FFF72E
:10989000FBFE7EE702F580526B88D36179E70123F6
:1098A000022102F5805280F8E012C0E90C331C322C
:1098B0000021FFF77DF96CE701F07F032C2000FB0E
:1098C00003430C339CE7BCF1000FC5DA01F07F01C4
:1098D0002C2202FB01463146B3730C31C4E7D0F8A9
:1098E0001C684FF4803E0EFA03FE26EA0E0600F5D1
:1098F000306E0EEB4313C0F81C681E686FF3CF3652
:109900001E6094E701F07F012C2303FB0142114606
:1099100000230C319373A7E781212046FFF7D8F885
:109920000023737035E700BF420D0300436870B534
:109930005D6A05F5805304469A6A62B393F82C3049
:109940006A781BB394F83A00236894F8381088B901
:1099500003F5106303EB41131968C90F11D019689F
:1099600041F400111960022A4FF0010184F84510FA
:1099700013D070BD03F5306303EB41131968C90FB1
:10998000EDD1186861F39E701860E8E7002AD9D11C
:109990000121FFF79DF86A78D4E705F5815220464A
:1099A0001F23BDE87040FFF7A7B900BF704700BF95
:1099B000704700BFD0ED007AD0ED036A30EE677AD1
:1099C000E6EE877AB0EE670AC0ED007A704700BF16
:1099D000D0ED017AF5EE407AF1EE10FA09D1DFED23
:1099E0000E7A60EEA70AB7EE007AC7EE207AC0EDD5
:1099F000017A31EE277AD0ED007A80ED021AC1EEBD
:109A0000076A30EE677AC0ED036AE6EE877AB0EE59
:109A1000670AC0ED007A7047DB0FC94090ED017A0C
:109A2000D0ED036AD0ED027A30EE470AA6EE807AD6
:109A300090ED000A80ED017A37EE676AE6EE867AED
:109A400037EEC07AC0ED027AA6EE870A80ED000AF2
:109A5000704700BFD0ED056AD0ED017A90ED007A35
:109A600090ED066AD0ED025A90ED035A80ED050A9A
:109A700066EEA77AC0ED066AE7EE007A90ED077A07
:109A8000E5EE867A90ED086AD0ED045A80ED087A0A
:109A9000E5EE477AE5EEC67AB0EE670AC0ED077AE2
:109AA000704700BFD0ED057A90ED006A90ED037A23
:109AB000D0ED025AE6EE007AF0EE406AB0EE670AA8
:109AC00090ED016AD0ED047A27EE407A67EEC07A15
:109AD000A6EE267AE5EEA67A90ED066AC0ED067A45
:109AE00036EE077A80ED057A704700BF03685A1C8E
:109AF00002601970704700BF03685A1C0260197039
:109B0000704700BF024BD3F8240D03681B68184749
:109B1000C01E01202DE9F0410446D0E90030134475
:109B200083421DD88E188E4217D00D4604F10C08C2
:109B3000002701E0AE4210D023695A1C2261234461
:109B400015F8010B1873042AF4D141462046FEF79C
:109B5000B9FAAE42C4E90470EED16069BDE8F081A3
:109B60004FF0FF30FAE700BF007970470079C0F38B
:109B70004010704700794009704700BF90F83C20C2
:109B8000034602F0FF0012B1002283F83C20704728
:109B9000436B1A6810B50446900606D5E26A0AB30C
:109BA0005868216B80B29047636B1A6811060ED516
:109BB000D4E909128A4210D0A1692069895C013276
:109BC000C9B25960B2FBF0F100FB1122A2621A681F
:109BD000120744BF1A685B6810BDDA6822F0800281
:109BE000DA60F4E75B68E2696169DBB28B54E269D1
:109BF000E168636B0132B2FBF1F001FB1022E2611C
:109C0000D3E700BF2DE9F047424E1F4606EB800325
:109C10009C68002C79D004F13E03A36104F59F7386
:109C2000E3614FF48073C4E9043328362368666027
:109C30000546E16094F83D00A363904609F092FD6B
:109C4000064694F8440294F83CA004F1040990BB41
:109C500094F8450260BBD4F8403223BB3A070ED4D7
:109C600018F0020F2AD118F0010F37D194F94702EA
:109C7000D4F8481267F00CFD4846BDE8F08701357E
:109C8000EDB21EB140F206733572F380FB0635D497
:109C900017F0200F94F8462214BF162136213046C3
:109CA00009F014FDE2E794F8450267F029FDD5E7D5
:109CB00067F026FDCFE767F023FDC9E76B1CDBB239
:109CC0001EB1337240F20653F38094F846223046B8
:109CD000062109F0FBFC18F0010FC7D0504609F02F
:109CE00041FD0135EDB218B140F20663C380057243
:109CF00094F84622062109F0E9FCB7E794F84622D9
:109D00000621304609F0E2FCB0E7A1464846BDE82E
:109D1000F08700BFCCBC070810B51C2009F022FD5D
:109D20001921044607F0C8FC4CB12368A2889A6246
:109D3000C8200CF049FB2368A2889A6110BDBDE8D9
:109D40001040C8200CF040BB2DE9F0470469C368FF
:109D50001C4082B044D0814688464FF0004501F156
:109D60004C0701F13406B4FA84F325FA03F2D24326
:109D7000C9F8102014401B3BB8F1000F5DD0042B34
:109D80002CD8DFE803F050463B300300D8F80C3005
:109D9000D9F82CA033B19B6823B11FFA8AF108F1DE
:109DA00004009847D8F8243033B19B6823B11FFAD8
:109DB0008AF108F11C009847D8F83C302BB19B6819
:109DC0001BB11FFA8AF130469847D8F854302BB1AE
:109DD0009B681BB11FFA8AF138469847002CC2D104
:109DE00002B0BDE8F087D8F80C30D9F834105B68C1
:109DF00008F104009847002CB5D1F1E7D8F82430D9
:109E0000D9F838105B6808F11C009847002CAAD1DB
:109E1000E6E7D8F83C30D9F83C105B683046984704
:109E2000002CA0D1DCE7D8F85430D9F840105B689A
:109E300038469847002C96D1D2E7042B07D8DFE8A4
:109E400003F00319140F0A00D9F840300193019B65
:109E5000002C88D1C4E7D9F82C300193019BF7E797
:109E6000D9F834300193019BF2E7D9F838300193E7
:109E7000019BEDE7D9F83C300193019BE8E700BF77
:109E800090F848305A1C0344D2B280F8482083F836
:109E9000341090F849300BB1132A01D969F06EBE25
:109EA000704700BF002280F8492069F067BE00BFFC
:109EB0002DE9F047089F88461546002120220446D8
:109EC0001E466EF051FD4FB13B68E3811B0C2382AF
:109ED0007B687A89E3821B0C6282238340466AF0A6
:109EE00059FAEB0619D4431EB8B108EB000701E09C
:109EF000013B12D317F801CDBCF12E0FF8D1C01AD7
:109F0000421E032AA8BF0322082B03F1010AA8BF9F
:109F100008239146C2441A4606E008280246C24673
:109F2000A8BF08224FF000094FF0203341462360BC
:109F3000636004F1080720466EF008FD174B23818B
:109F40005146BB704A4638466EF000FD611EE31D67
:109F500011F801CFACF1610EBEF1190F9CBFACF14D
:109F6000200C81F800C08B42F2D1384604F10B017D
:109F700010F8013BA3F16102192A9CBF203B00F8B5
:109F8000013C8842F4D118232373330CA382E57279
:109F9000099B6683E361BDE8F08700BF20202000B5
:109FA0008C46134601466246184648F055B900BF34
:109FB00043682DE9F04F5C6A04F5805B05469BF829
:109FC0002F008BB05A285CD8DFE810F093005B00BC
:109FD0005B006B005B005B005B005B005B005B0099
:109FE0005B005B005B005B005B005B005B005B0099
:109FF00080005B005B005B005B005B005B005B0064
:10A00000C80066005B005B0066005B005B005B00F5
:10A010005B006C015B00CE005B005B00EE005B0050
:10A02000BB005B005B005B005B0099005B005B00BA
:10A030005B005B005B005B005B005B005B005B0048
:10A040005B005B005B005B005B005B005B005B0038
:10A050005B005B005B005B005B005B005B005B0028
:10A060005B005B005B005B005B005B005B005B0018
:10A070005B005B005B005B005B005B005B005B0008
:10A08000B300AF4B0521202283F87E1083F88C208B
:10A0900001200BB0BDE8F08F0020A0610BB0BDE83F
:10A0A000F08FA84804F12E0200F1120313F8011DED
:10A0B00002F8011D8342F9D1DBF82830112B00F2A0
:10A0C0001A81A36100200BB0BDE8F08F9BF83030FF
:10A0D000DB0740F13E8305239B49A36103F11B028B
:10A0E00014440B4413F8012D04F801298B42F9D1D3
:10A0F000E8E7DBF82830002BC3D1A361C9E79BF860
:10A10000300010F0020040F01B83DBF831309BF888
:10A110002D101BBA2361BBF83620023152BA54F815
:10A12000211092B213448B42626100F2F380A0616D
:10A13000AFE7002008224FF4C063C4E90623206281
:10A14000A7E72378072B00F0C7827D4B04213A2232
:10A1500083F87E1083F88C2001209AE700200823E2
:10A16000C4E90630206294E7784B9BF82D20D3F8A1
:10A17000381D04EB82024B1E4FF40070C2E902103E
:10A18000190E1A0C002021776277190A0222E37750
:10A190000823A17784F8200084F8210084F8222085
:10A1A00084F82300A36174E72378072B00F058821A
:10A1B000D4E904630493049A4FF480539A42A36150
:10A1C000C0F09D8004F11C0204930993760A059265
:10A1D00008239F19059BCDF820B0CDE9064503F172
:10A1E000200903F5FE7A25E0002E00F0B180574BE0
:10A1F000D3F8443DB34200F03081544BD3F8403D96
:10A20000B34200F06381514AD2F8483DB34200F2B4
:10A210008A80D2F84C1DB14200F2A882711A204601
:10A2200066F0D4FF0136BE4209F500790AF5007ADE
:10A2300000F0F780454BD3F8502DB242A9F120042D
:10A24000D2D8D3F8605DB21AD30802F007082A6B9F
:10A250000233934202D3AA6B93420CD92946184683
:10A26000039366F083FF039B0546002800F09C8261
:10A27000364AC2F8600D2A79002A40F09A81D5F852
:10A2800028B0BBF1000F00F088822A6B9B1AEA68A5
:10A2900008EBC30302EB432220462B464FF4007128
:10A2A000D847BFE79BF82D20284B04EB8202D3F858
:10A2B000385D002008266B1E20776077A077E67750
:10A2C00095604FF40075D56002210C2284F823308C
:10A2D00084F8241084F82610A261190E1A0CF34099
:10A2E00084F8250084F8270084F8201084F82120C1
:10A2F00084F82230CDE61223A3610020C9E604F1E0
:10A300001C030593530A4FEA562600F06E8292B260
:10A3100009925EE70A4B0521212283F87E1083F81B
:10A320008C200120B5E6094BD3F84C1DB1427FF6D5
:10A3300075AF20464FF4007200216EF015FB71E7F7
:10A34000000001207C000120E82B0120C01E01201C
:10A350004FF40072314620466EF006FB802389F8E8
:10A360009E31D349D34A0C2389F8A231D1F8403D1C
:10A37000D1F8380DC4F8C6319342C4F8CA0100F3CD
:10A380000482CD4ACD4C82FB03121A44D917C1EB8B
:10A39000621284FB0254CA4D85FB03C5C1EB253113
:10A3A000C2EB821589F8A1115B1B891021F03F01D6
:10A3B00001330B43144489F8A031D317C3EBE414E1
:10A3C000224489F89F21BB4B0138984200F3D58184
:10A3D000B94BBA4983FB00230344C217C2EB631392
:10A3E00081FB0341B64C84FB0054C2EB2432C3EB27
:10A3F000831489F8A521001B921022F03F0201303E
:10A400000243194489F8A421DA17C2EBE1110B4485
:10A4100089F8A331552389F8DE31AA2389F8DF3181
:10A4200000E7DDE90645DDF820B0099B059A2846DE
:10A430008121FEF7BDFBD4E90430049A1344801A4D
:10A44000C4E90430DBF848309B1ACBF848300028C8
:10A450007FF438AE042323701BE64FF0FF3384F8FB
:10A46000EC3184F8ED3184F8EE3184F8EF31904B23
:10A47000D3F8583DC4F8E831522323706370612348
:10A48000A37084F8E73141230025E37084F8E631B6
:10A49000722384F8E43184F8E5314FF4F0722946F0
:10A4A000A9F11C006EF060FA5523C9F8D051C9F823
:10A4B000D451C9F8D85184F8FE316FF0550384F8AF
:10A4C000FC5184F8FD5184F8FF31ABE600214FF4D4
:10A4D000007220466EF048FA7A4B754D03CB49F86E
:10A4E0001D0CEB2009F8200C582009F81F0C9020B7
:10A4F00049F8191C09F81E0C002202230821F82033
:10A50000E272237309F8131CA373E27309F8103C79
:10A5100009F80B0CD5F8400D84F82C30D5F8383DEF
:10A5200062761B1A2362D5F8480DD5F84C3DE276C9
:10A530001B1A3F2020764FF0FF30A0763E20207778
:10A5400001206277A277E27784F82D2084F82E200C
:10A5500084F82F20636284F8300084F8312089F871
:10A560002610802189F82010292189F822109421B1
:10A5700089F823100E2189F824100D21524B89F8F7
:10A580002510552189F8DE11AA2189F8DF1103CBA6
:10A590004E4AC9F82700C9F82B1003CA1A889B78BD
:10A5A000C9F83200C9F83610A9F82F2089F83130DF
:10A5B00038E64FF40072002120466EF0D5F92B6C7E
:10A5C000B8F1000F40F0F880002B00F012812B6BE7
:10A5D0003F491122CDE900882046FFF769FC2B6C2A
:10A5E0001A6C002A00F017811B6BCDE900883949ED
:10A5F00011224846FFF75CFC6D6C09F120044FF412
:10A60000E078002D3FF40EAEA04408F1200820347D
:10A610004FF0000B03960FE052F81C1B2B6BCDE99B
:10A62000002B1122FFF744FCAD6C2034002D00F00C
:10A63000A280444500F09F802B792A46A4F1200097
:10A64000002BE9D16A792E692B6B2968019605F1F7
:10A650001C0C42F02102CDF800C0FFF729FCE3E713
:10A660009BF92C30002BBFF60CADDBF831609BF86A
:10A670002D2036BA2661BBF836305BBA9BB204EBAC
:10A68000820263619168981988423FF643AED268AE
:10A6900002FB06F602FB03F2DBF8283004929A4232
:10A6A000C4E904627FF4EDAC0123237083E500BFAD
:10A6B000C01E0120FF03FB00832008828180808070
:10A6C00097554541A8660808B4660808C06608089A
:10A6D000686D0808806E08089BF92C30002BFFF687
:10A6E000D0ACDBF831209BF82D1012BA2261BBF8F8
:10A6F00036305BBA9BB204EB810163618868D6187F
:10A7000086423FF607AEC968DBF8280001FB03F379
:10A7100001FB02F28342C4E904237FF4B2ACB3F537
:10A72000805F22464FF0020128BF4FF4805302F8A9
:10A730001C1B28469BB20121FEF7DEFA0020A8E48C
:10A74000374B0521242283F87E1083F88C200120CA
:10A750009FE49BF82D20DBF828303249002A18BFEF
:10A760000021232B3CD92423A361B7E4F11A20460E
:10A7700066F02CFD56E5039E54E5FF2389F8A331CE
:10A7800089F8A53189F8A43144E6FF2389F89F317F
:10A7900089F8A13189F8A03115E6594620464FF4D1
:10A7A00000726EF0E1F83DE5A9F124031E4A43F87A
:10A7B000042F5345FAD135E5002B0CBF01230223AA
:10A7C0006D6CC3EB0818002D3FF42CADB8F10108F7
:10A7D000AD6CF8D14FF40078002D7FF415AF21E572
:10A7E000A361002B3FF46EAC78E4BDF81030099300
:10A7F0001BE6CDE900880D4A4346D2F83C1D2046B1
:10A800000822FFF755FB6D6C002D3FF40BAD4C4655
:10A810004FF4F078F8E6CDE900884346E7E600BF5C
:10A820000000012024BD0708DEADBEEFC01E0120E0
:10A8300070B50468264B226961F38A12226122698D
:10A8400042F020020546226101E0013B02D022696C
:10A850009206FAD46B685C6A2678012E1AD0033E01
:10A86000012E15D804F580530021D964194A1A64C1
:10A87000072104F5825221700D2381212846FEF71D
:10A8800097F91F2304F5815201212846FEF734FA77
:10A89000002070BD2846FFF78BFB0028F8D06B68BE
:10A8A0000C495C6A04F5805307221964DE6428466B
:10A8B00022700D2304F582528121FEF779F9284692
:10A8C0001F2304F581523146FEF716FA002070BDB1
:10A8D000420D03005553425370B543685D6A2B78AF
:10A8E000022B044619D0072B15D105F580535A6A5F
:10A8F0005A649A6A196A9A64334A91422BD0334B4C
:10A900000521202283F87E1083F88C2002236B70AF
:10A910002046FFF70BF8002070BDFFF749FB002829
:10A92000F9D063682A4A5D6A05F5805301261A64E6
:10A930000722DE6420462A700D2305F5825281210C
:10A94000FEF736F920461F2305F581523146FEF702
:10A95000D3F9002070BDD0F8B4211F2ACFD193F8CD
:10A960002D20012ACBD893F82E30013B0F2BC6D8CF
:10A97000FFF71EFB60B92B785A1E012ACBD9042B96
:10A98000C9D0A86940B900212046FEF77DFEC2E784
:10A990002046FEF7CBFFBEE7636805F11C025D6A47
:10A9A00005F580518B6A984238BF83B220468C6C83
:10A9B00028BF9BB2E41A8C640024CC640321297064
:10A9C0008121FEF7F5F8A6E7555342430000012028
:10A9D00055534253174A1849D2F8883030B443F4DB
:10A9E0007003C2F888300B6843F001030B600B68FA
:10A9F0009B07FCD58B68104A6FF301038B6093684B
:10AA000013F00C0FC3F38101F9D1136809480B4D02
:10AA100023F0867323F4803313604FF41F044FF048
:10AA2000006391605560C2F8A010D46030BC8360B0
:10AA3000704700BF00ED00E0003802400230030024
:10AA4000704700BF0148FDF76DBE00BF2C2C0120F0
:10AA50000148FDF7F5BC00BF2C2C01200148FDF793
:10AA600061BE00BF642C01200148FDF7E9BC00BFB6
:10AA7000642C01200148FDF755BE00BF9C2C01202D
:10AA80000148FDF7DDBC00BF9C2C0120030C03F145
:10AA9000804303F50E3300F01F001968012202FA0B
:10AAA00000F00843186070470148FFF771B800BF15
:10AAB000980001200148FFF76BB800BFE4020120B5
:10AAC0000148FFF765B800BF300501200148FFF7D6
:10AAD0005FB800BF7C0701200148FFF759B800BFED
:10AAE000C8090120704700BF704700BFF0B5044699
:10AAF0004068837913F0040287B00E46C3F3400523
:10AB000059D02A46002501272B464179032915D81B
:10AB1000DFE801F03E2A160200680497CDE902231F
:10AB20000022009206221146019569F073F86368CD
:10AB30001B681E64DA6942F40062DA6107B0F0BD96
:10AB400000680497CDE902230022009201950622B5
:10AB5000042169F05FF863681B68DE63DA6942F01C
:10AB60000802DA6107B0F0BD00680497CDE902235E
:10AB70000022009201950622022169F04BF86368D9
:10AB80001B689A699E6342F400629A6107B0F0BD47
:10AB9000002100680497CDE9022301950091062267
:10ABA00069F038F863681B689A695E6342F00802CE
:10ABB0009A6107B0F0BD17460123A6E742685379B2
:10ABC000032B0FD8DFE803F00B08050210684030B4
:10ABD000704710683C307047106838307047106814
:10ABE0003430704700207047024B0348D3F8101EE2
:10ABF000FFF7AAB8C01E01200000014010B5064CA6
:10AC00000648D4F8101EFFF79FF8D4F8301E044809
:10AC1000BDE81040FFF798B8C01E012000000140B9
:10AC20000040014010B5064C0648D4F8101EFFF74E
:10AC30008BF8D4F8341E0448BDE81040FFF784B800
:10AC4000C01E0120000001400044014010B5064C28
:10AC50000648D4F8101EFFF777F8D4F8381E0448D9
:10AC6000BDE81040FFF770B8C01E01200000014091
:10AC700000480140034B4FF08040D3F8141EFFF70B
:10AC800063B800BFC01E0120024B0348D3F8181E52
:10AC9000FFF75AB8C01E012000040040024B0348D1
:10ACA000D3F81C1EFFF750B8C01E0120000800405A
:10ACB000024B0348D3F8201EFFF746B8C01E012000
:10ACC000000C0040024B0348D3F82C1EFFF73CB8A1
:10ACD000C01E01200004014010B5064C0648D4F8FF
:10ACE0002C1EFFF731F8D4F83C1E0448BDE8104094
:10ACF000FFF72AB8C01E01200004014000180040E0
:10AD000010B5064C0648D4F82C1EFFF71DF8D4F8F1
:10AD1000401E0448BDE81040FFF716B8C01E0120D1
:10AD200000040140001C004010B5064C0648D4F851
:10AD30002C1EFFF709F8D4F8441E0448BDE8104063
:10AD4000FFF702B8C01E01200004014000200040AF
:10AD5000024B0348D3F85C1EFEF7F6BFC01E01206D
:10AD6000004C01400348D0F81C3C13B100F5416091
:10AD700018477047000001200348D0F8403C13B149
:10AD800000F6344018477047000001200348D0F80F
:10AD9000643C13B100F6584018477047000001208A
:10ADA0000348D0F8883C13B100F67C401847704740
:10ADB000000001200348D0F8AC3C13B100F54A6014
:10ADC00018477047000001200348D0F8D03C13B169
:10ADD00000F6C44018477047000001200348D0F82F
:10ADE000F43C13B100F6E84018477047000001201A
:10ADF0000348D0F8183D13B100F60C5018477047BF
:10AE0000000001200348D0F83C3D13B100F5536029
:10AE100018477047000001200348D0F8603D13B187
:10AE200000F6545018477047000001200348D0F83E
:10AE3000843D13B100F67850184770470000012098
:10AE40000348D0F8A83D13B100F69C50184770474E
:10AE5000000001200348D0F8CC3D13B100F55C6040
:10AE600018477047000001200348D0F8F03D13B1A7
:10AE700000F6E450184770470000012038B5304B09
:10AE80009A6812F00C0F0446C2F381011DD002290A
:10AE900026D02C4B23602A4A2B489168C1F303111A
:10AEA000405C2A49C34063609068C0F3822001443B
:10AEB000274891F87C1023FA01F1E1609268C2F30F
:10AEC0004232805CC340A36038BDD3F8A020520456
:10AED000DFD5D3F8A030DB04DBD51E4B0360DAE707
:10AEE0005A68586859685A68C0F3881C4FEA4C1071
:10AEF000B0EB0C0E65EB050501F00F034FEA8E1069
:10AF0000A901B0EB0E0041EA9E6161EB0501C900A9
:10AF100041EA5071104DC2F30242C00010EB0C0028
:10AF200041F10001AA5C490241EAD05103FB02F25F
:10AF3000400200236AF0A6F803462060ABE700BF9A
:10AF40000038024000127A0058BD0708CCBC070840
:10AF500048BD0708006CDC0250BD07082DE9F04130
:10AF6000446BE3686FF34D33E3608779D0F8088072
:10AF700084B017F0040F0646684614BF0225012569
:10AF8000FFF77CFF484B9C4207F002077FD0474BFE
:10AF90009C426DD003F548439C424CD1029A02EB8F
:10AFA00082025300424AB3FBF8F3A2FB0312D20819
:10AFB00002EB8201A3EB4103042B00D90132A36809
:10AFC00092B262F30F03012DA36057D0E3686FF3D1
:10AFD0001C73E360E36843F48053E360236967F321
:10AFE0000D332361B279736B5407C2F380012CD403
:10AFF000D86861F34920D860D86861F38A20D860A6
:10B0000059696FF30821596159696FF349215961F1
:10B010007179C80727D4890720D412F008020FD00D
:10B020005A6942F008025A61DA6842F40052DA6062
:10B0300004B0BDE8F0811F4B9C42AFD0039AAEE74D
:10B04000596962F3C3015961EEE7D9686FF3492189
:10B05000D960D96841F48061D960D1E7D96841F0FD
:10B060000801D960D9E7D86840F00400D860D2E779
:10B07000236943F400432361039A90E7E3686FF385
:10B080001C73E360E3686FF30C33E360A6E703F53A
:10B09000E0331A6A22F00F021A621A6A42F00602BC
:10B0A0001A62039A7BE700BF00440040004800405A
:10B0B000CDCCCCCC001401402DE9F8431D46334BD8
:10B0C0009DF820609DF8249098428846174645D008
:10B0D0002F4B98424AD02F4B98424FD02E4B98423C
:10B0E00034D02E4B98422DD14B463246294606206D
:10B0F000FEF788FD04460023C4E90733C4E9093399
:10B10000C4E90B876671A56084F806902046FFF7B6
:10B1100025FFF107636B0DD4B20706D4DA6842F459
:10B120000052DA602046BDE8F883DA6842F0800217
:10B13000DA60F3E76FF020021A60DA6842F020026A
:10B14000DA60E9E700242046BDE8F8834B46324642
:10B1500029460420FEF756FD0446CCE74B4632460E
:10B1600029460020FEF74EFD0446C4E74B46324612
:10B1700029460120FEF746FD0446BCE74B46324611
:10B1800029460220FEF73EFD0446B4E700100140C8
:10B19000004400400048004000500040007800405B
:10B1A0008160DBE64171D9E62DE9F04FDFF818A3A5
:10B1B00000EB400487B00AEB840443000193D4F809
:10B1C000083E002B00F02081804694F80C0E08F019
:10B1D000C9FA054694F80D0E08F0C4FA08F1010307
:10B1E0008146DBB2002D00F0228140F60C122B725A
:10B1F000EA80002800F00B81037240F60C23C38024
:10B2000094F80E0E66F07CFA2B68AA889A61D9F839
:10B210000030B9F804209A611921284606F04CFA4A
:10B220001921484606F048FA0927332625B12B682C
:10B23000AA881969114212D1013E0DD00BF096F87F
:10B2400004468B460BF092F8001B61EB0B010A28B9
:10B2500071F10003F6D3E9E715B12B68AA889A6269
:10B260000BF084F804460E460BF080F8001B61EBEF
:10B270000601052871F10003F6D315B12B68AA88E1
:10B280009A610BF073F804460E460BF06FF8001B42
:10B2900061EB0601052871F10003F6D3013FC4D12B
:10B2A00015B12B68AA889A620BF060F804460E4626
:10B2B0000BF05CF8001B61EB0601052871F100033F
:10B2C000F6D3B9F1000F04D0D9F80030B9F8042052
:10B2D0009A620BF04BF804460E460BF047F8001B41
:10B2E00061EB0601052871F10003F6D315B12B6857
:10B2F000AA889A610BF03AF804460E460BF036F82D
:10B30000001B61EB0601052871F10003F6D3B9F1CA
:10B31000000F04D0D9F80030B9F804209A61019BDD
:10B3200003EB08040AEB8404284694F8122E614DBE
:10B33000362108F0CBF994F8122E4846362108F051
:10B34000C5F9C8EBC80205EBC202D4F8083EC2F842
:10B350006C3D594A93424FEAC8047CD0574A934205
:10B3600000F09580564A934200F0838002A8FFF7D0
:10B3700085FD019B059843440AEB830393F80F3E38
:10B38000022B60D0032B4AD0012BA4EB080305EB62
:10B39000C30318BF4FF4C871D3F86C6D08BF4FF4E6
:10B3A000487166F085F833686FF3000333603061ED
:10B3B000336843F470633360019BA4EB080405EB2E
:10B3C000C40443440AEB830AD4F86C3D9A686FF3D3
:10B3D0008A229A609A686FF309029A609A6842F426
:10B3E00000429A609AF9110E022166F051F9022189
:10B3F0009AF9100E66F04CF9D4F86C2D13680121FF
:10B400000B43136084F8681D07B0BDE8F08F94F813
:10B410000E0E66F075F92B68AA889A61FCE6A4EB1B
:10B42000080305EBC303C821D3F86C6DB9E7E0B39B
:10B4300089F8083040F60C23A9F8063094F80E0E6F
:10B4400066F05EF9E3E6A4EB080305EBC3036421B1
:10B45000D3F86C6DA5E71B4BD3F8202842F40012FB
:10B46000C3F82028D3F8202822F40012C3F820289B
:10B470007CE7144BD3F8202842F40002C3F82028BC
:10B48000D3F8202822F40002C3F820286EE70D4BE1
:10B49000D3F8202842F48002C3F82028D3F82028CB
:10B4A00022F48002C3F8202860E794F80E0E66F0BC
:10B4B00027F9B1E6C01E01200054004000580040AA
:10B4C000005C004000300240000001202DE9F04700
:10B4D000451C9DF824A05FD0AB4E1446C0EBC002C3
:10B4E00006EBC202054692F8689DC700B9F1000F4D
:10B4F00052D0FF2C00D01BB9BAF1000F40F01E81D2
:10B50000781B06EBC0020133DBB2A2F8763D089B44
:10B51000C2F8703D9D4B4FEA410803EBC00AD2F8D8
:10B520006C1D002382F8803D40F641338A69120485
:10B5300037D44FF4005241465046FCF753FF7A1B74
:10B5400006EBC20240F64133D2F86C2D91698807B0
:10B5500044D49169C9062ED51023D3617B1B06EB19
:10B56000C303112283F8802D02227B1B06EBC30349
:10B57000D3F86C0D40F641338169890625D5202327
:10B58000012AC36108D0B6F84C3E01339BB228466D
:10B59000A6F84C3EFFF708FE4FF000094846BDE80C
:10B5A000F087013BC2D17B1B06EBC303122283F859
:10B5B000802D0122D9E7013BC8D17B1B06EBC303D9
:10B5C000122283F8802D0222CFE7013BD4D17B1BCE
:10B5D00006EBC303122183F8801DD0E794627C1B25
:10B5E00006EBC404B4F8743D013B9BB2A4F8743D6F
:10B5F000B4F8763D013B9BB2A4F8763DB4F8763DB5
:10B600009BB2002B3ED0D4F86C2D40F641339169AB
:10B61000880716D49169C90609D57B1B06EBC303BD
:10B6200010201121D061042283F8801D9DE7013B89
:10B63000EDD17B1B06EBC303122283F8802D04227D
:10B6400093E7D4F8703D591CC4F8701D1B789362C1
:10B65000B4F8743D013B9BB2A4F8743DB4F8763D58
:10B66000013B9BB2A4F8763DB4F8743D9BB223B97C
:10B67000B4F8763D9BB2002B3ED1B4F8763D9BB238
:10B68000002BC0D17B1B06EBC30340F64132D3F83D
:10B690006C3D99698C0616D49969C80609D51022A3
:10B6A000DA617B1B06EBC303112283F8802D06228F
:10B6B0005BE7013AEDD17B1B06EBC303122283F853
:10B6C000802D062251E72022DA615A686FF30902C1
:10B6D0005A605A686FF30C325A605A686FF3174217
:10B6E0005A605A686FF318625A605A686FF38A2278
:10B6F0005A604846BDE8F08740F641339169080634
:10B7000016D49169C90609D51023D3617B1B06EBBA
:10B71000C303112283F8802D052226E7013BEDD1DA
:10B720007B1B06EBC303122283F8802D05221CE746
:10B73000002241465046FCF755FE9EE74FEA41087D
:10B74000791B06EBC1029BB2A2F8763D089BC2F8BA
:10B75000703D0E4B03EBC1090023D2F86C1D82F83B
:10B76000803D40F641338A6914045CD47C1B06EBAF
:10B77000C4044FF4005241464846FCF733FEB4F887
:10B78000763D9BB223BB58E0C01E01202C2C01202B
:10B79000D4F8703D591CC4F8701D1B789362B4F83E
:10B7A000743D013B9BB2A4F8743DB4F8763D013B77
:10B7B0009BB2A4F8763DB4F8743D9BB223B9B4F8BB
:10B7C000763D9BB2002B5ED1B4F8763D9BB2A3B31D
:10B7D000D4F86C2D40F6413391698807D8D491692B
:10B7E000C90616D57B1B06EBC30310201121D061BF
:10B7F000022283F8801D7B1B06EBC303D3F86C0D7C
:10B8000040F64133816989063FF5B9AE013BF9D174
:10B81000DDE6013BE0D17B1B06EBC303122283F87C
:10B82000802D0222E7E7013B9DD17B1B06EBC30382
:10B83000122283F8802D0122DDE77B1B06EBC30378
:10B8400040F64132D3F86C3D99698C0616D499695B
:10B85000C80609D51022DA617B1B06EBC30311224F
:10B8600083F8802D0422C6E7013AEDD17B1B06EB5D
:10B87000C303122283F8802D0422BCE72022DA6160
:10B880005A68D14622E740F641339169080616D43A
:10B890009169C90609D51023D3617B1B06EBC3034D
:10B8A000112283F8802D0322A5E7013BEDD17B1BFC
:10B8B00006EBC303122283F8802D03229BE70022AC
:10B8C00041464846FCF78EFD7EE700BF10B5046890
:10B8D0002379012B84B011D0022B0CD1A368DB0794
:10B8E0004FF0F0024CBFFF217F21204604B0BDE89D
:10B8F000104005F07FBF002004B010BDA268617C3D
:10B9000094F9100002F0010201920DF10F02009271
:10B91000F024FF228DF80F40FFF7D8FD04B010BDD2
:10B9200070B505682B79012B84B004460E4616D0FD
:10B93000022B11D1AB68E122DB074CBF114661211C
:10B94000284605F057FF38B120683246FF2104B081
:10B95000BDE8704006F07ABF002004B070BDAA6850
:10B96000697C95F9100002F001020DF10F050192BA
:10B970000095E1228DF80F20FFF7A8FDE3E700BF57
:10B9800070B505682B79012B84B004460E4617D09C
:10B99000022B12D1AB68DB074FF0C3024CBFE12191
:10B9A0006121284605F026FF38B120683246FF2184
:10B9B00004B0BDE8704006F049BF002004B070BD7F
:10B9C000AA6895F91000697C02F0010201920DF15C
:10B9D0000F020092C3228DF80F20E122FFF776FDBF
:10B9E000E2E700BF10B504682379CA4341EA0211B7
:10B9F000012B84B0CAB20FD0022B0AD1A368DB0797
:10BA00004CBFD2215221204604B0BDE8104005F0C1
:10BA1000F1BE002004B010BD8DF80F20A268617C3B
:10BA200094F9100002F001020DF10F04CDE900427B
:10BA3000D222FFF74BFD04B010BD00BF70B5056802
:10BA40002B79012B84B004460E461AD0022B15D157
:10BA5000AB68DB074FF0F0024CBFE12161212846C3
:10BA600005F0C8FE50B12246FF2152F8040B06F043
:10BA7000EDFE18B12379337004B070BD002004B01E
:10BA800070BDAA6895F91000697C02F0010201926C
:10BA90000DF10F020092F0228DF80F20E122FFF746
:10BAA00015FDDFE710B504682379012B84B011D0B0
:10BAB000022B0CD1A368DB074FF0B4024CBFFF216F
:10BAC0007F21204604B0BDE8104005F093BE002061
:10BAD00004B010BDA268617C94F9100002F001026C
:10BAE00001920DF10F020092B424FF228DF80F4055
:10BAF000FFF7ECFC04B010BD10B504682379012BEE
:10BB000084B010D0022B0BD1A368DB070A46204675
:10BB10004CBFA521252104B0BDE8104005F06ABE48
:10BB2000002004B010BDA26894F910008DF80F1029
:10BB300002F00102617C0DF10F04CDE90042A52263
:10BB4000FFF7C4FC04B010BD10B504682379012BC5
:10BB500084B011D0022B0CD1A368DB074FF0960202
:10BB60004CBFFF217F21204604B0BDE8104005F006
:10BB700041BE002004B010BDA268617C94F91000A1
:10BB800002F0010201920DF10F0200929624FF22B1
:10BB90008DF80F40FFF79AFC04B010BD10B5046893
:10BBA0002379012B84B010D0022B0BD1A368DB07C3
:10BBB0000A4620464CBF8721072104B0BDE810404B
:10BBC00005F018BE002004B010BDA26894F9100062
:10BBD0008DF80F1002F00102617C0DF10F04CDE928
:10BBE00000428722FFF772FC04B010BD10B5046854
:10BBF0002379C901012B84B0CAB20BD0022B06D124
:10BC00007821204604B0BDE8104005F0F3BD0020C7
:10BC100004B010BD8DF80F20A268617C94F910006B
:10BC200002F001020DF10F04CDE900427822FFF786
:10BC30004DFC04B010BD00BF10B504682379012B82
:10BC400084B011D0022B0CD1A368DB074FF0550252
:10BC50004CBFA5212521204604B0BDE8104005F0C9
:10BC6000C9BD002004B010BDA268617C94F9100029
:10BC700002F0010201920DF10F0200925524A5225B
:10BC80008DF80F40FFF722FC04B010BD2DE9F047FE
:10BC9000451C9DF824A058D0AB4F0546C0EBC00012
:10BCA00007EBC0044FEAC50894F8689DB9F1000F8E
:10BCB0004DD0FF2A03D1BAF1000F40F0D180A8EB9C
:10BCC00005004E0007EBC0019BB2A1F8763D089B32
:10BCD000C1F8703D9D4B03EBC00A002381F8803D05
:10BCE000D1F86C1D40F641338869000432D44B68AA
:10BCF00097480340334343F490334B60886984078B
:10BD000040F6413335D48869C0062DD51023CB6168
:10BD1000A8EB050307EBC303112283F8802DA8EBE2
:10BD2000050207EBC20240F64133D2F86C1D8A6966
:10BD3000920647D52023CB61B7F84C3E01339BB226
:10BD40002846A7F84C3EFFF72FFA4FF00009484667
:10BD5000BDE8F087013BC7D1A8EB050307EBC303A0
:10BD6000122283F8802DDAE7013BF5D08869840739
:10BD7000C9D58A6240F641338A6954066DD5A8EB6D
:10BD8000050407EBC4044FF4105231465046FCF74B
:10BD900029FBB4F8763D9BB2002B44D0D4F86C2D2F
:10BDA0009169480740F641331BD49169C90613D500
:10BDB000A8EB050307EBC30310201121D06183F822
:10BDC000801DACE7013BB2D1A8EB050307EBC30331
:10BDD000122283F8802DADE7013BBDD09169480761
:10BDE000E3D5D4F8703D526A591CC4F8701D1A701E
:10BDF000B4F8763D013B9BB2A4F8763DB4F8743DAF
:10BE0000013B9BB2A4F8743DB4F8743D9BB22BB9CE
:10BE1000B4F8763D9BB2002B40F0DE80B4F8763D5E
:10BE20009BB2002BBAD1A8EB050307EBC30340F686
:10BE30004132D3F86C3D9969880600F19280996986
:10BE4000C90640F187801022DA61A8EB050307EBF1
:10BE5000C303112283F8802D61E7013B8CD17BE77E
:10BE60009BB2A4F8763D089BC4F8703D4E000023B9
:10BE7000D4F86C1D84F8803D04F66C5940F64133CB
:10BE80008A6914045CD4A8EB050407EBC4044FF4DE
:10BE9000105231464846FCF7A5FAB4F8763D9BB2FD
:10BEA00013BB77E0D4F8703D526A591CC4F8701D7A
:10BEB0001A70B4F8763D013B9BB2A4F8763DB4F815
:10BEC000743D013B9BB2A4F8743DB4F8743D9BB241
:10BED0002BB9B4F8763D9BB2002B40F08D80B4F8BE
:10BEE000763D9BB2002B55D0D4F86C2D40F64133F3
:10BEF00091694807D6D49169C90617D5A8EB0503FF
:10BF000007EBC30310201121D06183F8801DA8EB3B
:10BF1000050207EBC20240F64133D2F86C1D8A6974
:10BF200094063FF507AF013BF9D14DE7013BDFD167
:10BF3000A8EB050307EBC303122283F8802DE6E785
:10BF4000013B9DD1F4E700BFC01E01202C2C012035
:10BF5000009800FC013A3FF4FFAE996988067FF52E
:10BF60006EAF2022DA615A686FF309025A605A688C
:10BF70006FF30C325A605A686FF317425A605A686E
:10BF80006FF318625A605A686FF38A225A60484603
:10BF9000BDE8F087A8EB050307EBC30340F6413289
:10BFA000D3F86C3D9969890611D49969CE0609D5F3
:10BFB0001022DA61A8EB050307EBC303112283F813
:10BFC000802DA4E7013AB3D099698906EDD52022E6
:10BFD000DA615A68D146C7E7D4F86C1D40F64133A0
:10BFE0008A69120605D5002231465046FCF7FAF957
:10BFF00014E7013BF4D1AFE6D4F86C1D40F64133B1
:10C000008A69100605D5002231464846FCF7EAF950
:10C0100065E7013BF4D18BE7F0B5044683B00D46EC
:10C020001746061D20680379012B18D0022B13D167
:10C030008368DB0732464FF0FF015CBF3246FF21C9
:10C0400006F0B0FB30B115B12379DB07EAD40FB1AC
:10C0500023793B7003B0F0BD002003B0F0BD8268CF
:10C06000417C90F9100002F00102CDE90062FF224C
:10C07000FFF70CFEE6E700BF30B5044683B0051DB0
:10C0800020680379012B14D0022B0FD18368DB07C2
:10C090002A464FF0FF015CBF2A46FF2106F082FBD3
:10C0A00010B12379DB07EBD403B030BD002003B01F
:10C0B00030BD8268417C90F9100002F00102CDE9A8
:10C0C0000052FF22FFF7E2FDEAE700BF30B502466B
:10C0D000044652F8040B0379012B83B00ED0022BD7
:10C0E00009D1FF2106F05EFB18B12079C04300F0B2
:10C0F000010003B030BD002003B030BD8568417C35
:10C1000090F91000009205F001050195FF22FFF75C
:10C11000BDFDE9E730B5B42283B00446FF210068D5
:10C1200005F0BAFB10B9002003B030BD20680379D8
:10C13000012B04F1040514D0022BF4D18368DB0732
:10C140002A464FF0FF015CBF2A46FF2106F02AFB7A
:10C150000028E8D02379DB07E6D520680379012B96
:10C16000EAD18268417C90F9100002F00102CDE929
:10C170000052FF22FFF78AFDEAE700BF30B50A460A
:10C1800083B00446A521006805F086FB10B90020A5
:10C1900003B030BD20680379012B04F1040514D0ED
:10C1A000022BF4D18368DB072A464FF0FF015CBF06
:10C1B0002A46FF2106F0F6FA0028E8D02379DB07AB
:10C1C000E6D520680379012BEAD18268417C90F999
:10C1D000100002F00102CDE90052FF22FFF756FDE8
:10C1E000EAE700BF70B582B0CDE900230446FFF74F
:10C1F00091FF10B9002002B070BD20685522A52122
:10C2000005F04AFB0028F5D0251D20682A46FF21AD
:10C2100006F01CFB0028EDD02379DB07F5D40DF1E7
:10C22000FF350DF1070615F8011F2046FFF7A6FFA1
:10C230000028DFD0B542F6D1DDE700BF002A37D0B5
:10C24000F0B5013A83B004464E1E51FA82F7051D3F
:10C2500016F8012F2068A52105F01EFB90B90020DB
:10C2600003B0F0BD8268417C90F9100002F0010239
:10C27000CDE90052FF22FFF709FD0028EFD0237916
:10C28000DB0710D520680379012BEBD0022BE6D118
:10C290008368DB072A464FF0FF015CBF2A46FF2177
:10C2A00006F080FAE9E7B742D2D1012003B0F0BD31
:10C2B0000120704770B5962282B004460E46006891
:10C2C000FF2105F0E9FA10B9002002B070BD251D6C
:10C2D00020680379012B1FD0022BF5D18368DB077F
:10C2E0002A464FF0FF015CBF2A46FF2106F05AFAAA
:10C2F0000028E9D02379DB07EAD4E122206811463F
:10C3000005F0CAFA0028DFD020683246FF2102B0CB
:10C31000BDE8704006F09ABA8268417C90F910003E
:10C3200002F00102CDE90052FF22FFF7AFFCDFE788
:10C33000002A46D0F0B5013A4F1C83B004460E46A1
:10C3400057FA82F7051D20689622FF2105F0A4FA0E
:10C3500090B9002003B0F0BD8268417C90F91000D4
:10C3600002F00102CDE90052FF22FFF78FFC002806
:10C37000EFD02379DB0710D520680379012BEBD0B0
:10C38000022BE6D18368DB072A464FF0FF015CBF32
:10C390002A46FF2106F006FAE9E7E1222068114665
:10C3A00005F07AFA0028D4D020683246FF2106F042
:10C3B0004DFA0028CDD00136BE42C4D1012003B0D1
:10C3C000F0BD0120704700BF70B505460B4604461E
:10C3D000164655F8040B82B087211A4605F05CFA20
:10C3E00020680379012B18D0022B13D18368DB0757
:10C3F0002A464FF0FF015CBF2A46FF2106F0D2F922
:10C4000030B12379DA07EBD416B1C3F3401333709C
:10C4100002B070BD002002B070BD8268417C90F90E
:10C42000100002F00102CDE90052FF22FFF72EFCBE
:10C43000E6E700BF70B5782182B004461646006872
:10C44000002205F029FA10B9002002B070BD251DA8
:10C4500020680379012B14D0022BF5D18368DB0708
:10C460002A464FF0FF015CBF2A46FF2106F09AF9E9
:10C470000028E9D02379DA07EAD45B09337002B0E7
:10C4800070BD8268417C90F9100002F00102CDE994
:10C490000052FF22FFF7FAFBEAE700BF30B5CC22DB
:10C4A00083B00446A521006805F0F6F910B9002014
:10C4B00003B030BD20680379012B04F1040514D0CA
:10C4C000022BF4D18368DB072A464FF0FF015CBFE3
:10C4D0002A46FF2106F066F90028E8D02379DB0719
:10C4E000E6D520680379012BEAD18268417C90F976
:10C4F000100002F00102CDE90052FF22FFF7C6FB57
:10C50000EAE700BF30B5B42283B00446FF210068DB
:10C5100005F0C2F910B9002003B030BD251D206818
:10C520000379012B22D0022BF5D18368DB072A4641
:10C530004FF0FF015CBF2A46FF2106F033F90028C7
:10C54000E9D02379DA07EAD4CC212046FFF716FE9A
:10C550000028E0D002E02379DB07DDD520682A46F9
:10C56000FF2106F073F90028F5D1D4E78268417CF9
:10C5700090F9100002F00102CDE90052FF22FFF70E
:10C5800085FBDCE72DE9F04F89B00446CDE90623B1
:10C59000002004F1040B0490029103905D462046B4
:10C5A000049FFFF7B7FD069BFE0003EBC70B20B906
:10C5B0000AE0237913F0010A0CD020682A46FF21F3
:10C5C00006F044F90028F4D1079B049A1A7009B0C8
:10C5D000BDE8F08F9B07F7D5F0212046FFF7CEFD91
:10C5E0000028F1D0069B083E334401270593D0462E
:10C5F0003E46029B002B4AD0082E48D806F1FF3950
:10C6000043FA09F909F0010920684FEAC9127821B3
:10C6100005F042F90028D7D020680379012B47D0D4
:10C62000022B43D18368DB072A464FF0FF015CBF32
:10C630002A46FF2106F0B6F80028C5D0237913F06A
:10C640000102E9D103F0600160294FEAD31C51D007
:10C65000029919B1082E01D8E145B5D1BCF1000FFE
:10C660003AD01BF808303B430BF808307F00013606
:10C6700017F0FF07F6B2BCD108F101085FFA88F89D
:10C68000B8F1080F36D0029B0127002BB4D1049BD0
:10C69000D3B1039BB34217D9059B13F808301F424F
:10C6A00014BF4FF001094FF00009ADE700208BE700
:10C6B0008268417C90F9100002F00102CDE900523D
:10C6C000FF22FFF7E3FAB7E7039BA3EB0609B9FAEA
:10C6D00089F94FEA591997E71BF8081021EA070171
:10C6E0000BF80810990941EA531313F0010F08BF22
:10C6F000B246BBE7402E06D8079B049A1B789342AC
:10C700003FF64DAF60E79BF807C00BF1FF370BF129
:10C71000060B17F8011F082382EA010616F0010F25
:10C720004FEA520218BF82F08C0203F1FF3318BFA8
:10C73000D2B213F0FF034FEA5101EDD1BB45E8D16E
:10C740009445D9D1049B0133DBB20493BAF1000FB5
:10C750003FF43AAFCDF80CA0CEE700BF10B50068AB
:10C760000379012B84B00C4618D0022B13D18368B7
:10C7700013F0010F14BF2221A221032303AA05F005
:10C7800065FA30B1BDF90D3003EB83031B12E633BC
:10C79000238004B010BD002004B010BD8368417C2C
:10C7A00090F9100003F00103019303AB00932222E0
:10C7B0000323FFF76BFA0028E4D1EAE7016840F2AF
:10C7C000FF62024000236FF30001B2F5C16F016008
:10C7D000036043608360C3600ED2C3B20A4A0B4950
:10C7E000083BA2FB03231B0948689B000F2202FAA7
:10C7F00003F303434B607047B2F5D16FFBD2C3B272
:10C80000014A0349083BECE7CDCCCCCC00640240A4
:10C810000066024030B4094A094B82B002EB800046
:10C820000025CA245322019501905C625A62019846
:10C83000FF2201605A6202B030BC704750280040AD
:10C84000002800400B88002B43D02DE9F0434FF027
:10C85000000E032601251FFA8EFC4FEA4C0213F04E
:10C86000010F06FA02F705FA0CF80EF1010E2CD0B2
:10C87000046824EA070404608C79D0F8009094409E
:10C8800044EA09040460446824EA080444600C791A
:10C89000D0F8048004FA0CFC4CEA08044460846874
:10C8A00024EA07048460CC79D0F808C0944044EAB4
:10C8B0000C048460C46824EA0707C76091F805C0C7
:10C8C000C4680CFA02F22243C2605B08C3D1BDE81F
:10C8D000F083704770B5A04882B0FEF7D7F89F4A42
:10C8E0009F4B1169012060F302011161196E02F57D
:10C8F000E43260F30101196613680343136013689F
:10C900009907FCD5936897496FF3010393608B688F
:10C9100013F00C0FC3F38102F9D10B68924C23F092
:10C92000867323F480334FF41F000B608A604C60E1
:10C93000C1F8A020C8600B688C4A43F480330B60B8
:10C94000D2F800389B0307D44FF44053D2F80018B4
:10C950008E0301D4013BF9D1D2F800389D03EFD505
:10C96000804B82495A6842F480025A605A684824CF
:10C9700064F38E125A605A68012060F303025A6011
:10C980005A6860F312425A601A6842F080721A6064
:10C99000D1F800389C01FBD5724B9A686FF30712EF
:10C9A0009A609A68042161F34F329A609A6861F341
:10C9B0008C229A60D3F8A42042F03002C3F8A4205D
:10C9C0009A68022060F301029A609A68C2F38102B9
:10C9D000022AFAD1D3F8A4206FF30512C3F8A420D9
:10C9E000D3F8A4200B2161F30F32C3F8A420D3F8AD
:10C9F000A0206FF34D32C3F8A0209A6812F00C0FFC
:10CA0000C2F381017FD0022900F08C80584D594B30
:10CA1000594C2B60534B29689A68584E5848C2F3BA
:10CA200003122244574C92F88C20D1402960E168CF
:10CA30004FF6FF021140544A0A43E2605A6FC6F8AB
:10CA4000502E4A49514AA260D1F8342822F00042BF
:10CA5000C1F834285A6F42F080725A67FEF716F810
:10CA60004B48FEF713F84B48FEF710F84A4840F2DF
:10CA7000FF5269464FF08073CDE90023FFF7E2FED5
:10CA80004FF6FF7300F580600093FFF7DBFE00F5C3
:10CA90008060FFF7D7FE00F58060FFF7D3FE00F55A
:10CAA0008060FFF7CFFE00F58060FFF7CBFED4F883
:10CAB000FC202B68394942F08072C4F8FC20384AC7
:10CAC000A2FB03524FF06040920CC6F8542E354A38
:10CAD000C0F8B02F002048600A6842F001020A60E6
:10CAE000314AA2FB03239B09013BB3F1807F08D2AB
:10CAF0004FF0E022F0215361072384F82310906166
:10CB0000136102B070BDD3F8A020194D50047FF519
:10CB10007EAFD3F8A030D9047FF579AF234B164C04
:10CB20002B6077E75A68586859685E68124C104D58
:10CB3000C6F30246264401F00F0296F884300D49F0
:10CB4000C0F3881003FB02F2A0FB0101002368F090
:10CB500099FA28605EE700BF1C00400000700040AA
:10CB6000003C024000380240023003000030024026
:10CB70000000012000127A00CCBC0708C01E012072
:10CB80001F00300000ED00E00003FA05000000087F
:10CB90001F0040001F00440000000240001000E0A1
:10CBA00083DE1B4355CEACC5D34D6210006CDC0256
:10CBB0002DE9F0412348244F244E254C82B03C22DD
:10CBC00000216BF0D1FE002557F8251032460023D6
:10CBD00001E054F8332091422ED001330F2BF8D1CD
:10CBE0000020063564F08CFD1E2DEDD1DFF8588055
:10CBF000184F08F178054FF0022698F8040006F067
:10CC0000B1FD08F11808044688B1036803F13F43F9
:10CC100003F57E0307EB932393F8140164F070FD92
:10CC2000A3880196206800936946FFF70BFEA8458C
:10CC3000E3D102B0BDE8F081064A02EBC30393F8EA
:10CC4000A000CEE7D02C01202C0E012000000140D6
:10CC500068BD0708CCBC070810B5114C82B04FF472
:10CC60004010FDF713FF4FF4C0524FF08173694637
:10CC70002046CDE90023FFF7E5FD636A23F4702326
:10CC80006362636A43F420236362636A23F470433C
:10CC90006362636A43F42043636202B010BD00BF65
:10CCA000000002402DE9F047894600295CD000EBE6
:10CCB000010A2F4E00F1FF380AF1FF3A7027EFF317
:10CCC000118187F31288D6F80C33D6F81003D6F802
:10CCD0000C43D6F81023C9B281F31188A24234BFA5
:10CCE000002201221B1A03EBC223012B25D109F0DC
:10CCF0003DFB04460D4609F039FB001B61EB0501C5
:10CD0000B0F57A7F71F10003F5D3EFF3118187F36A
:10CD10001288D6F80C33D6F81003D6F80C23D6F8C0
:10CD20001043C9B281F31188A2428CBF00220122B4
:10CD30001B1A03EBC223012BD9D0EFF3118287F327
:10CD40001288D6F8103318F8011F3344D2B283F892
:10CD5000581ED6F810330133C3F30A03C6F8103354
:10CD600082F31188D045AAD14846BDE8F08700BFBC
:10CD7000C01E0120F8B50D4B93F8E832032B00D00C
:10CD8000F8BD0B4E0D46D6F86075144609E0FFF766
:10CD900089FFD6F86035DB1B322BA4EB0004054479
:10CDA000EED8002C21462846F1DCF8BDC01E01203B
:10CDB000B82F0120344A9368596A91F85230012BF8
:10CDC00057D170B5314CD4F8640568BBD2F80C0368
:10CDD000D2F81033984222D0D2F80C03D2F8103394
:10CDE00098424BD8D2F81033D2F80C031B1AD2F861
:10CDF0000C2391F8520090B1B3F5007F28BF4FF497
:10CE0000007323481D46002381F852300244ABB220
:10CE1000A0F654608121FBF7CBFEC4F864551D4B8E
:10CE20006FF001021A6170BDD2F80C5300F03F039D
:10CE30002844C2F80C03D2F80C03B0F5006F04BF0D
:10CE40000020C2F80C030020C4F86405002BBDD1FB
:10CE5000D2F80C2391F852000028E4D00C4881F855
:10CE600052300244BDE87040A0F654608121FBF7C7
:10CE70009FBE084B6FF001021A617047D2F80C3365
:10CE8000C3F50063B3E700BFC01E0120B82F012027
:10CE9000182D0120004C01402DE9F04FA04D85B028
:10CEA0002B68009359699A695B69D80731D401EA04
:10CEB000020919F0020F40F0868019F4802F40F02B
:10CEC000898019F4002F40F0178119F4805F40F039
:10CED000578119F0080F07D0AB68DB690BB1914897
:10CEE0009847009A0823536119F4005F14D119F090
:10CEF000100F41D119F4801F57D119F4001F40F0D1
:10CF0000B081B9F1000FC0F2C88119F4006F40F090
:10CF1000B78105B0BDE8F08F68688349D0F8003963
:10CF20006FF30A03C0F80039D0F804286FF3082221
:10CF3000C0F80428C368052262F38D23C36040262D
:10CF40000124C5F87861A5F87241FBF75BFC00236A
:10CF5000764968686B82AE61FBF754FCAB6885F874
:10CF6000E8425B680BB16F489847009A4FF4005352
:10CF700019F0100F5361BDD06A68936923F0100354
:10CF80009361136AC3F343410229C3F30A1603F002
:10CF90000F0300F05C82062900F0C283936919F444
:10CFA000801F43F010039361A7D0AB681B6A13B1D5
:10CFB0005C4805219847009A4FF4801319F4001F2C
:10CFC00053619ED04DE1009A022319F4802F5361E2
:10CFD0003FF477AF6F6807F50063D7F818680193DF
:10CFE000D7F81C381E40B6B2002E3FF46AAF4C4C46
:10CFF000CDF8089007F510674FF0000808E07608B4
:10D0000008F1010804F12C0407F1200700F0658104
:10D01000F207F4D5019B1A695B6B23FA08FA4FEA11
:10D02000CA1ABB685FFA8AFA4AEA020A0AEA030ADB
:10D030001AF0010F4FEA481940F064811AF0080F06
:10D040001CBF0823BB601AF0100F1CBF1023BB606D
:10D050001AF0400F1CBF4023BB601AF0020F1CBF28
:10D060000223BB601AF0800FC9D0D5F804A0A26AD1
:10D07000E16A0AF510639944A369D9F81800A2EB94
:10D08000010E9E4528BF9E4680B20EF10303B0EB11
:10D09000930F40F229811FFA88FC0AF5805000EBBB
:10D0A0000C3C914280F02081A369A2EB010E9E45C9
:10D0B00028BF9E461FFA8EFB0BF1030B0EF10300F7
:10D0C0005FEAAB0B626A4FEA900009D0002301339C
:10D0D00052F8041BCCF800109B45F8D1626AE16A53
:10D0E000D9F818309BB27244714498426262E1628E
:10D0F00080F0FA80A26AD4E76E68D6F81848D6F8AD
:10D100001C381C40240C06F5006B3FF4DEAE084BC7
:10D11000A3F5337ACDE9019A06F5306600270FE0D2
:10D12000C01E0120C41E012030200120D01E01207D
:10D1300090210120640807F1010706F1200619D0AB
:10D14000E307F7D5B268DBF8143002EA030818F0F9
:10D15000010F40F0418118F0080F40F0F78018F0FF
:10D16000100F1CBF1023B360640807F1010706F11C
:10D170002006E5D1DDF8049019F4805F3FF4A9AEF4
:10D180006C68D4F804386FF30003C4F8043864F012
:10D190006FF82369102262F38A132361236943F035
:10D1A000200304F500662361BA4B01E0013B02D085
:10D1B00022699006FAD404F5106304F52061FF2279
:10D1C0009A60C3F8082220339942F9D14FF0FF3317
:10D1D000B3614FF00113F361736943F001037361AD
:10D1E000736943F002037361736943F00803736169
:10D1F000336943F001033361336943F00203336160
:10D20000336943F008033361D4F800386FF30A132D
:10D21000C4F800380023C4F8103BD4F8103B0121B7
:10D2200061F3DC43C4F8103BD4F8103B182262F3DE
:10D230001203C4F8103BD4F8103B43F0C043C4F8C9
:10D24000103BAB6885F8E8121B6A0BB1924898470F
:10D25000009A4FF4805319F0080F53613FF444AE25
:10D260003AE6AB681B6A13B18B4806219847009ACF
:10D270004FF40013B9F1000F5361BFF646AE0CE056
:10D280006B68D3F80828D10700F10881009A4FF4A1
:10D290000063536105B0BDE8F08F6B68D3F80418E4
:10D2A0006FF30001C3F80418D3F8002E6FF30002E7
:10D2B000C3F8002E95F8E922AB6885F8E8221B6ACE
:10D2C00013B1754803219847009A4FF0004319F4B1
:10D2D000006F53613FF41DAED2E7DDF8089019F4FA
:10D2E000002F3FF4F2AD07E7BEF1000F7FF487AEE9
:10D2F000DAF83438012202FA08F223EA0203CAF803
:10D3000034387CE6019901224B6B02FA08F223EAD9
:10D3100002034B6318F0FF0B4FF00103BB607BD19E
:10D3200095F8E432022B7FF489AE6B6BA9698B42CE
:10D3300040F22E825B1A99426B636A6A564894BF28
:10D340008BB29BB20021FBF733FC77E60823B36076
:10D3500095F8DB3295F8DA1295F8DC9295F8DF2231
:10D3600095F8D8C295F8D90285F8D0C201EB03210F
:10D3700095F8DD3285F8D10209EB032995F8DE3204
:10D3800003EB0223012285F8E4220CF01F029BB27A
:10D3900089B21FFA89F9012AA5F8D212A5F8D49208
:10D3A000A5F8D632A5F8E63200F0AA81022A00F0EC
:10D3B0006A81002A00F08D8095F8EA32002B3FF454
:10D3C000CEAE6A68D2F80018002063F30A11C2F8E2
:10D3D000001885F8EA02C2E6012317F0FF01B360E6
:10D3E00028D195F8E432032B7FF4B5AED5F894112B
:10D3F000D5F87831994240F2AA81C91A8B42C5F812
:10D40000941188BF8BB2D5F8842198BF9BB20021BC
:10D410005046FBF771FC9EE6AB685B69002B3FF45E
:10D420000DAE95F8E822032A7FF408AE59461A4853
:10D43000984703E6AB689B69002B3FF48CAE95F8E8
:10D44000E822032A7FF487AE5046984783E6002EF1
:10D450003FF4A4AD2C2101FB0351F71CD1F884E16A
:10D46000BF1002F5805C704600210131DCF80040FD
:10D4700040F8044B8F42F8D12C2101FB03530EEBF3
:10D480000600D3F88C11C3F884013144C3F88C1121
:10D4900084E500BF420D0300C41E012095F8E82278
:10D4A00085F8E922042285F8E822D3F80828D20773
:10D4B00008D4AB681B6A002B3FF4E8AE0221AE48EB
:10D4C0009847E3E6D3F8002E42F00102C3F8002E9D
:10D4D000EFE71CF0600F40F04981092806D8DFE82B
:10D4E00000F0A380056B05BE44052E095046FBF7EE
:10D4F0001FFB61E7A14AC9B259EA030382F8681524
:10D50000F4D195F8E822022A00F02282032AEDD114
:10D51000002940F00082AB6885F8ED12022285F800
:10D52000E8225B680391504698470399042385F8E5
:10D53000E4320A460B465046FBF73AFB3CE7012B28
:10D54000D4D195F8E822022A00F0B081032ACDD187
:10D550008B4A02216FF43A7085F8E412101800210A
:10D56000C5E90D33FBF724FB26E70B0A022B00F07D
:10D57000B181032B00F0A681012BB7D1EB681B68AA
:10D58000984700283FF418AF0388002B3FF414AFEE
:10D59000B5F8D622002A3FF40FAF93424FF00201B4
:10D5A00028BF1346426885F8E41250460021C5E9B9
:10D5B0000D33FBF7FDFAFFE601297FF4FDAE85F898
:10D5C000EB12AB686F499B68A1F533709847002355
:10D5D000042285F8E42219461A465046FBF7E8FA79
:10D5E000EAE695F8E832023B012B3FF67FAF0129CE
:10D5F0007FF4E2AED5F8F032624923F002034FF037
:10D600000009C5F8F032AB6885F8EB929B68A1F58C
:10D6100033709847042385F8E4324A464B4649461E
:10D620005046FBF7C5FAC7E695F8E832023B012BF6
:10D630003FF65CAF95F8EB322BB1D5F8F03243F002
:10D640000203C5F8F032504A02230021A2F53B70D4
:10D65000C5E90D3385F8E432FBF7AAFAACE659EADE
:10D6600003037FF443AF95F8E822032A01F07F011A
:10D670003FF43CAF002914BF0222012285F8EA12D0
:10D6800085F8E822A4E70CF0600CBCF1200F5FFAEB
:10D6900089F308D1AA683B499268039350469047A2
:10D6A00095F8D102039B012800F0A480032800F024
:10D6B0008D8000287FF41AAF95F8E822022A7DD0E9
:10D6C000032A7FF413AF03F07F022C2303FB0252E3
:10D6D00019F0800F14BF103202F5B8720021537B8D
:10D6E000A3F10103B3FA83F35B0942F8103F5046FC
:10D6F0000223C5E90D3385F8E432FBF759FA5BE6FE
:10D7000095F8E832032B7FF4F1AEAB681D499B68B6
:10D7100050469847B5F8D632002B7FF44DAE56E709
:10D72000F71CBF100AD0194802F5805C00210131B6
:10D73000DCF8004040F8044B8F42F8D12C2101FB6B
:10D740000353D3F88C113144C3F88C1126E4AB6831
:10D750001B690BB1504698470023042285F8E42248
:10D7600019461A465046FBF723FAF4E4AB6805491C
:10D770009B68504698471FE6C41E0120B82F012021
:10D78000AD21012090210120B0210120982101200C
:10D790002B6B994261D0AB68DB682BB195F8E8221E
:10D7A000032A01D1734898470023052285F8E42213
:10D7B00070481A461946FBF79FFA3FE459063FF4B2
:10D7C000FBAD19465046FBF783F9F5E595F8E822DD
:10D7D000022AF3D0032A7FF489AEB5F8D222002AB8
:10D7E0007FF4EFAE5A063FF4ECAE19465046FBF715
:10D7F0006FF9E6E695F8E822022ADFD0032A7FF4E3
:10D8000075AEB5F8D222002A7FF4D6AD13F07F01B1
:10D810003FF4DDAE19F0800F6A6877D12C2101FB4F
:10D82000035303F5B871887870BB02F510630A786A
:10D8300003EB4213CA78D3F800C0023A60F3555C98
:10D84000012AC3F800C02CD900224A73AB684A49A8
:10D850009B68A1F533709847B9E6AB6B99429AD8AB
:10D86000B5F8E622934296D25B465A46594641485D
:10D87000C5F830B0FBF79CF93E485B465A4659461E
:10D88000FBF73AFAFFF7DABB02F530630A7803EBED
:10D8900042131A686FF355521A60CA78023A012A85
:10D8A000D2D81A6842F080521A60CDE785F8E42297
:10D8B0000021324A029885F8EC12C5E90D33FBF7D6
:10D8C00077F979E5C9B205294DD8DFE801F01B17D2
